:020000040800F2
:1000000000000220FD2D00082D2B0008352B0008D4
:100010003D2B0008452B00084D2B00080000000078
:1000200000000000000000000000000071E1010875
:10003000552B00080000000061E40108C9E4010834
:100040004D2E00084D2E00084D2E00084D2E0008A4
:100050004D2E00084D2E00084D2E00084D2E000894
:10006000632B00084D2E00084D2E0008712B000850
:100070004D2E00084D2E00084D2E00084D2E000874
:10008000852B00084D2E00084D2E00084D2E00082F
:100090004D2E00084D2E00084D2E00084D2E000854
:1000A0004D2E00084D2E00084D2E00084D2E000844
:1000B0004D2E00084D2E00084D2E00084D2E000834
:1000C0004D2E00084D2E00084D2E00084D2E000824
:1000D0004D2E00084D2E00084D2E0008992B0008CB
:1000E0004D2E0008AD2B00084D2E00084D2E0008A7
:1000F0004D2E00084D2E00084D2E00084D2E0008F4
:100100004D2E0008C12B00084D2E0008D52B0008ED
:10011000E92B00084D2E00084D2E0008FD2B00088D
:100120004D2E00084D2E00084D2E0008112C000801
:100130004D2E00084D2E00084D2E00084D2E0008B3
:100140004D2E00084D2E00084D2E00084D2E0008A3
:100150004D2E0008252C00084D2E0008392C0008D3
:100160004D2E00084D2E00084D2E00084D2E000883
:100170004D2E00084D2E00084D2E000800000000F6
:080180004D2E00084D2E000871
:1001900010B5054C237833B9044B13B10448AFF3C1
:1001A00000800123237010BDE8040020000000003F
:1001B00098A2020808B5034B1BB103490348AFF3EB
:1001C000008008BD00000000EC04002098A2020896
:1001D00010F8012B11F8013B012A28BF9A42F7D0F1
:1001E000D01A7047034613F8012B002AFBD1181AC6
:1001F000013870470000000000000000000000000F
:1002000001F0FF01102A2BDB10F0070F08D010F8C7
:10021000013B013A8B422DD010F0070F42B3F6D1CB
:10022000F0B441EA012141EA014122F007047FF0E4
:1002300000070023F0E80256083C85EA010586EA3B
:10024000010685FA47F5A3FA87F586FA47F6A5FA77
:1002500087F68EB9EED1F0BC01F0FF0102F0070283
:1002600032B110F8013B013A83EA010313B1F8D12E
:100270000020704701387047002D06BF354603380F
:10028000073815F0010F07D1013015F4807F02BF48
:10029000013015F4C03F0130F0BC0138704700BF99
:1002A00081F0004102E000BF83F0004330B54FEA27
:1002B00041044FEA430594EA050F08BF90EA020F94
:1002C0001FBF54EA000C55EA020C7FEA645C7FEA27
:1002D000655C00F0E2804FEA5454D4EB5555B8BF4A
:1002E0006D420CDD2C4480EA020281EA030382EABB
:1002F000000083EA010180EA020281EA0303362D4D
:1003000088BF30BD11F0004F4FEA01314FF4801C1F
:100310004CEA113102D0404261EB410113F0004F31
:100320004FEA03334CEA133302D0524263EB4303E8
:1003300094EA050F00F0A780A4F10104D5F1200E86
:100340000DDB02FA0EFC22FA05F2801841F10001E1
:1003500003FA0EF2801843FA05F359410EE0A5F1B5
:1003600020050EF1200E012A03FA0EFC28BF4CF0E6
:10037000020C43FA05F3C01851EBE37101F000459C
:1003800007D54FF0000EDCF1000C7EEB00006EEBA9
:100390000101B1F5801F1BD3B1F5001F0CD3490833
:1003A0005FEA30004FEA3C0C04F101044FEA44528A
:1003B00012F5800F80F09A80BCF1004F08BF5FEA11
:1003C000500C50F1000041EB045141EA050130BDF1
:1003D0005FEA4C0C404141EB0101013C28BFB1F503
:1003E000801FE9D291F0000F04BF01460020B1FA4E
:1003F00081F308BF2033A3F10B03B3F120020CDA21
:100400000C3208DD02F1140CC2F10C0201FA0CF0FE
:1004100021FA02F10CE002F11402D8BFC2F1200C63
:1004200001FA02F120FA0CFCDCBF41EA0C01904019
:10043000E41AA2BF01EB0451294330BD6FEA040462
:100440001F3C1CDA0C340EDC04F11404C4F120024D
:1004500020FA04F001FA02F340EA030021FA04F35F
:1004600045EA030130BDC4F10C04C4F1200220FAB6
:1004700002F001FA04F340EA0300294630BD21FAF4
:1004800004F0294630BD94F0000F83F4801306BFBA
:1004900081F480110134013D4EE77FEA645C18BFAE
:1004A0007FEA655C29D094EA050F08BF90EA020F45
:1004B00005D054EA000C04BF1946104630BD91EA3D
:1004C000030F1EBF0021002030BD5FEA545C05D140
:1004D0004000494128BF41F0004130BD14F580047F
:1004E0003CBF01F5801130BD01F0004545F0FE41F3
:1004F00041F470014FF0000030BD7FEA645C1ABF28
:10050000194610467FEA655C1CBF0B46024650EA5E
:10051000013406BF52EA033591EA030F41F400218A
:1005200030BD00BF90F0000F04BF0021704730B510
:100530004FF4806404F132044FF000054FF00001E5
:1005400050E700BF90F0000F04BF0021704730B5A6
:100550004FF4806404F1320410F0004548BF40427B
:100560004FF000013EE700BF42004FEAE2014FEAD0
:1005700031014FEA02701FBF12F07F4393F07F4FAB
:1005800081F06051704732F07F4208BF704793F0AE
:100590007F4F04BF41F40021704730B54FF46074C1
:1005A00001F0004521F000411CE700BF50EA0102C4
:1005B00008BF704730B54FF000050AE050EA01026D
:1005C00008BF704730B511F0004502D5404261EBDD
:1005D00041014FF4806404F132045FEA915C3FF41E
:1005E000D8AE4FF003025FEADC0C18BF03325FEABB
:1005F000DC0C18BF033202EBDC02C2F1200300FA6C
:1006000003FC20FA02F001FA03FE40EA0E0021FA90
:1006100002F11444BDE600BF70B54FF0FF0C4CF47E
:10062000E06C1CEA11541DBF1CEA135594EA0C0F30
:1006300095EA0C0F00F0DEF82C4481EA030621EA6B
:100640004C5123EA4C5350EA013518BF52EA0335A6
:1006500041F4801143F4801338D0A0FB02CE4FF058
:100660000005E1FB02E506F00042E0FB03E54FF088
:100670000006E1FB03569CF0000F18BF4EF0010E80
:10068000A4F1FF04B6F5007F64F5407404D25FEA7C
:100690004E0E6D4146EB060642EAC62141EA55512F
:1006A0004FEAC52040EA5E504FEACE2EB4F1FD0C71
:1006B00088BFBCF5E06F1ED8BEF1004F08BF5FEAEF
:1006C000500E50F1000041EB045170BD06F00046A1
:1006D00046EA010140EA020081EA0301B4EB5C044E
:1006E000C2BFD4EB0C0541EA045170BD41F4801146
:1006F0004FF0000E013C00F3AB8014F1360FDEBF6B
:10070000002001F0004170BDC4F10004203C35DA46
:100710000C341BDC04F11404C4F1200500FA05F3C9
:1007200020FA04F001FA05F240EA020001F000426A
:1007300021F0004110EBD37021FA04F642EB0601E0
:100740005EEA430E08BF20EAD37070BDC4F10C040A
:10075000C4F1200500FA04F320FA05F001FA04F2CE
:1007600040EA020001F0004110EBD37041F10001BA
:100770005EEA430E08BF20EAD37070BDC4F12005C5
:1007800000FA05F24EEA020E20FA04F301FA05F22D
:1007900043EA020321FA04F001F0004121FA04F2D5
:1007A00020EA020000EBD3705EEA430E08BF20EAA5
:1007B000D37070BD94F0000F0FD101F000464000DF
:1007C00041EB010111F4801F08BF013CF7D041EA61
:1007D000060195F0000F18BF704703F00046520065
:1007E00043EB030313F4801F08BF013DF7D043EA36
:1007F0000603704794EA0C0F0CEA135518BF95EAEC
:100800000C0F0CD050EA410618BF52EA4306D1D172
:1008100081EA030101F000414FF0000070BD50EA91
:10082000410606BF1046194652EA430619D094EA1B
:100830000C0F02D150EA013613D195EA0C0F05D105
:1008400052EA03361CBF104619460AD181EA030159
:1008500001F0004141F0FE4141F470014FF0000011
:1008600070BD41F0FE4141F4780170BD70B54FF0AC
:10087000FF0C4CF4E06C1CEA11541DBF1CEA13552C
:1008800094EA0C0F95EA0C0F00F0A7F8A4EB05040E
:1008900081EA030E52EA03354FEA013100F0888005
:1008A0004FEA03334FF0805545EA131343EA1263CE
:1008B0004FEA022245EA111545EA10654FEA002683
:1008C0000EF000419D4208BF964244F1FD0404F53C
:1008D000407402D25B084FEA3202B61A65EB030598
:1008E0005B084FEA32024FF480104FF4002CB6EB55
:1008F000020E75EB030E22BFB61A754640EA0C00D5
:100900005B084FEA3202B6EB020E75EB030E22BF14
:10091000B61A754640EA5C005B084FEA3202B6EB55
:10092000020E75EB030E22BFB61A754640EA9C0014
:100930005B084FEA3202B6EB020E75EB030E22BFE4
:10094000B61A754640EADC0055EA060E18D04FEAA2
:10095000051545EA16754FEA06164FEAC30343EA42
:1009600052734FEAC2025FEA1C1CC0D111F4801F0F
:100970000BD141EA00014FF000004FF0004CB6E708
:1009800011F4801F04BF01430020B4F1FD0C88BFA7
:10099000BCF5E06F3FF6AFAEB5EB030C04BFB6EBB2
:1009A000020C5FEA500C50F1000041EB045170BDA5
:1009B0000EF0004E4EEA113114EB5C04C2BFD4EBD2
:1009C0000C0541EA045170BD41F480114FF0000E56
:1009D000013C90E645EA060E8DE60CEA135594EAD2
:1009E0000C0F08BF95EA0C0F3FF43BAF94EA0C0FD5
:1009F0000AD150EA01347FF434AF95EA0C0F7FF44A
:100A000025AF104619462CE795EA0C0F06D152EA9D
:100A100003353FF4FDAE1046194622E750EA410681
:100A200018BF52EA43067FF4C5AE50EA41047FF492
:100A30000DAF52EA43057FF4EBAE12E74FF0FF3CF7
:100A400006E000BF4FF0010C02E000BF4FF0010CC8
:100A50004DF804CD4FEA410C7FEA6C5C4FEA430C41
:100A600018BF7FEA6C5C1BD001B050EA410C0CBF90
:100A700052EA430C91EA030F02BF90EA020F0020F2
:100A8000704710F1000F91EA030F58BF994208BF59
:100A900090422CBFD8176FEAE37040F00100704716
:100AA0004FEA410C7FEA6C5C02D150EA013C07D16D
:100AB0004FEA430C7FEA6C5CD6D152EA033CD3D0B8
:100AC0005DF8040B704700BF8446104662468C46B2
:100AD0001946634600E000BF01B5FFF7B7FF0028E5
:100AE00048BF10F1000F01BD4DF808EDFFF7F4FF0E
:100AF0000CBF012000205DF808FB00BF4DF808ED99
:100B0000FFF7EAFF34BF012000205DF808FB00BFBB
:100B10004DF808EDFFF7E0FF94BF012000205DF8DD
:100B200008FB00BF4DF808EDFFF7CEFF94BF012092
:100B300000205DF808FB00BF4DF808EDFFF7C4FF8B
:100B400034BF012000205DF808FB00BF4FEA410CD4
:100B50007FEA6C5C02D150EA013C0AD14FEA430CB7
:100B60007FEA6C5C02D152EA033C02D14FF00000F4
:100B700070474FF0010070474FEA410212F5001232
:100B800015D211D56FF47873B3EB625212D94FEAD4
:100B9000C12343F0004343EA505311F0004F23FABE
:100BA00002F018BF404270474FF00000704750EA13
:100BB000013005D111F0004008BF6FF000407047D0
:100BC0004FF00000704700BF4A0011D212F500122A
:100BD00011D20DD56FF47873B3EB62520ED44FEA95
:100BE000C12343F0004343EA505323FA02F0704715
:100BF0004FF00000704750EA013002D14FF0FF3053
:100C000070474FF0000070474FEA4102B2F1E043F5
:100C100024BFB3F5001CDCF1FE5C0DD901F0004CE3
:100C20004FEAC0024CEA5070B2F1004F40EB830033
:100C300008BF20F00100704711F0804F21D113F15F
:100C40003872BCBF01F00040704741F480114FEA98
:100C50005252C2F11802C2F1200C10FA0CF320FA21
:100C600002F018BF40F001004FEAC1234FEAD3233E
:100C700003FA0CFC40EA0C0023FA02F34FEA4303A8
:100C8000CCE77FEA625307D150EA01331EBF4FF031
:100C9000FE4040F44000704701F0004040F0FE404C
:100CA00040F40000704700BF7BB972B90029BEBF95
:100CB00000204FF0004106E008BF00281CBF6FF085
:100CC00000414FF0FF3000F0EBB9ADF1080C6DE9D9
:100CD00004CE002909DB002B1ADB00F083F8DDF8D5
:100CE00004E0DDE9022304B07047404261EB4101BA
:100CF000002B1BDB00F076F8DDF804E0DDE90223D1
:100D000004B0404261EB4101524263EB4303704740
:100D1000524263EB430300F065F8DDF804E0DDE9DF
:100D2000022304B0404261EB41017047524263EB41
:100D3000430300F057F8DDF804E0DDE9022304B0D6
:100D4000524263EB4303704753B94AB9002908BFC5
:100D500000281CBF4FF0FF314FF0FF3000F0A0B96A
:100D6000ADF1080C6DE904CE00F03CF8DDF804E0CC
:100D7000DDE9022304B0704738B5002200230446A1
:100D80000D46FFF7BBFE28B920462946BDE838408E
:100D900000F00AB8204605F1004100F005F8404295
:100DA00061EB410138BD00BFD0B50C4B00220646B7
:100DB0000F46FFF731FCFFF707FF0446FFF7B2FBD2
:100DC000074B0022FFF728FC02460B463046394607
:100DD000FFF76AFAFFF7F8FE2146D0BD0000F03DAC
:100DE0000000F0412DE9F047089D0C46002B4ED144
:100DF00094468C458646B2FA82F262D94AB1C2F173
:100E00002003914020FA03F30CFA02FC194300FA84
:100E100002FE4FEA1C471FFA8CF6B1FBF7F44FEACB
:100E20001E4307FB141143EA014304FB06F19942F8
:100E30000AD91CEB030304F1FF3080F012819942C0
:100E400040F20F81023C6344591A1FFA8EF3B1FB42
:100E5000F7F007FB101143EA014300FB06F69E4240
:100E60000AD91CEB030300F1FF3180F0FC809E42A5
:100E700040F2F980634402389B1B40EA04400021A1
:100E80001DB1D3400022C5E90032BDE8F0878B4296
:100E900005D90DB1C5E9000100210846F5E7B3FA0F
:100EA00083F1002946D1A34202D39042C0F0F080E2
:100EB000861A64EB03030120002DE6D0C5E9006328
:100EC000E3E7002A40F09080A1EB0C044FEA1C48B5
:100ED0001FFA8CF70121B4FBF8F64FEA1E4308FB1A
:100EE000164443EA044307FB06F0984208D91CEB7A
:100EF000030306F1FF3402D2984200F2CD80264669
:100F00001C1A1FFA8EF3B4FBF8F008FB104443EAF6
:100F1000044300FB07F79F4208D91CEB030300F1D1
:100F2000FF3402D29F4200F2B0802046DB1B40EA31
:100F30000640A5E7C1F120068B4022FA06F71F43C1
:100F400020FA06FC04FA01F343EA0C03F44000FA29
:100F500001F8380C4FEA1349B4FBF0FE1FFA87FC86
:100F600000FB1E4449EA04440EFB0CF9A14502FAB9
:100F700001F20AD93C190EF1FF3A80F08480A145B4
:100F800040F28180AEF1020E3C44A4EB09041FFA4A
:100F900083F9B4FBF0F300FB134449EA044403FB78
:100FA0000CFCA44507D93C1903F1FF3067D2A445D6
:100FB00065D9023B3C4443EA0E40A0FB0293A4EBFC
:100FC0000C049C42CE469C4651D34ED055B1B8EB52
:100FD0000E0364EB0C0404FA06F6CB401E43CC402F
:100FE000C5E90064002150E7C2F1200320FA03F1B3
:100FF0000CFA02FC24FA03F394400C434FEA1C4819
:1010000000FA02FE1FFA8CF7B3FBF8F008FB103170
:10101000230C43EA014300FB07F1994208D91CEB7A
:10102000030300F1FF362CD299422AD902386344D7
:101030005B1AA4B2B3FBF8F108FB113344EA034492
:1010400001FB07F3A34208D91CEB040401F1FF36AE
:1010500013D2A34211D902396444E41A41EA00418F
:1010600039E70446F0E6084606E7C845AED2B9EBD4
:10107000020E63EB070C0138A8E73146EDE70346A3
:1010800099E73046D4E7D6467FE7634402384DE718
:101090000646234608460FE7023E634430E700BF9A
:1010A000704700BF80B584B004AF10F0F7FA00F0CD
:1010B000A5F900F05FFC00F017FC00F03FFD00F028
:1010C0001BFA00F047FA00F073FA00F035FB00F06D
:1010D00055FB00F089FB00F0DDFB19F0F5F900F09D
:1010E00095FA00F0ABFB00F0F3F902F0D1FC0346F7
:1010F00001221946844817F054FC02F0BFFC034655
:1011000001221946814817F04CFC41F2883000F06A
:10111000F1FD7F4B9B7C012B18D1CE227D497C4871
:1011200002F09AFD7B4B5B78F02B0FD1794B9B78CB
:10113000052B0BD1784808F0EDF9764B1B7A002B84
:1011400014BF01230023DAB2744B1A70734B1B785F
:1011500083F00103DBB2002B03D00021002002F05A
:1011600035FC07F033FC00F06BFF06F063F96C4BC5
:101170001B7842F6D07219466A4825F02AFD64228F
:101180000021694825F025FD64220021674825F0EB
:1011900020FD674B0293674B0193032300930023C9
:1011A0004FF44072644965481AF07DFD0346644A75
:1011B0001360644B0293644B019303230093002359
:1011C0004FF44072614962481AF06DFD0346614A6E
:1011D0001360614B0293614B01930323009300233F
:1011E0004FF440725E495F481AF05DFD03465E4A67
:1011F00013605E4B02935E4B019303230093002325
:101200004FF4A0625B495C481AF04DFD03465B4A0F
:1012100013605B4B02935B4B01930323009300230A
:101220004FF44072584959481AF03DFD0346584A58
:101230001360584B0293584B0193032300930023F0
:101240004FF44072554956481AF02DFD0346554A51
:101250001360554B01930123009300234FF4407218
:10126000524953481AF083FD524B019302230093D5
:1012700000234FF41062504950481AF078FD504B4B
:1012800001930223009300234FF410624D494E480E
:101290001AF06DFD4D4B01930223009300234FF490
:1012A00000724B494B481AF062FD4B4B01930223ED
:1012B000009300234FF44072484949481AF057FD03
:1012C000484B01930223009300234FF400724649D8
:1012D00046481AF04CFD464B01930123009300232E
:1012E0004FF4A062434944481AF041FD04F0CAFBA0
:1012F000274B1B68184607F0B3FB07F0C5FF1AF031
:10130000ABFF00BFFDE700BFCC0800208408002031
:1013100038160020FC150020FF1500206D0200206B
:1013200082020020007D0064081700206C17002056
:10133000A0100010A0040010B0A20208299E00080E
:10134000C4210020401D001040110010B8A2020866
:10135000ED80000858190020E0290010E01D001061
:10136000C4A20208F54F00085C160020803E001061
:10137000802A0010D0A202089DD400086029002015
:10138000204B0010203F0010D8A2020811C700080F
:10139000F4210020C0570010C04B0010E0A202084A
:1013A000D98800089C1B00202C1C0020ECA20208FD
:1013B0001D8D0008201C0020F4A20208018C0008EA
:1013C000241C0020FCA20208818A00088821002039
:1013D00004A302082D9800088C21002008A302080D
:1013E000A5990008842100200CA30208619600083A
:1013F000281C002014A302082551000880B594B0D1
:1014000000AF07F1200330220021184625F0E1FB50
:1014100007F10C0300221A605A609A60DA601A61C0
:101420000023BB60284B1B6C274A43F08053136496
:10143000254B1B6C03F08053BB60BB6800237B60B3
:10144000224B1B68214A43F4804313601F4B1B68E7
:1014500003F480437B607B680A233B620123FB62C9
:1014600010233B6301237B630223BB630023FB63E5
:1014700008233B6454237B640223BB640423FB6482
:1014800007F12003184613F087F90346002B01D01B
:1014900000F044FE0F23FB6002233B6180237B614D
:1014A0000023BB610023FB6107F10C0301211846F7
:1014B00013F0EAFB0346002B01D000F02FFE00BF23
:1014C0005037BD4680BD00BF00380240007000406C
:1014D00080B500AF064B074A1A60054810F028FA9D
:1014E0000346002B01D000F019FE00BF80BD00BFF5
:1014F000040500200030024080B500AF124B134AB3
:101500001A60114B124A5A600F4B00229A600E4B20
:101510000022DA600C4B4FF480421A610A4B002221
:101520005A61094B00229A61074B0022DA61064B8F
:1015300000221A62044811F08BFC0346002B01D0F4
:1015400000F0ECFD00BF80BD0C0500200054004001
:10155000A086010080B500AF124B134A1A60114BF0
:10156000124A5A600F4B00229A600E4B0022DA603A
:101570000C4B4FF480421A610A4B00225A61094B0E
:1015800000229A61074B0022DA61064B00221A62A0
:10159000044811F05DFC0346002B01D000F0BEFDB5
:1015A00000BF80BD6005002000580040A0860100FB
:1015B00080B500AF124B134A1A60114B124A5A60A1
:1015C0000F4B00229A600E4B0022DA600C4B4FF456
:1015D00080421A610A4B00225A61094B00229A612B
:1015E000074B0022DA61064B00221A62044811F010
:1015F0002FFC0346002B01D000F090FD00BF80BD02
:10160000B4050020005C0040A086010080B590B0C9
:1016100000AF07F12C0300221A605A609A60DA606A
:101620001A610023BB623B4628220021184625F0A0
:10163000D0FA3F4B3F4A1A603D4B00225A603C4B68
:101640007F229A603A4BFF22DA60394B00221A61FE
:10165000374B00225A61364B00229A61344813F00E
:1016600007FE0346002B01D000F058FD002387F849
:101670002C30002387F82D30002387F82E300023EC
:10168000BB630023FB6307F12C03012219462848A2
:1016900013F071FE0346002B01D000F03FFD022342
:1016A00087F82830042387F82930282387F82A3040
:1016B000252387F82B3007F12803012219461C48FF
:1016C00013F051FF0346002B01D000F027FD00234B
:1016D0003B7001237B700023BB7000237B600023E1
:1016E000FB6000233B614FF000437B610023BB6143
:1016F0000023FB61012387F820304FF480737B6265
:101700003B46012219460A4814F000F80346002B14
:1017100001D000F003FD00220521292010F0D0F8AF
:10172000292010F0E9F800BF4037BD4680BD00BF5A
:10173000080600200028004080B400AF0D4B0E4A80
:101740001A600C4B00225A600A4B00229A60094B27
:101750000022DA60074B00221A61064B4FF48042E8
:101760005A61044B04229A6100BFBD465DF8047BB8
:10177000704700BF28060020002C014080B500AF54
:10178000174B184A1A60164B4FF482725A60144B6A
:1017900000229A60124B0022DA60114B00221A617B
:1017A0000F4B00225A610E4B4FF400729A610C4BA2
:1017B0001022DA610A4B00221A62094B00225A6297
:1017C000074B00229A62064B0A22DA62044815F09F
:1017D00058FC0346002B01D000F0A0FC00BF80BDE8
:1017E0006C070020003C004080B500AF114B124A4E
:1017F0001A60104B4FF416525A600E4B00229A603A
:101800000C4B0022DA600B4B00221A61094B0C22B0
:101810005A61084B00229A61064B0022DA610548A2
:1018200016F0E4FF0346002B01D000F077FC00BF68
:1018300080BD00BF84080020004C004080B500AF90
:10184000124B134A1A60114B4FF4E1325A600F4B9E
:101850004FF480529A600D4B0022DA600B4B4FF42C
:1018600080621A61094B0C225A61084B00229A616E
:10187000064B0022DA61054816F0B8FF0346002B3C
:1018800001D000F04BFC00BF80BD00BFCC080020A1
:101890000048004080B500AF114B124A1A60104B4F
:1018A0004FF4E1325A600E4B00229A600C4B00223A
:1018B000DA600B4B00221A61094B0C225A61084B6B
:1018C00000229A61064B0022DA61054816F08EFF6D
:1018D0000346002B01D000F021FC00BF80BD00BFFB
:1018E000140900200014014080B582B000AF00232D
:1018F0007B601F4B1B6B1E4A43F4800313631C4B1E
:101900001B6B03F480037B607B6800233B60184BF8
:101910001B6B174A43F400131363154B1B6B03F443
:1019200000133B603B68002205210B200FF0C8FF2D
:101930000B200FF0E1FF0022052110200FF0C0FF67
:1019400010200FF0D9FF002205213B200FF0B8FF37
:101950003B200FF0D1FF0022052145200FF0B0FF02
:1019600045200FF0C9FF00BF0837BD4680BD00BF4E
:101970000038024080B58EB000AF07F1240300228A
:101980001A605A609A60DA601A6100233B62664B03
:101990001B6B654A43F004031363634B1B6B03F03B
:1019A00004033B623B6A0023FB615F4B1B6B5E4A97
:1019B00043F0200313635C4B1B6B03F02003FB61BC
:1019C000FB690023BB61584B1B6B574A43F08003F4
:1019D0001363554B1B6B03F08003BB61BB69002392
:1019E0007B61514B1B6B504A43F0010313634E4B19
:1019F0001B6B03F001037B617B6900233B614A4B56
:101A00001B6B494A43F002031363474B1B6B03F004
:101A100002033B613B690023FB60434B1B6B424A63
:101A200043F040031363404B1B6B03F04003FB6028
:101A3000FB680023BB603C4B1B6B3B4A43F010032D
:101A40001363394B1B6B03F01003BB60BB680023AF
:101A50007B60354B1B6B344A43F008031363324BF6
:101A60001B6B03F008037B607B68002242F230218D
:101A70002E4811F095F900224FF440412C4811F006
:101A80008FF942F230237B620123BB620023FB62A9
:101A900000233B6307F124031946244810F0D0FECD
:101AA00004237B624FF48813BB620023FB6207F1BF
:101AB000240319461F4810F0C3FE4FF400737B62E5
:101AC0004FF48813BB620023FB6207F1240319461D
:101AD000174810F0B5FE4FF480737B620023BB62A1
:101AE0000023FB6207F124031946134810F0A8FEF7
:101AF0004FF440437B620123BB620023FB6200235F
:101B00003B6307F124031946094810F099FE0022AF
:101B1000002108200FF0D4FE08200FF0EDFE00BFDA
:101B20003837BD4680BD00BF003802400008024083
:101B3000001C0240000402400018024080B588B03A
:101B400000AF3B1D00221A605A609A60DA601A6189
:101B50005A619A614C4B4FF020421A604A4B4B4AF3
:101B60005A60494B00229A60474B0022DA60464B8C
:101B700000221A61444B10225A61434B00229A61A1
:101B8000414B0022DA61404B00221A623E4B002298
:101B90005A623D4B4FF480529A623B4B0022DA620C
:101BA000394B00221A63384B00225A63364B00220D
:101BB0009A63354B00225A640F237B600F23BB606E
:101BC000FF23FB600F233B6110237B611123BB616B
:101BD0000023FB613B1D002219462B4816F01CFB1D
:101BE0000346002B01D000F099FA294B4FF0204218
:101BF0001A60274B254A5A60254B02229A60244BD3
:101C00000022DA60224B00221A61214B10225A6115
:101C10001F4B00229A611E4B0022DA611C4B0022EE
:101C20001A621B4B00225A62194B4FF480529A627F
:101C3000174B0022DA62164B00221A63144B002263
:101C40005A63134B00229A63114B00225A640F23EC
:101C50007B600F23BB60FF23FB600F233B611023DE
:101C60007B611123BB610023FB613B1D00221946F0
:101C7000074816F0D1FA0346002B01D000F04EFAC7
:101C800000BF2037BD4680BD5C090020040100A0D4
:101C9000AC09002080B485B000AF78607B681B6819
:101CA000064A934203D17B685B6DFB6000BF00BFB7
:101CB0001437BD465DF8047B704700BF003C004010
:101CC00080B582B000AF1BF027F90346012B09D085
:101CD000EFF305837B607B68002B03D11AF020FCB7
:101CE000034601E0024B1B6818460837BD4680BD1D
:101CF000702900202DE9B04F86B000AF78601BF04E
:101D00000BF90346012B42D0EFF30583FB60FB6820
:101D1000002B3CD17B6800229846914642464B46B8
:101D20004FF000004FF00001590141EAD26150012B
:101D300002460B46B2EB080463EB09054FF00002C4
:101D40004FF00003AB0043EA9473A20014461D4613
:101D500014EB080A45EB090B4FF000024FF00003AB
:101D60004FEACB0343EA5A734FEACA0292469B46B4
:101D7000504659464FF47A724FF00003FEF7E4FFE5
:101D800002460B46134618461AF0C8F918E0FFF74A
:101D900097FF38617B687B617B69B3F1FF3F05D0BA
:101DA0000A4B1B781A467B6913447B6100BFFFF71F
:101DB00087FF02463B69D31A7A699A42F7D800BF77
:101DC00000BF1837BD46BDE8B08F00BFA00200209D
:101DD00080B582B000AF00237B600B4B1B683A1DBF
:101DE0001146184619F0A8FA7B68002B07D0074B5C
:101DF0004FF080521A60BFF34F8FBFF36F8F00BF59
:101E00000837BD4680BD00BF5421002004ED00E02E
:101E100080B582B000AF00237B600B4B1B683A1D7E
:101E20001146184619F088FA7B68002B07D0074B3B
:101E30004FF080521A60BFF34F8FBFF36F8F00BF18
:101E40000837BD4680BD00BF5021002004ED00E0F2
:101E500080B584B000AF78600023FB607B681B68AE
:101E60000C4A934212D10C4B1B6807F10C0211462D
:101E7000184619F061FAFB68002B07D0074B4FF0AA
:101E800080521A60BFF34F8FBFF36F8F00BF1037C0
:101E9000BD4680BD003C00405821002004ED00E01C
:101EA00080B584B000AF78600023BB607B681B689E
:101EB000524A93422BD101F0EBFD03461B78FB7392
:101EC0004F4B1B68002B14D04D4B186807F10802CC
:101ED00007F10F01002319F079F9BB68002B0DD031
:101EE000484B4FF080521A60BFF34F8FBFF36F8F94
:101EF00004E0FB7B1946444801F0D4FD01F0C8FD25
:101F0000034601221946414816F04BFD56E07B6816
:101F10001B683F4A93422BD101F0B0FD03461B786A
:101F2000FB733C4B1B68002B14D03A4B186807F12D
:101F3000080207F10F01002319F048F9BB68002BD4
:101F40000DD0304B4FF080521A60BFF34F8FBFF36C
:101F50006F8F04E0FB7B19462B4801F0A3FD01F0D5
:101F60008DFD0346012219462B4816F01AFD25E087
:101F70007B681B68294A934220D105F07BFA03460F
:101F80001B78FB73264B186807F1080207F10F0155
:101F9000002319F01BF9BB68002B07D0194B4FF039
:101FA00080521A60BFF34F8FBFF36F8F05F062FA54
:101FB0000346012219461B4816F0F3FC1AF0ACFF49
:101FC0000346012B16D0184B1B68002B12D0164B62
:101FD0001B6807F10802002118461BF023FCBB68B0
:101FE000002B07D0074B4FF080521A60BFF34F8F82
:101FF000BFF36F8F00BF1037BD4680BD0048004063
:10200000A01B002004ED00E038160020CC080020C2
:10201000004C0040A41B0020840800200014014054
:10202000A81B0020140900206029002080B483B080
:1020300000AF786000BF0C37BD465DF8047B704789
:1020400080B400AF114B1B68104A23F44053136057
:102050000E4B1B680D4A43F4805313600B4B5B68B7
:102060000A4A23F040035360084B9B68074A23F455
:1020700040539360054BDB68044A23F44053D3601C
:1020800000BFBD465DF8047B704700BF00080240FA
:1020900080B485B000AFF860B9607A60FB68074A29
:1020A0001A60BB68064A1A607B684FF480721A6037
:1020B00000BF1437BD465DF8047B7047FC09002063
:1020C0009C0A002080B485B000AFF860B9607A60E7
:1020D000FB68074A1A60BB68064A1A607B684FF4BF
:1020E000C0721A6000BF1437BD465DF8047B7047AC
:1020F0009C0E00203C0F002080B582B000AF7860BD
:102100007B681B68044A934201D10FF0E9FA00BFD3
:102110000837BD4680BD00BF0014004080B400AF4A
:1021200072B600BF00BFFDE780B483B000AF0023EC
:102130007B60104B5B6C0F4A43F4804353640D4B40
:102140005B6C03F480437B607B6800233B60094B3E
:102150001B6C084A43F080531364064B1B6C03F05E
:1021600080533B603B6800BF0C37BD465DF8047B85
:10217000704700BF0038024080B485B000AF78607F
:102180007B681B680B4A93420DD10023FB600A4B0E
:102190001B6B094A43F480531363074B1B6B03F417
:1021A0008053FB60FB6800BF1437BD465DF8047BBD
:1021B000704700BF003002400038024080B58EB04A
:1021C00000AF786007F1240300221A605A609A6019
:1021D000DA601A617B681B684B4A93422CD100235A
:1021E0003B624A4B1B6B494A43F002031363474B64
:1021F0001B6B03F002033B623B6AC0237B6212232A
:10220000BB620023FB6203233B6304237B6307F170
:10221000240319463E4810F013FB0023FB613B4B9F
:102220001B6C3A4A43F400131364384B1B6C03F4E1
:102230000013FB61FB6963E07B681B68354A9342CE
:102240002CD10023BB61314B1B6B304A43F0800320
:1022500013632E4B1B6B03F08003BB61BB69302300
:102260007B621223BB620023FB6203233B630423D4
:102270007B6307F124031946274810F0E1FA002395
:102280007B61224B1B6C214A43F4800313641F4B78
:102290001B6C03F480037B617B6931E07B681B6806
:1022A0001E4A93422CD100233B61184B1B6B174AEB
:1022B00043F080031363154B1B6B03F080033B61FA
:1022C0003B694FF4C0737B621223BB620023FB6245
:1022D00003233B6304237B6307F1240319460E4861
:1022E00010F0AEFA0023FB60084B1B6C074A43F466
:1022F00000031364054B1B6C03F40003FB60FB68D5
:1023000000BF3837BD4680BD005400400038024051
:102310000004024000580040001C0240005C0040E5
:1023200080B586B000AF786007F1080300221A601C
:102330005A609A60DA607B681B68104A934219D130
:102340000223BB604FF400737B6107F1080318465A
:1023500012F0ACFE0346002B01D0FFF7DFFE084B66
:1023600001221A600022052129200FF0A9FA292054
:102370000FF0C2FA00BF1837BD4680BD00280040EC
:102380003C0E474280B58AB000AF786007F1140375
:1023900000221A605A609A60DA601A617B681B68D2
:1023A000764A934240F0E68000233B61744B5B6CBD
:1023B000734A43F400635364714B5B6C03F4006332
:1023C0003B613B690023FB606D4B1B6B6C4A43F028
:1023D000040313636A4B1B6B03F00403FB60FB688D
:1023E0000023BB60664B1B6B654A43F00803136315
:1023F000634B1B6B03F00803BB60BB684FF4807337
:102400007B610223BB610123FB6103233B620C233D
:102410007B6207F1140319465A4810F011FA4FF481
:1024200080537B610223BB610023FB6103233B627A
:102430000C237B6207F114031946524810F000FA8E
:1024400004237B610223BB610123FB6103233B6205
:102450000C237B6207F1140319464B4810F0F0F986
:102460004A4B4B4A1A60494B4FF000625A60474B47
:1024700000229A60454B0022DA60444B4FF48062A0
:102480001A61424B4FF480525A61404B4FF48042E4
:102490009A613E4B2022DA613C4B00221A623B4B90
:1024A00004225A62394B03229A62384B0022DA62C4
:1024B000364B00221A6335480FF08AFA0346002B88
:1024C00001D0FFF72BFE7B68304A1A642F4A7B68E5
:1024D0009363304B304A1A602E4B4FF000625A60C3
:1024E0002C4B40229A602B4B0022DA60294B4FF490
:1024F00080621A61274B4FF480525A61254B4FF48A
:1025000080429A61234B2022DA61224B00221A6218
:10251000204B04225A621F4B03229A621D4B002259
:10252000DA621C4B00221A631A480FF051FA034674
:10253000002B01D0FFF7F2FD7B68164ADA63154ADB
:102540007B6893630022052131200FF0B9F9312017
:102550000FF0D2F9002205213B200FF0B1F93B200A
:102560000FF0CAF90022052145200FF0A9F94520F6
:102570000FF0C2F900BF2837BD4680BD002C0140D6
:102580000038024000080240000C0240AC06002067
:10259000586402400C070020A064024080B582B05D
:1025A00000AF78607B681B68114A93421BD1114BC6
:1025B0005B6C104A23F4006353644FF488510E4857
:1025C00010F0DAFA04210D4810F0D6FA7B681B6C83
:1025D00018460FF0ABFA7B68DB6B18460FF0A6FAD3
:1025E00031200FF097F900BF0837BD4680BD00BF0E
:1025F000002C01400038024000080240000C02405C
:1026000080B58AB000AF786007F1140300221A6029
:102610005A609A60DA601A617B681B685A4A934272
:1026200040F0AD8000233B61584B1B6C574A43F48C
:1026300000431364554B1B6C03F400433B613B693F
:102640000023FB60514B1B6B504A43F004031363A0
:102650004E4B1B6B03F00403FB60FB680023BB6065
:102660004A4B1B6B494A43F002031363474B1B6BF6
:1026700003F00203BB60BB684FF440637B6102233D
:10268000BB610023FB6103233B6206237B6207F1EE
:10269000140319463E4810F0D3F820237B6102232F
:1026A000BB610023FB6103233B6206237B6207F1CE
:1026B00014031946374810F0C3F8374B374A1A60ED
:1026C000354B00225A60344B00229A60324B002274
:1026D000DA60314B4FF480621A612F4B00225A614D
:1026E0002D4B00229A612C4B0022DA612A4B0022EA
:1026F0001A62294B00225A6227480FF069F90346F3
:10270000002B01D0FFF70AFD7B68234ADA64224AD6
:102710007B689363224B234A1A60214B00225A6044
:102720001F4B40229A601E4B0022DA601C4B4FF474
:1027300080621A611A4B00225A61194B00229A6179
:10274000174B0022DA61164B00221A62144B00224A
:102750005A6213480FF03CF90346002B01D0FFF7F3
:10276000DDFC7B680E4A9A640D4A7B689363002205
:10277000052133200FF0A4F833200FF0BDF800BF7F
:102780002837BD4680BD00BF003C004000380240F5
:102790000008024000040240C4070020106002400C
:1027A000240800208860024080B58EB000AF7860B9
:1027B00007F1240300221A605A609A60DA601A61F5
:1027C0007B681B68574A934234D100233B62564BC7
:1027D0001B6C554A43F400231364534B1B6C03F4E6
:1027E00000233B623B6A0023FB614F4B1B6B4E4A4D
:1027F00043F0010313634C4B1B6B03F00103FB61BC
:10280000FB6903237B620223BB620023FB62032379
:102810003B6308237B6307F124031946434810F008
:102820000FF80022052134200FF04AF834200FF071
:1028300063F873E07B681B683D4A934235D10023FF
:10284000BB61394B1B6C384A43F480231364364B0D
:102850001B6C03F48023BB61BB6900237B61324B9B
:102860001B6B314A43F0020313632F4B1B6B03F0C6
:1028700002037B617B694FF440637B620223BB628E
:102880000023FB6203233B6307237B6307F12403DD
:10289000194628480FF0D4FF0022052127200FF009
:1028A0000FF827200FF028F838E07B681B68224AD1
:1028B000934233D100233B611B4B5B6C1A4A43F0BC
:1028C00020035364184B5B6C03F020033B613B69AE
:1028D0000023FB60144B1B6B134A43F00403136388
:1028E000114B1B6B03F00403FB60FB68C0237B628E
:1028F0000223BB620023FB6203233B6308237B6349
:1029000007F1240319460D480FF09AFF0022052114
:1029100047200EF0D5FF47200EF0EEFF00BF3837FE
:10292000BD4680BD004C004000380240000002401F
:10293000004800400004024000140140000802402A
:1029400080B586B000AF3B1D00221A605A609A60C5
:10295000DA601A612C4B1B68002B51D12A4B0122E3
:102960001A6000233B60294B9B6B284A43F001030C
:102970009363264B9B6B03F001033B603B684FF274
:102980003F037B600223BB600023FB6003233B61AA
:102990000C237B613B1D19461D480FF051FF40F28F
:1029A0003F237B600223BB600023FB6003233B616A
:1029B0000C237B613B1D194616480FF041FF4FF673
:1029C00083737B600223BB600023FB6003233B61B6
:1029D0000C237B613B1D19460F480FF031FF4DF66C
:1029E000B3737B600223BB600023FB6003233B6166
:1029F0000C237B613B1D194608480FF021FF00E0C6
:102A000000BF1837BD4680BD3C150020003802408D
:102A1000001402400018024000100240000C024066
:102A200080B582B000AF7860FFF78AFF00BF08373B
:102A3000BD4680BD80B58EB000AF78600023FB62DC
:102A40000023BB620023FB60334B1B6C324A43F014
:102A500020031364304B1B6C03F02003FB60FB6806
:102A600007F1100207F114031146184612F0ECFAB0
:102A70003B6AFB62FB6A002B03D112F0BDFA78635C
:102A800004E012F0B9FA03465B007B637B6B234AD8
:102A9000A2FB03239B0C013BBB62214B214A1A6022
:102AA0001F4B40F2E732DA601D4ABB6A53601C4B91
:102AB00000221A611A4B00229A60194B00229A6177
:102AC000174815F0F1FB034687F8333097F8333099
:102AD000002B1BD1124815F041FC034687F8333018
:102AE00097F83330002B11D137200EF005FF7B68AB
:102AF0000F2B08D80022796837200EF0E1FE0A4A31
:102B00007B68136002E0012387F8333097F8333095
:102B100018463837BD4680BD0038024083DE1B436F
:102B200040150020001400409C02002080B400AF3B
:102B300000BFFDE780B400AF00BFFDE780B400AF89
:102B400000BFFDE780B400AF00BFFDE780B400AF79
:102B500000BFFDE780B400AF00BFBD465DF8047B59
:102B6000704780B500AF042010F04EF900BF80BD63
:102B700080B500AF02480FF021F900BF80BD00BF53
:102B8000C407002080B500AF02480FF017F900BF5E
:102B900080BD00BF2408002080B500AF024815F0BA
:102BA00025FF00BF80BD00BFCC08002080B500AF6E
:102BB000024812F0EFFE00BF80BD00BF08060020F3
:102BC00080B500AF024813F037FC00BF80BD00BFE6
:102BD0002806002080B500AF024814F0DDFF00BFDA
:102BE00080BD00BF6C07002080B500AF024815F023
:102BF000FDFE00BF80BD00BF8408002080B500AF8F
:102C0000024815F01BFC00BF80BD00BF401500202E
:102C100080B500AF02480FF0D1F800BF80BD00BF03
:102C2000AC06002080B500AF02480FF0C7F800BF27
:102C300080BD00BF0C07002080B500AF024815F032
:102C4000D5FE00BF80BD00BF1409002080B400AFD6
:102C500001231846BD465DF8047B704780B582B0FD
:102C600000AF7860396024F04DFE034616221A60EA
:102C70004FF0FF3318460837BD4680BD80B582B09F
:102C800000AF78604FF0FF317868FFF7E7FF00BFD3
:102C9000FDE780B586B000AFF860B9607A600023C8
:102CA0007B610AE0AFF300800146BB685A1CBA6042
:102CB000CAB21A707B6901337B617A697B689A4278
:102CC000F0DB7B6818461837BD4680BD80B586B0FE
:102CD00000AFF860B9607A6000237B6109E0BB68EF
:102CE0005A1CBA601B781846AFF300807B69013329
:102CF0007B617A697B689A42F1DB7B6818461837FA
:102D0000BD4680BD80B483B000AF78604FF0FF3324
:102D100018460C37BD465DF8047B704780B483B01D
:102D200000AF786039603B684FF400525A6000236E
:102D300018460C37BD465DF8047B704780B483B0FD
:102D400000AF7860012318460C37BD465DF8047B60
:102D5000704780B485B000AFF860B9607A60002336
:102D600018461437BD465DF8047B704780B586B0C1
:102D700000AF7860144A154BD31A7B617B693B61C5
:102D8000134B1B68002B02D1114B124A1A60104BD7
:102D90001A687B6813443A699A4207D224F0B2FD5C
:102DA00003460C221A604FF0FF3309E0084B1B6802
:102DB000FB60074B1A687B681344054A1360FB6885
:102DC00018461837BD4680BD0000022000040000F0
:102DD0008C1500200000006080B400AF064BD3F8D3
:102DE0008830054A43F47003C2F8883000BFBD46FE
:102DF0005DF8047B704700BF00ED00E0DFF834D0E1
:102E0000FFF7EAFF0C480D490D4A002302E0D458B1
:102E1000C4500433C4188C42F9D30A4A0A4C002324
:102E200001E013600432A242FBD324F071FDFEF7EF
:102E300039F970470000022000000020E80400205B
:102E400010C10208E8040020D8650120FEE780B523
:102E500088B004AF78602323BB73642302930123FB
:102E6000019307F10E03009301232122D2217868F8
:102E700010F062FC0346FB73FB7B002B01D0FB7B55
:102E80006EE000237B73642302930123019307F117
:102E90000D03009301232222D221786810F04CFC0C
:102EA0000346FB73FB7B002B01D0FB7B58E0002328
:102EB0003B73642302930123019307F10C030093F6
:102EC00001232322D221786810F036FC0346FB73DD
:102ED000FB7B002B01D0FB7B42E00023FB726423D1
:102EE00002930123019307F10B0300930123252291
:102EF000D221786810F020FC0346FB73FB7B002B8B
:102F000001D0FB7B2CE01323BB72642302930123CB
:102F1000019307F10A03009301232422D221786848
:102F200010F00AFC0346FB73FB7B002B01D0FB7BFC
:102F300016E00F237B72642302930123019307F1B0
:102F40000903009301232022D221786810F0F4FBBA
:102F50000346FB73FB7B002B01D0FB7B00E00023CF
:102F600018461037BD4680BD80B588B004AF786084
:102F70003960354B1B684FF0FF31184618F066FB7F
:102F8000642302930623019307F1080300930123AE
:102F9000A822D221786810F0C9FC0346002B01D08A
:102FA00001234CE0284B186800230022002118F070
:102FB0000BF87B7A1B021AB23B7A1BB213431AB28C
:102FC0003B685A84FB7A1B021AB2BB7A1BB21343CA
:102FD0001AB23B689A847B7B1B021AB23B7B1BB202
:102FE00013431AB23B68DA843B68B3F9223007EE28
:102FF000903AF8EEE77A9FED157A67EE877A3B68AC
:10300000C3ED037A3B68B3F9243007EE903AF8EE4B
:10301000E77A9FED0E7A67EE877A3B68C3ED047A14
:103020003B68B3F9263007EE903AF8EEE77A9FED69
:10303000077A67EE877A3B68C3ED057A0023184666
:103040001037BD4680BD00BF60210020295C0F3CC9
:1030500080B588B004AF78604FF40873FB816423B7
:1030600002930223019307F10E030093012301222F
:103070009021786810F060FB00BF1037BD4680BD1E
:1030800080B588B004AF78603960214B1B684FF081
:10309000FF31184618F0DAFA6423029302230193F1
:1030A00007F10C030093012300229021786810F0AF
:1030B0003DFC174B186800230022002117F084FF05
:1030C0003B7B1B021AB27B7B1BB213431BB29AB22F
:1030D0003B681A853B681B8D1846FDF733FA0AA337
:1030E000D3E90023FDF798FA02460B46104619462D
:1030F000FDF78AFD02463B689A6100BF1037BD4666
:1031000080BD00BFAFF30080DE718A8EE4F27F3FA6
:103110006021002080B582B000AF78607868FFF74A
:1031200096FE7868FFF794FF00BF0837BD4680BD64
:1031300080B582B000AF7860396039687868FFF791
:1031400013FF39687868FFF79BFF322018F0E6FF1D
:103150003968786800F020F900BF0837BD4680BDA7
:1031600080B586B002AF786048F20703BB8107F1F3
:103170000C02642300930223602178680FF0ACFFF7
:103180003220FEF7B7FD20237B7307F10C02642386
:1031900000930223602178680FF09EFF0120FEF764
:1031A000A9FD00BF1037BD4680BD80B586B002AF17
:1031B000786048F20703BB8107F10C026423009397
:1031C0000223602178680FF087FF3220FEF792FD1E
:1031D00040237B7307F10C026423009302236021D8
:1031E00078680FF079FF0120FEF784FD00BF1037EB
:1031F000BD4680BD80B58CB002AFF860B9607A6022
:103200003B60002387F827300723FB77FB7F3B7564
:1032100001237B755E4B1B684FF0FF31184618F099
:1032200015FA07F114026423009302236021F86861
:103230000FF052FF564B186800230022002117F0B0
:10324000C3FE0A2018F06AFF0623FB77504B1B6869
:103250004FF0FF31184618F0F9F907F11F02642307
:10326000009301236021F8680FF036FF07F11E027A
:103270006423009301236021F86810F02BF8444B7D
:10328000186800230022002117F09EFE97F82730CF
:10329000013387F82730BB7F03F00103002B03D1F4
:1032A00097F82730042BCFD9BB7F03F00103002B05
:1032B0000CD13B684FF000021A603B681A687B68CB
:1032C0001A607B681A68BB681A605DE00023FB77B0
:1032D0002F4B1B684FF0FF31184618F0B7F907F174
:1032E0001F026423009301236021F8680FF0F4FEAD
:1032F00007F118026423009306236021F8680FF099
:10330000E9FF234B186800230022002117F05CFE20
:103310007B7E1B021AB23B7E1BB213431BB2BB84E3
:10332000FB7E1B021AB2BB7E1BB213431BB27B8413
:103330007B7F1B021AB23B7F1BB213431BB23B8441
:10334000BB8C07EE903AB8EE677ADFED126AC7EEF3
:10335000267ABB68C3ED007A7B8C07EE903AB8EE14
:10336000677ADFED0C6AC7EE267A7B68C3ED007AD8
:103370003B8C07EE903AB8EE677ADFED066AC7EE4F
:10338000267A3B68C3ED007A2837BD4680BD00BF72
:10339000602100200000004580B588B000AF786053
:1033A00039607868FFF7DCFE07F1140307F11802B3
:1033B00007F11C017868FFF71DFF7868FFF7F5FE3D
:1033C00007F1080307F10C0207F110017868FFF715
:1033D00011FF97ED077AD7ED047A37EE677AF0EEB2
:1033E000006AC7EE267A9FED2A7A67EE877A3B68F5
:1033F000C3ED007A97ED067AD7ED037A37EE677A58
:10340000F0EE006AC7EE267A9FED217A67EE877AA2
:103410003B68C3ED017A97ED057AD7ED027A37EE76
:10342000677AF0EE006AC7EE267A9FED197A67EEAA
:10343000877A3B68C3ED027A386800F0DFF83968B4
:10344000786800F027F83B68D3ED007AFDEEE77A64
:1034500017EE903A1BB29AB23B689A833B68D3ED61
:10346000017AFDEEE77A17EE903A1BB29AB23B680A
:10347000DA833B68D3ED027AFDEEE77A17EE903AF5
:103480001BB29AB23B681A8400BF2037BD4680BD8C
:103490000050C34780B485B000AF786039603B68A6
:1034A000D3ED007AF5EEC07AF1EE10FA12D50023D2
:1034B000FB733B68D3ED007AFDEEE77A17EE903AA6
:1034C0001BB25B4207EE903AF8EEE77A3B68C3ED39
:1034D000007A01E00123FB733B68D3ED017AF5EE3E
:1034E000C07AF1EE10FA12D50023BB733B68D3ED1E
:1034F000017AFDEEE77A17EE903A1BB25B4207EED7
:10350000903AF8EEE77A3B68C3ED017A01E00123D7
:10351000BB733B68D3ED027AF5EEC07AF1EE10FA98
:1035200012D500237B733B68D3ED027AFDEEE77A78
:1035300017EE903A1BB25B4207EE903AF8EEE77A4C
:103540003B68C3ED027A01E001237B73FB7B9B00A8
:103550005AB2BB7B5B005BB213435AB297F90D3092
:1035600013435BB2DAB23B6883F82A2000BF1437FA
:10357000BD465DF8047B704780B582B000AF7860CF
:103580001C4B1B68002B31D01A4B1B684FF0FF31CE
:10359000184618F05BF87B681B68174A13607B6855
:1035A0005B68154A53607B689B68134A93607B682D
:1035B000DB68114AD3607B681B690F4A13617B6823
:1035C0005B690D4A53617B689B690B4A93617B6819
:1035D000DB69094AD3617B681B6A074A1362054BA2
:1035E000186800230022002117F0EEFC00BF083706
:1035F000BD4680BD6C2100203C02002080B52DED31
:10360000028B8AB000AF78607B681B68BB617B6807
:103610005B687B617B689B683B615A4B1B68002B36
:1036200000F09A80574B1B684FF0FF31184618F096
:103630000DF8554BD3ED007A97ED067A77EE676A71
:10364000514B93ED037AC6EE877AC7ED097A4E4B5C
:10365000D3ED017A97ED057A37EE677A4A4BD3EDD1
:10366000047A87EE278A484BD3ED067AB0EE670AD4
:103670001FF08AFBB0EE407AD7ED097A67EE277A21
:1036800038EE678A404BD3ED067AB0EE670A1FF03A
:103690002FFBB0EE407AC8EE077AC7ED087A3A4BB6
:1036A000D3ED087AB0EE670A1FF022FBB0EE408A35
:1036B000354BD3ED077AB0EE670A1FF019FBF0EE39
:1036C000407A28EE277AF7EE006AC6EE877AC7EDD1
:1036D000037A2D4BD3ED027A97ED047A37EE677AB1
:1036E000294BD3ED057A87EE278A274BD3ED077A4E
:1036F000B0EE670A1FF048FBB0EE407AD7ED097ACA
:1037000067EE277A38EE678A1F4BD3ED087AB0EE62
:10371000670A1FF039FBB0EE407AD7ED087A67EE02
:10372000278A194BD3ED077AB0EE670A1FF0E0FA4B
:10373000F0EE407A68EEA77A78EE677A97ED037A32
:1037400067EE277AC7ED077A0E4B18680023002230
:10375000002117F039FC05E0BB697B627B693B62A5
:103760003B69FB617B687A6A1A607B683A6A5A60D7
:103770007B68FA699A6000BF2837BD46BDEC028BB2
:1037800080BD00BF6C2100203C02002080B485B0C9
:1037900000AF786041F60F53FB817B6802331B78E2
:1037A00002333B7301237B7316E0FB891B0A9BB238
:1037B0007A7B79680A44127853407B817B890C4A72
:1037C00032F813301AB2FB891B021BB253401BB2F2
:1037D000FB817B7B01337B737A7B3B7B9A42E4D911
:1037E000FB8918461437BD465DF8047B704700BF5F
:1037F000E0A3020880B485B000AF786039607B68D0
:10380000FB603B68BB600D4B00221A700AE0FB684E
:103810001A780A4B1B785340DAB2084B1A70FB68CF
:103820000133FB60FA68BB689A42F0D3034B1B7804
:1038300018461437BD465DF8047B7047E815002034
:1038400080B485B000AF78600023FB7302E0FB7B9F
:103850000133FB73FB7B7A6813441B78002BF6D192
:10386000FB7B18461437BD465DF8047B704780B576
:1038700086B000AFB9607B600346FB731346BB7331
:103880000023BB827B68CD221A707B680133FA7BF0
:103890001A70BB7B272B01D92723BB737B680233AC
:1038A000BA7B1A700023FB750CE0FB7DBA681A44E2
:1038B000FB7D033319467B680B4412781A70FB7D3D
:1038C0000133FB75FA7DBB7B9A42EED37868FFF734
:1038D0005DFF0346BB82BB8A1B0A9AB2BB7B0333E4
:1038E00019467B680B44D2B21A70BB7B04331A466C
:1038F0007B681344BA8AD2B21A70BB7B05331A466E
:103900007B6813440A221A70BB7B06331A467B6815
:10391000134400221A7000BF1837BD4680BD80B422
:1039200083B000AF03463960FB713B68CD221A704B
:103930003B680133FA791A703B68023300221A702F
:103940003B680333FA791A703B680433FA791A70CA
:103950003B6805330A221A703B68063300221A704E
:1039600000BF0C37BD465DF8047B704780B582B060
:1039700000AF786009F04CFE7B6802331B78063399
:103980009AB24FF0FF337968034814F07FFF00BF0D
:103990000837BD4680BD00BFCC08002080B582B08E
:1039A00000AF786009F020FE7B6802331B78063395
:1039B0009AB24FF0FF337968034814F067FF00BFF5
:1039C0000837BD4680BD00BF8408002080B58EB09A
:1039D00000AF03463960FB713868FFF731FF0346DB
:1039E0001A4607F10803F8793968FFF740FFBB7AF8
:1039F00006339AB207F108014FF0FF33034814F081
:103A000045FF00BF3837BD4680BD00BF8408002099
:103A100080B582B000AF78600B46FB70FB78AB2BB3
:103A200003D17868FFF7BAFF0AE0FB78CE2B07D105
:103A30007B6802331B78272B02D87868FFF796FF44
:103A400000BF0837BD4680BD80B58EB000AF0346CD
:103A50000A46FB711346BB7107F10802FB79114658
:103A60001846FFF75CFFBA7907F1080311461846BC
:103A7000FFF7CEFF00BF3837BD4680BD80B400AF32
:103A8000024B1846BD465DF8047B70473416002093
:103A900080B400AF024B1846BD465DF8047B70470A
:103AA0003316002080B483B000AF78600B46FB7003
:103AB0007B681B7C062B7DD801A252F823F000BF47
:103AC000DD3A00080B3B0008193B0008493B0008A1
:103AD000773B0008853B0008933B0008FB78AB2B45
:103AE00002D0FB78CE2B09D17B6800229A747B68C8
:103AF000FA781A707B6801221A7463E07B680222EC
:103B00009A747B6800221A745CE07B68FA785A70B9
:103B10007B6802221A7455E07B68FA789A707B6899
:103B200000225A74FB78002B03D17B6804221A749C
:103B300048E0FB78262B03D87B6803221A7441E007
:103B40007B6802229A743DE07B685B7C1A467B6846
:103B50001344FA78DA707B685B7C0133DAB27B68F5
:103B60005A747B685A7C7B689B789A4229D37B681D
:103B700004221A7425E07B68FA785A737B68052260
:103B80001A741FE07B68FA789A737B6806221A74AD
:103B900018E0FB780A2B06D17B6801229A747B68B7
:103BA000FA78DA730EE07B6802229A747B6800224E
:103BB0001A7407E07B6802229A747B6800221A74E8
:103BC00000E000BF00BF0C37BD465DF8047B7047C6
:103BD00080B483B000AF78600B46FB707B685B7885
:103BE000FA789A420FD17B689B78002B0BD17B68C7
:103BF0005B7BFA789A4206D17B689B7BFA789A4283
:103C000001D1012300E0002318460C37BD465DF8C2
:103C1000047B704780B584B000AF78600023FB81DF
:103C20000023BB817868FFF7B1FD0346BB817B6849
:103C30005B7B1B021AB27B689B7B1BB213431BB2DC
:103C4000FB81FA89BB899A4201D1012300E000235C
:103C500018461037BD4680BD80B586B000AFF8600D
:103C6000B9601346FB71FF21F868FFF7B1FF034607
:103C7000012B0DD1FB681A78BB681A70BB68FF2254
:103C80005A70BB6800229A70BB680022DA704CE060
:103C9000AA21F868FFF79CFF0346012B0DD1FB68B2
:103CA0001A78BB681A70BB68AA225A70BB680022D7
:103CB0009A70BB680022DA7037E0F868FFF7AAFF55
:103CC0000346002B28D0FB681B78FA799A4223D14F
:103CD000FB681A78BB681A70FB685A78BB685A7020
:103CE000FB689A78BB689A7000237B610DE0FA68E4
:103CF0007B69134403331978BA687B69134403332F
:103D00000A461A707B6901337B61FB689B781A460F
:103D10007B699342EBDB08E0BB68FA791A70BB68F9
:103D200000225A70BB6800229A70FB6800229A74C5
:103D3000FB6800221A74FB6800221A7000BF183753
:103D4000BD4680BD80B584B000AF78603960FF218A
:103D50007868FFF73DFF0346012B0DD17B681A7889
:103D60003B681A703B68FF225A703B6800229A70C9
:103D70003B680022DA7048E0AA217868FFF728FF44
:103D80000346012B0DD17B681A783B681A703B689B
:103D9000AA225A703B6800229A703B680022DA70AF
:103DA00033E07868FFF736FF0346002B23D07B68AB
:103DB0001A783B681A707B685A783B685A707B683F
:103DC0009A783B689A700023FB600DE07A68FB6884
:103DD0001344033319783A68FB68134403330A46E3
:103DE0001A70FB680133FB607B689B781A46FB689E
:103DF0009342EBDB09E07B681A783B681A703B68FA
:103E000000225A703B6800229A707B6800229A74E4
:103E10007B6800221A747B6800221A7000BF10377A
:103E2000BD4680BD80B582B000AF7860114805F016
:103E300045FB0346104A13600F4B1B681B0EDAB29A
:103E40007B681A700C4B1B681A0C7B680133D2B26A
:103E50001A70094B1B681A0A7B680233D2B21A70B7
:103E6000054B1A687B680333D2B21A7000BF08375B
:103E7000BD4680BD702100205816002080B584B05A
:103E800000AF78608C4805F019FB03468B4A13603D
:103E90008A4B1B681B0EDAB27B681A70874B1B6853
:103EA0001A0C7B680133D2B21A70844B1B681A0A51
:103EB0007B680233D2B21A70804B1A687B68033376
:103EC000D2B21A707E4B9B8B1B0A9AB27B6804336A
:103ED000D2B21A707A4B9A8B7B680533D2B21A70C1
:103EE000774BDB8B1B0A9AB27B680633D2B21A700F
:103EF000734BDA8B7B680733D2B21A70704B1B8C12
:103F00001B0A9AB27B680833D2B21A706C4B1A8CB7
:103F10007B680933D2B21A70694BB3F922301B1295
:103F20001AB27B680A33D2B21A70654BB3F92220F9
:103F30007B680B33D2B21A70614BB3F924301B1279
:103F40001AB27B680C33D2B21A705D4BB3F92420DD
:103F50007B680D33D2B21A70594BB3F926301B125D
:103F60001AB27B680E33D2B21A70554BB3F92620C1
:103F70007B680F33D2B21A70514B1B8D1B0A9AB259
:103F80007B681033D2B21A704D4B1A8D7B68113397
:103F9000D2B21A704A4B93F82A301B015AB2494BDD
:103FA00093F82A305BB203F00F035BB213435AB2AB
:103FB0007B681233D2B21A70424B9B8B1B0A9AB2A7
:103FC0007B681333D2B21A703E4B9A8B7B681433E2
:103FD000D2B21A703B4BDB8B1B0A9AB27B6815334B
:103FE000D2B21A70374BDA8B7B681633D2B21A70A2
:103FF000344B1B8C1B0A9AB27B681733D2B21A70EF
:10400000304B1A8C7B681833D2B21A702D4BB3F92F
:1040100022301B121AB27B681933D2B21A70294BA4
:10402000B3F922207B681A33D2B21A70254BB3F948
:1040300024301B121AB27B681B33D2B21A70214B88
:10404000B3F924207B681C33D2B21A701D4BB3F92C
:1040500026301B121AB27B681D33D2B21A70194B6C
:10406000B3F926207B681E33D2B21A70154B1B8D14
:104070001B0A9AB27B681F33D2B21A70114B1A8D89
:104080007B682033D2B21A700023FB600CE0FB681F
:1040900021331A467B6813440B49FA680A441278A4
:1040A0001A70FB680133FB60FB68042BEFDD00BF77
:1040B00000BF1037BD4680BD70210020581600207B
:1040C00090150020BC1500204C16002080B582B051
:1040D00000AF78603E4805F0F1F903463D4A1360B1
:1040E0003C4B1B681B0EDAB27B681A70394B1B689D
:1040F0001A0C7B680133D2B21A70364B1B681A0A4D
:104100007B680233D2B21A70324B1A687B68033371
:10411000D2B21A707B6804332F4A12781A702F4B70
:104120001B881B0A9AB27B680533D2B21A702B4BDC
:104130001A887B680633D2B21A70284B5B881B0A38
:104140009AB27B680733D2B21A70244B5A887B68C4
:104150000833D2B21A70214B9B881B0A9AB27B6833
:104160000933D2B21A701D4B9A887B680A33D2B2D7
:104170001A701A4BDB881B0A9AB27B680B33D2B2D7
:104180001A70164BDA887B680C33D2B21A70134B54
:104190001B891B0A9AB27B680D33D2B21A700F4B7F
:1041A0001A897B680E33D2B21A700C4B5B891B0ADA
:1041B0009AB27B680F33D2B21A70084B5A897B6867
:1041C0001033D2B21A7000BF0837BD4680BD00BFA1
:1041D000702100205816002051160020B021002028
:1041E00080B582B000AF7860684805F067F9034693
:1041F000674A1360664B1B681B0EDAB27B681A7045
:10420000634B1B681A0C7B680133D2B21A70604B87
:104210001B681A0A7B680233D2B21A705C4B1A68A8
:104220007B680333D2B21A707B680433594A127820
:104230001A70594B9B691A0E7B680533D2B21A70FB
:10424000554B9B691A0C7B680633D2B21A70524BDD
:104250009B691A0A7B680733D2B21A704E4B9A696F
:104260007B680833D2B21A704B4BDB691A0E7B683D
:104270000933D2B21A70484BDB691A0C7B680A33D7
:10428000D2B21A70444BDB691A0A7B680B33D2B284
:104290001A70414BDA697B680C33D2B21A703E4B0C
:1042A000D3E90A014FF000024FF000030A0E002389
:1042B00079680D31D3B20B70374BD3E90A014FF057
:1042C00000024FF000030A0C002379680E31D3B2CC
:1042D0000B70314BD3E90A014FF000024FF000039D
:1042E0000A0A002379680F31D3B20B702A4BD3E945
:1042F0000A014FF000024FF000030A000023796822
:104300001031D3B20B70244BD3E90A014FF00002F5
:104310004FF00003020E42EA01220B0E79681131C0
:10432000D3B20B701C4BD3E90A014FF000024FF0DF
:104330000003020C42EA01420B0C79681231D3B23D
:104340000B70154BD3E90A014FF000024FF0000348
:10435000020A42EA01620B0A79681331D3B20B7088
:104360000D4BD3E90A2379681431D3B20B707B6803
:104370001533094A92F835201A707B681633054ABE
:1043800012781A7000BF0837BD4680BD702100202A
:1043900058160020511600202019002090B583B037
:1043A00000AF7860674805F089F80346664A1360F5
:1043B000654B1B681B0EDAB27B681A70624B1B6878
:1043C0001A0C7B680133D2B21A705F4B1B681A0A51
:1043D0007B680233D2B21A705B4B1A687B68033376
:1043E000D2B21A707B680433584A12781A707B680C
:1043F0000533574A12781A707B689C1D01F02EFA1B
:10440000034623707B68073300221A70514B1A88C9
:104410007B680833D2B21A707B6809334C4A127831
:104420001A707B6803F10A0401F058FA03462370FE
:104430007B680B3300221A70464B1A887B680C335A
:10444000D2B21A707B680D33414A12781A707B68B9
:1044500003F10E0401F022FA034623707B680F3348
:1044600000221A703B4B1A887B681033D2B21A7044
:104470007B681133364A12781A707B6803F1120494
:1044800001F04CFA034623707B68133300221A7044
:10449000304B1A887B681433D2B21A707B6815339C
:1044A0002B4A12781A707B6803F1160401F070FA37
:1044B000034623707B68173300221A70254B1A8835
:1044C0007B681833D2B21A707B681933204A12788D
:1044D0001A707B6803F11A0401F082FA0346237014
:1044E0007B681B3300221A701A4B1A887B681C33B6
:1044F000D2B21A707B681D33144A12781A707B6826
:104500001E33124A12781A707B681F330F4A1278D2
:104510001A707B6820330D4A12781A707B68213339
:104520000A4A12781A707B682233084A12781A7085
:104530007B682333054A12781A7000BF0C37BD46DA
:1045400090BD00BF70210020581600205116002099
:10455000521600205416002080B582B000AF78605B
:10456000A44804F0ABFF0346A34A1360A24B1B68A8
:104570001B0EDAB27B681A709F4B1B681A0C7B68A3
:104580000133D2B21A709C4B1B681A0A7B68023343
:10459000D2B21A70984B1A687B680333D2B21A7081
:1045A000964B5B681A0E7B680433D2B21A70934B39
:1045B0005B681A0C7B680533D2B21A708F4B5B684C
:1045C0001A0A7B680633D2B21A708C4B5A687B6821
:1045D0000733D2B21A70894B1B691A0E7B680833F5
:1045E000D2B21A70854B1B691A0C7B680933D2B2A0
:1045F0001A70824B1B691A0A7B680A33D2B21A708E
:104600007E4B1A697B680B33D2B21A707B4B9B6866
:104610001A0E7B680C33D2B21A70784B9B681A0C56
:104620007B680D33D2B21A70744B9B681A0A7B6890
:104630000E33D2B21A70714B9A687B680F33D2B2C4
:104640001A706E4B9B691A0E7B681033D2B21A70C7
:104650006A4B9B691A0C7B681233D2B21A70674B93
:104660009B691A0A7B681333D2B21A70634B9A693A
:104670007B681433D2B21A707B681533604A1278A3
:104680001A70604B1B881B0A9AB27B681633D2B231
:104690001A705C4B1A887B681733D2B21A707B6829
:1046A0001833594A12781A70584B1B881B0A9AB251
:1046B0007B681933D2B21A70544B1A887B681A334C
:1046C000D2B21A70524BD3E908014FF000024FF0FA
:1046D00000030A00002379681B31D3B20B704C4BE6
:1046E000D3E908014FF000024FF00003020E42EA46
:1046F00001220B0E79681C31D3B20B70444BD3E905
:1047000008014FF000024FF00003020C42EA0142A0
:104710000B0C79681D31D3B20B703D4BD3E9080106
:104720004FF000024FF00003020A42EA01620B0A56
:1047300079681E31D3B20B70354BD3E90823796801
:104740001F31D3B20B70334BD3E906014FF0000297
:104750004FF00003020C42EA01420B0C7968203151
:10476000D3B20B702B4BD3E906014FF000024FF090
:104770000003020E42EA01220B0E79682131D3B206
:104780000B70244BD3E906014FF000024FF00003F9
:10479000020C42EA01420B0C79682231D3B20B7051
:1047A0001C4BD3E906014FF000024FF00003020A50
:1047B00042EA01620B0A79682331D3B20B70154BC0
:1047C000D3E9062379682431D3B20B70124B1A78DF
:1047D0007B6825331A70114B1A787B6826331A7060
:1047E0007B6827330E4A12781A7000BF0837BD461F
:1047F00080BD00BF7021002058160020381800200E
:10480000582900205C290020592900205A2900201D
:10481000102200207824002083020020BD1B0020ED
:10482000BC1B002080B582B000AF78607D4804F0EA
:1048300045FE03467C4A13607B4B1B681B0EDAB2B5
:104840007B681A70784B1B681A0C7B680133D2B2F4
:104850001A70754B1B681A0A7B680233D2B21A7041
:10486000714B1A687B680333D2B21A706F4B1B68A6
:104870001A0E7B680433D2B21A706C4B1B681A0C88
:104880007B680533D2B21A70684B1B681A0A7B68C2
:104890000633D2B21A70654B1A687B680733D2B2FE
:1048A0001A70624B5B681A0E7B680833D2B21A70BA
:1048B0005E4B5B681A0C7B680933D2B21A705B4B93
:1048C0005B681A0A7B680A33D2B21A70574B5A686F
:1048D0007B680B33D2B21A70554B1B681A0E7B687B
:1048E0000C33D2B21A70524B1B681A0C7B680D3312
:1048F000D2B21A704E4B1B681A0A7B680E33D2B2C2
:104900001A704B4B1A687B680F33D2B21A70484B3F
:104910005B681A0E7B681033D2B21A70444B5B6826
:104920001A0C7B681133D2B21A70414B5B681A0AB9
:104930007B681233D2B21A703D4B5A687B681333CE
:10494000D2B21A703B4B1B681A0E7B681433D2B27A
:104950001A70384B1B681A0C7B681533D2B21A7068
:10496000344B1B681A0A7B681633D2B21A70314B6B
:104970001A687B681733D2B21A702E4B5B681A0E16
:104980007B681833D2B21A702A4B5B681A0C7B68AA
:104990001933D2B21A70274B5B681A0A7B681A3334
:1049A000D2B21A70234B5A687B681B33D2B21A708A
:1049B000214B1B681A0E7B681C33D2B21A701E4B37
:1049C0001B681A0C7B681D33D2B21A701A4B1B6815
:1049D0001A0A7B681E33D2B21A70174B1A687B68AA
:1049E0001F33D2B21A70144B5B681A0E7B682033E7
:1049F000D2B21A70104B5B681A0C7B682133D2B2AA
:104A00001A700D4B5B681A0A7B682233D2B21A7097
:104A1000094B5A687B682333D2B21A7000BF08373B
:104A2000BD4680BD7021002058160020841600204D
:104A3000741600207C1600208C16002080B58AB0E9
:104A400000AF7860B34804F039FD78627B6A1B0ED2
:104A5000DAB27B681A707B6A1A0C7B680133D2B2B7
:104A60001A707B6A1A0A7B680233D2B21A707B68AA
:104A700003337A6AD2B21A70A74BD3ED007A9FED56
:104A8000A77A67EE877AFDEEE77A17EE903A7B8495
:104A9000A14BD3ED017A9FEDA17A67EE877AFDEE07
:104AA000E77A17EE903A3B849B4BD3ED027A9FED69
:104AB0009B7A67EE877AFDEEE77A17EE903AFB83F2
:104AC000B7F922301B121AB27B680433D2B21A70C3
:104AD0007B6805337A8CD2B21A70B7F920301B127A
:104AE0001AB27B680633D2B21A707B6807333A8CED
:104AF000D2B21A70B7F91E301B121AB27B68083393
:104B0000D2B21A707B680933FA8BD2B21A70844B16
:104B10001B881B0A9AB27B680A33D2B21A70804B88
:104B20001A887B680B33D2B21A707D4B5B881B0AE4
:104B30009AB27B680C33D2B21A70794B5A887B6870
:104B40000D33D2B21A70764B9B881B0A9AB27B68DF
:104B50000E33D2B21A70724B9A887B680F33D2B27E
:104B60001A706F4BDB881B0A9AB27B681033D2B283
:104B70001A706B4BDA887B681133D2B21A70684BAB
:104B80001B891B0A9AB27B681233D2B21A70644B2B
:104B90001A897B681333D2B21A70614B5B891B0A86
:104BA0009AB27B681433D2B21A705D4B5A897B6813
:104BB0001533D2B21A705B4BD3ED007A9FED5A7A5F
:104BC00067EE877AFDEEE77A17EE903ABB61554BB8
:104BD000D3ED017A9FED547A67EE877AFDEEE77A9E
:104BE00017EE903A7B61BB691A0E7B681633D2B21E
:104BF0001A70BB691A147B681733D2B21A70BB697A
:104C00001A127B681833D2B21A707B681933BA69EA
:104C1000D2B21A707B691A0E7B681A33D2B21A703C
:104C20007B691A147B681B33D2B21A707B691A1223
:104C30007B681C33D2B21A707B681D337A69D2B29A
:104C40001A70384B93ED027ADFED386AC7EE267A98
:104C5000FCEEE77AC7ED007A3B78FB747B681E3385
:104C6000FA7C1A70324BD3ED047A9FED327A67EEFC
:104C7000877AFDEEE77A17EE903A3B822C4BD3ED24
:104C8000057A9FED2C7A67EE877AFDEEE77A17EECC
:104C9000903AFB81264BD3ED067A9FED267A67EE9C
:104CA000877AFDEEE77A17EE903ABB81204BD3ED81
:104CB000077A9FED207A67EE877AFDEEE77A17EEA6
:104CC000903A7B81B7F910301B121AB27B681F3300
:104CD000D2B21A707B6820333A8AD2B21A70B7F90E
:104CE0000E301B121AB27B682133D2B21A707B6865
:104CF0002233FA89D2B21A70B7F90C301B121AB2E9
:104D00007B682333D2B21A707B682433BA89D2B25B
:104D10001A7011E050190020BC15002000007A44E0
:104D2000B0210020201900200024744900401C46B6
:104D3000C82100200060EA46B7F90A301B121AB2F7
:104D40007B682533D2B21A707B6826337A89D2B257
:104D50001A7000BF2837BD4680BD00BF80B588B03F
:104D600000AF78609B4804F0A9FBF861FB691B0E5B
:104D7000DAB27B681A70FB691A0C7B680133D2B215
:104D80001A70FB691A0A7B680233D2B21A707B6808
:104D90000333FA69D2B21A708F4BD3ED007A9FEDCC
:104DA0008F7A67EE877AFDEEE77A17EE903A7B838B
:104DB000894BD3ED017A9FED897A67EE877AFDEE14
:104DC000E77A17EE903A3B83834BD3ED027A9FED5F
:104DD000837A67EE877AFDEEE77A17EE903AFB82E8
:104DE000B7F91A301B121AB27B680433D2B21A70A8
:104DF0007B6805337A8BD2B21A70B7F918301B1260
:104E00001AB27B680633D2B21A707B6807333A8BCA
:104E1000D2B21A70B7F916301B121AB27B68083377
:104E2000D2B21A707B680933FA8AD2B21A706C4B0C
:104E30009B891B0A9AB27B680A33D2B21A70684BFC
:104E40009A897B680B33D2B21A70654BDB891B0AD7
:104E50009AB27B680C33D2B21A70614BDA897B68E4
:104E60000D33D2B21A705E4B1B8A1B0A9AB27B6852
:104E70000E33D2B21A705A4B1A8A7B680F33D2B2F1
:104E80001A70554BB3F922301B121AB27B681033DB
:104E9000D2B21A70504BB3F922207B681133D2B2D0
:104EA0001A704D4BB3F924301B121AB27B681233BF
:104EB000D2B21A70484BB3F924207B681333D2B2B4
:104EC0001A70454BB3F926301B121AB27B681433A3
:104ED000D2B21A70404BB3F926207B681533D2B298
:104EE0001A70404BD3ED007A9FED3F7A67EE877AD8
:104EF000FDEEE77A17EE903A3B613A4BD3ED017A3B
:104F00009FED397A67EE877AFDEEE77A17EE903AF1
:104F1000FB603B691A0E7B681633D2B21A703B698C
:104F20001A147B681733D2B21A703B691A127B6865
:104F30001833D2B21A707B6819333A69D2B21A7038
:104F4000FB681A0E7B681A33D2B21A70FB681A1407
:104F50007B681B33D2B21A70FB681A127B681C3351
:104F6000D2B21A707B681D33FA68D2B21A701D4B28
:104F700093ED027ADFED1D6AC7EE267AFCEEE77A42
:104F8000C7ED007A3B78FB727B681E33FA7A1A70A1
:104F90007B682233164A12781A707B682333144ACE
:104FA00012781A707B682433114A12781A707B6861
:104FB00025330F4A12781A707B6826330C4A127810
:104FC0001A707B6827330A4A12781A7000BF20379C
:104FD000BD4680BD50190020BC15002000007A4459
:104FE000B0210020201900200024744900401C46F4
:104FF0005116002080B59CB002AF7860012387F87D
:10500000673017F08DFA0346BB6000F033FB414870
:1050100004F0CEFA02F044F807F140031846FFF717
:10502000BDF907F14003184600F012FD0346002BBE
:105030000DD007F140031846FEF7F4FE07F1100308
:1050400007F1400104220120FEF711FC07E007F1FF
:10505000100307F1400127220220FEF708FC2E4B27
:105060001B7883F00103DBB2002B04D007F110039F
:105070001846FEF793FC07F10C03642200924FF0F0
:10508000FF320021002018F013FA0346012B02D151
:10509000FB6887F8673097F86730012BEBD100F099
:1050A000E9FA1C4804F084FA01F0FAFF07F1400322
:1050B0001846FFF773F907F14003184600F0C8FCE3
:1050C0000346002B0DD007F140031846FEF7AAFE59
:1050D00007F1100307F1400104220120FEF7C7FB8E
:1050E00007E007F1100307F1400127220220FEF735
:1050F000BEFB0A4B186807F1100100234FF0FF3286
:1051000015F062FF07F108030549184616F084FF01
:10511000B1E700BF080600206D020020B01B002090
:10512000C027090080B59AB002AF7860642300936D
:10513000434B4FF0FF320021002018F0B9F903462D
:10514000012B11D13E4B1B6803F00103002B02D051
:105150003C4B01221A703A4B1B6803F00203002BF0
:1051600002D0384B00221A70364B1B78002BDDD052
:1051700017F0D6F90346344A13603449344800F036
:1051800083F800F043F9334B1B78002B41D03248B1
:1051900007F080FB3149304800F076F800F050F914
:1051A0002F4B03F5FA430C331A462E4B1846114683
:1051B00042F6D0731A4622F0DCFB2B49294800F056
:1051C00063F800F0F7F9294B00221A60274B1B689F
:1051D000FF222149184602F093F825491E4800F0A5
:1051E00053F800F049F907F138031846FFF71AFBA6
:1051F00007F1080307F1380127220D20FEF737FBDE
:105200001C4B186807F1080100234FF0FF3215F01E
:10521000DBFE17F085F90346174A1360164B1A6830
:10522000094B1B68D31A154A1360134B1A68064BB7
:105230001B68D31A124A1360124816F06FFF75E705
:10524000681600206C0200204829002084160020E7
:10525000007D006440210020D0AC00648C1600204A
:1052600000000C08A0DC00647416002078180020F0
:105270007C160020B01B00204C2900205029002063
:1052800054290020C0270900F0B587B000AF78602E
:1052900039600023FB600023BB60544B00221A706E
:1052A000524B00225A70514B00229A704F4B0022F1
:1052B000DA704F4B00221A604E4B1B689A684D4BB8
:1052C0001B6842F001029A6040F6F432796849485E
:1052D0000CF04AFB0346464A1360474B1A68444B9E
:1052E0001B689A427ED000237B6178E07A6913467E
:1052F0001B029B1A1B01FB60FB687A6813443F4A40
:10530000104619464FF47F631A4622F032FB394BA0
:105310001B689A68374B1B6842F001029A60344B55
:1053200000221A604FF47F72344932480CF01CFBA3
:1053300003462F4A1360324B1A682D4B1B689A4262
:105340004AD000233B6144E03A6913465B001344B2
:105350001B011A46FB681344BB60BB687A681344A0
:10536000284A1C46164604F1300C35462346186878
:1053700059689A68DB680FC5103410366445F4D15B
:105380001C4B1B689A681B4B1B6842F001029A6019
:10539000174B00221A600C221A4916480CF0E4FA46
:1053A0000346134A1360184B1A68114B1B689A4244
:1053B0000CD00E4A7B69134401221A700B4B012258
:1053C000DA703A6830210F4800F014F93B69013374
:1053D0003B613B69542BB7DD7B6901337B617B69A2
:1053E000022B83DD00BF1C37BD46F0BD64160020D4
:1053F000601600200405002060020020700C01648B
:1054000064020020601C01646802002080B500AFC7
:10541000084BDB78002B0AD0074B1B7842F6D07282
:105420001946064821F0D5FB024B0022DA7000BF76
:1054300080BD00BF6416002082020020007D006451
:1054400080B500AF094BDB78002B0DD0084B1B78E3
:105450004FF4FF721946074821F0BBFB054807F0DF
:1054600081F9024B0022DA7000BF80BD6416002073
:1054700082020020901C016480B500AF464B1B786F
:10548000002B3DD0444B5B78002B39D0424B9B78AE
:10549000002B35D0414B1B6810221946404800F0C4
:1054A000F1FF3E4B1A683F4B1B6813443B4A1360A5
:1054B0003A4B1B6810221946394800F0E3FF374B7E
:1054C0001A68384B1B681344344A1360334B1B680B
:1054D00010221946324800F0D5FF334B1B7842F6B4
:1054E000D0721946314821F074FB314B1B68FF2202
:1054F0002E49184601F00AFE0A2016F00FFE49E078
:10550000254B1B78002B10D0294B00221A60234B0F
:105510001B6810221946224800F0B4FF244B1B6878
:1055200055222249184601F0F1FD1B4B5B78002BF8
:1055300015D01F4B4FF480521A601A4B1B68174A44
:105540001360164B1B6810221946154800F09AFF8D
:10555000174B1B6855221549184601F0D7FD0E4B15
:105560009B78002B16D0124B4FF400521A600D4B53
:105570001B685B00094A1360084B1B681022194620
:10558000074800F07FFF0A4B1B6855220749184661
:1055900001F0BCFD00BF80BD641600200417002090
:1055A0006C0700207802002082020020D0AC00644A
:1055B0007C18002080B500AF0B4BDB78002B10D09F
:1055C0000A4B1B7842F6D0721946094821F001FBBC
:1055D00018F0E8FE00F068FA18F016FF024B0022FF
:1055E000DA7000BF80BD00BF641600208202002078
:1055F000A0DC006480B487B000AFF860B9607A6066
:105600001B4B1B78BB7400237B6126E0FA687B6927
:1056100013441B787B747A7CBB7C9A421AD07B68DB
:105620001B685A1C7B681A607A7CBB7C5340FB74F5
:105630000DE0FB7C013BDBB25AB297F9133013400B
:105640005BB2FB747B685B685A1C7B685A60FB7CAE
:10565000002BEED17B6901337B617A69BB689A428A
:10566000D4D300BF00BF1C37BD465DF8047B704734
:105670008202002080B586B004AF6C4B1B684FF0EF
:10568000FF31184615F0E2FF6423029302230193D1
:105690003B1D009301230F22902165480EF046F92F
:1056A00003461A46634B1A70624B1B78002B0FD1CE
:1056B0003B791B027A79134340F21712934203D1CC
:1056C0005D4B00221A7006E05B4B01221A7002E06B
:1056D0005A4B01221A706423029301230193FB1C8D
:1056E000009301230F22D32151480EF01FF90346E6
:1056F0001A46504B1A704F4B1B78002B09D1FB7880
:10570000D32B03D14E4B00221A7002E04C4B0122E6
:105710001A706423029301230193BB1C009301239D
:105720002022602142480EF001F903461A46414BFF
:105730001A70404B1B78002B09D1BB78062B03D184
:10574000404B00221A7002E03E4B01221A70642383
:105750000293022301933B1D009301230F2290210A
:1057600039480EF0E3F803461A46324B1A70314BB3
:105770001B78002B0FD13B791B027A79134340F23F
:105780001712934203D1314B00221A7006E02F4BBF
:1057900001221A7002E02E4B01221A706423029338
:1057A00001230193FB1C009301230F22D3212648E0
:1057B0000EF0BCF803461A461E4B1A701D4B1B78A0
:1057C000002B09D1FB78D32B03D1224B00221A7076
:1057D00002E0204B01221A706423029301230193FB
:1057E000BB1C009301232022602117480EF09EF875
:1057F00003461A460F4B1A700E4B1B78002B09D12B
:10580000BB78062B03D1144B00221A7002E0124B16
:1058100001221A70054B186800230022002115F0A0
:10582000D3FB00BF0837BD4680BD00BF602100200C
:105830000C050020941600206E0200206C1600203B
:105840007002002072020020600500206F0200201C
:105850006D160020710200207302002080B400AF9A
:105860000C4B1B78002B03D10B4B1B78002B0AD061
:10587000094B1B785B005AB2064B1B785BB2134393
:105880005BB2DBB200E000231846BD465DF8047B46
:10589000704700BF720200207302002080B400AF86
:1058A0000C4B1B78002B03D10B4B1B78002B0AD021
:1058B000094B1B785B005AB2064B1B785BB2134353
:1058C0005BB2DBB200E000231846BD465DF8047B06
:1058D000704700BF6E0200206F02002080B400AF4E
:1058E0000C4B1B78002B03D10B4B1B78002B0AD0E1
:1058F000094B1B785B005AB2064B1B785BB2134313
:105900005BB2DBB200E000231846BD465DF8047BC5
:10591000704700BF700200207102002080B400AF09
:10592000194B1B78002B0BD1174B5B78002B07D141
:10593000154B9B78002B03D1134BDB78002B19D030
:10594000124B01221A70104BDB78DB005AB20E4B5F
:105950009B789B005BB213435AB20B4B5B785B00A6
:105960005BB213435AB2084B1B785BB213435BB272
:10597000DBB203E0054B00221A7000231846BD4637
:105980005DF8047B704700BF9C1800207402002063
:1059900080B400AF0F4B1B78002B03D10E4B1B784C
:1059A000002B0DD00D4B01221A700B4B1B785B00A6
:1059B0005AB2084B1B785BB213435BB2DBB203E015
:1059C000064B00221A7000231846BD465DF8047B82
:1059D000704700BF6E1600206F1600207502002071
:1059E00080B400AF164B1B78002B0BD1154B1B78E6
:1059F000002B07D1144B1B78002B03D1134B1B78C2
:105A0000002B16D00E4B1B78DB005AB20D4B1B78C7
:105A10009B005BB213435AB20B4B1B785B005BB22B
:105A200013435AB2094B1B785BB213435BB2DBB230
:105A300000E000231846BD465DF8047B704700BFB8
:105A4000701600200422002071160020721600201B
:105A500080B485B000AF78600023FB7307E0FB7B68
:105A60007A6813441B78002B01D0012303E0FB7BF1
:105A7000262BF4D9002318461437BD465DF8047B65
:105A80007047000080B500AF14F0DCFE0346044A06
:105A9000136014F0D7FE0346024A136000BF80BDB6
:105AA000981600209C1600202DE9B04F8CB000AF56
:105AB0000CF042FC484BF322DA600023BB600A235F
:105AC0003B6101237B610223BB613A1D07F108039F
:105AD000114618460CF092FD0346002B74D13F4B43
