:020000040800F2
:1000000000000220512E0008812B0008892B0008D7
:10001000912B0008992B0008A12B0008000000007C
:1000200000000000000000000000000071F801085E
:10003000A92B00080000000061FB0108C9FB0108B2
:10004000A12E0008A12E0008A12E0008A12E000854
:10005000A12E0008A12E0008A12E0008A12E000844
:10006000B72B0008A12E0008A12E0008C52B000800
:10007000A12E0008A12E0008A12E0008A12E000824
:10008000D92B0008A12E0008A12E0008A12E0008DF
:10009000A12E0008A12E0008A12E0008A12E000804
:1000A000A12E0008A12E0008A12E0008A12E0008F4
:1000B000A12E0008A12E0008A12E0008A12E0008E4
:1000C000A12E0008A12E0008A12E0008A12E0008D4
:1000D000A12E0008A12E0008A12E0008ED2B00087B
:1000E000A12E0008012C0008A12E0008A12E000856
:1000F000A12E0008A12E0008A12E0008A12E0008A4
:10010000A12E0008152C0008A12E0008292C00089B
:100110003D2C0008A12E0008A12E0008512C00083B
:10012000A12E0008A12E0008A12E0008652C0008B1
:10013000A12E0008A12E0008A12E0008A12E000863
:10014000A12E0008A12E0008A12E0008A12E000853
:10015000A12E0008792C0008A12E00088D2C000883
:10016000A12E0008A12E0008A12E0008A12E000833
:10017000A12E0008A12E0008A12E000800000000FA
:08018000A12E0008A12E0008C9
:1001900010B5054C237833B9044B13B10448AFF3C1
:1001A00000800123237010BDF00400200000000037
:1001B00098B9020808B5034B1BB103490348AFF3D4
:1001C000008008BD00000000F404002098B9020877
:1001D00010F8012B11F8013B012A28BF9A42F7D0F1
:1001E000D01A7047034613F8012B002AFBD1181AC6
:1001F000013870470000000000000000000000000F
:1002000001F0FF01102A2BDB10F0070F08D010F8C7
:10021000013B013A8B422DD010F0070F42B3F6D1CB
:10022000F0B441EA012141EA014122F007047FF0E4
:1002300000070023F0E80256083C85EA010586EA3B
:10024000010685FA47F5A3FA87F586FA47F6A5FA77
:1002500087F68EB9EED1F0BC01F0FF0102F0070283
:1002600032B110F8013B013A83EA010313B1F8D12E
:100270000020704701387047002D06BF354603380F
:10028000073815F0010F07D1013015F4807F02BF48
:10029000013015F4C03F0130F0BC0138704700BF99
:1002A00081F0004102E000BF83F0004330B54FEA27
:1002B00041044FEA430594EA050F08BF90EA020F94
:1002C0001FBF54EA000C55EA020C7FEA645C7FEA27
:1002D000655C00F0E2804FEA5454D4EB5555B8BF4A
:1002E0006D420CDD2C4480EA020281EA030382EABB
:1002F000000083EA010180EA020281EA0303362D4D
:1003000088BF30BD11F0004F4FEA01314FF4801C1F
:100310004CEA113102D0404261EB410113F0004F31
:100320004FEA03334CEA133302D0524263EB4303E8
:1003300094EA050F00F0A780A4F10104D5F1200E86
:100340000DDB02FA0EFC22FA05F2801841F10001E1
:1003500003FA0EF2801843FA05F359410EE0A5F1B5
:1003600020050EF1200E012A03FA0EFC28BF4CF0E6
:10037000020C43FA05F3C01851EBE37101F000459C
:1003800007D54FF0000EDCF1000C7EEB00006EEBA9
:100390000101B1F5801F1BD3B1F5001F0CD3490833
:1003A0005FEA30004FEA3C0C04F101044FEA44528A
:1003B00012F5800F80F09A80BCF1004F08BF5FEA11
:1003C000500C50F1000041EB045141EA050130BDF1
:1003D0005FEA4C0C404141EB0101013C28BFB1F503
:1003E000801FE9D291F0000F04BF01460020B1FA4E
:1003F00081F308BF2033A3F10B03B3F120020CDA21
:100400000C3208DD02F1140CC2F10C0201FA0CF0FE
:1004100021FA02F10CE002F11402D8BFC2F1200C63
:1004200001FA02F120FA0CFCDCBF41EA0C01904019
:10043000E41AA2BF01EB0451294330BD6FEA040462
:100440001F3C1CDA0C340EDC04F11404C4F120024D
:1004500020FA04F001FA02F340EA030021FA04F35F
:1004600045EA030130BDC4F10C04C4F1200220FAB6
:1004700002F001FA04F340EA0300294630BD21FAF4
:1004800004F0294630BD94F0000F83F4801306BFBA
:1004900081F480110134013D4EE77FEA645C18BFAE
:1004A0007FEA655C29D094EA050F08BF90EA020F45
:1004B00005D054EA000C04BF1946104630BD91EA3D
:1004C000030F1EBF0021002030BD5FEA545C05D140
:1004D0004000494128BF41F0004130BD14F580047F
:1004E0003CBF01F5801130BD01F0004545F0FE41F3
:1004F00041F470014FF0000030BD7FEA645C1ABF28
:10050000194610467FEA655C1CBF0B46024650EA5E
:10051000013406BF52EA033591EA030F41F400218A
:1005200030BD00BF90F0000F04BF0021704730B510
:100530004FF4806404F132044FF000054FF00001E5
:1005400050E700BF90F0000F04BF0021704730B5A6
:100550004FF4806404F1320410F0004548BF40427B
:100560004FF000013EE700BF42004FEAE2014FEAD0
:1005700031014FEA02701FBF12F07F4393F07F4FAB
:1005800081F06051704732F07F4208BF704793F0AE
:100590007F4F04BF41F40021704730B54FF46074C1
:1005A00001F0004521F000411CE700BF50EA0102C4
:1005B00008BF704730B54FF000050AE050EA01026D
:1005C00008BF704730B511F0004502D5404261EBDD
:1005D00041014FF4806404F132045FEA915C3FF41E
:1005E000D8AE4FF003025FEADC0C18BF03325FEABB
:1005F000DC0C18BF033202EBDC02C2F1200300FA6C
:1006000003FC20FA02F001FA03FE40EA0E0021FA90
:1006100002F11444BDE600BF70B54FF0FF0C4CF47E
:10062000E06C1CEA11541DBF1CEA135594EA0C0F30
:1006300095EA0C0F00F0DEF82C4481EA030621EA6B
:100640004C5123EA4C5350EA013518BF52EA0335A6
:1006500041F4801143F4801338D0A0FB02CE4FF058
:100660000005E1FB02E506F00042E0FB03E54FF088
:100670000006E1FB03569CF0000F18BF4EF0010E80
:10068000A4F1FF04B6F5007F64F5407404D25FEA7C
:100690004E0E6D4146EB060642EAC62141EA55512F
:1006A0004FEAC52040EA5E504FEACE2EB4F1FD0C71
:1006B00088BFBCF5E06F1ED8BEF1004F08BF5FEAEF
:1006C000500E50F1000041EB045170BD06F00046A1
:1006D00046EA010140EA020081EA0301B4EB5C044E
:1006E000C2BFD4EB0C0541EA045170BD41F4801146
:1006F0004FF0000E013C00F3AB8014F1360FDEBF6B
:10070000002001F0004170BDC4F10004203C35DA46
:100710000C341BDC04F11404C4F1200500FA05F3C9
:1007200020FA04F001FA05F240EA020001F000426A
:1007300021F0004110EBD37021FA04F642EB0601E0
:100740005EEA430E08BF20EAD37070BDC4F10C040A
:10075000C4F1200500FA04F320FA05F001FA04F2CE
:1007600040EA020001F0004110EBD37041F10001BA
:100770005EEA430E08BF20EAD37070BDC4F12005C5
:1007800000FA05F24EEA020E20FA04F301FA05F22D
:1007900043EA020321FA04F001F0004121FA04F2D5
:1007A00020EA020000EBD3705EEA430E08BF20EAA5
:1007B000D37070BD94F0000F0FD101F000464000DF
:1007C00041EB010111F4801F08BF013CF7D041EA61
:1007D000060195F0000F18BF704703F00046520065
:1007E00043EB030313F4801F08BF013DF7D043EA36
:1007F0000603704794EA0C0F0CEA135518BF95EAEC
:100800000C0F0CD050EA410618BF52EA4306D1D172
:1008100081EA030101F000414FF0000070BD50EA91
:10082000410606BF1046194652EA430619D094EA1B
:100830000C0F02D150EA013613D195EA0C0F05D105
:1008400052EA03361CBF104619460AD181EA030159
:1008500001F0004141F0FE4141F470014FF0000011
:1008600070BD41F0FE4141F4780170BD70B54FF0AC
:10087000FF0C4CF4E06C1CEA11541DBF1CEA13552C
:1008800094EA0C0F95EA0C0F00F0A7F8A4EB05040E
:1008900081EA030E52EA03354FEA013100F0888005
:1008A0004FEA03334FF0805545EA131343EA1263CE
:1008B0004FEA022245EA111545EA10654FEA002683
:1008C0000EF000419D4208BF964244F1FD0404F53C
:1008D000407402D25B084FEA3202B61A65EB030598
:1008E0005B084FEA32024FF480104FF4002CB6EB55
:1008F000020E75EB030E22BFB61A754640EA0C00D5
:100900005B084FEA3202B6EB020E75EB030E22BF14
:10091000B61A754640EA5C005B084FEA3202B6EB55
:10092000020E75EB030E22BFB61A754640EA9C0014
:100930005B084FEA3202B6EB020E75EB030E22BFE4
:10094000B61A754640EADC0055EA060E18D04FEAA2
:10095000051545EA16754FEA06164FEAC30343EA42
:1009600052734FEAC2025FEA1C1CC0D111F4801F0F
:100970000BD141EA00014FF000004FF0004CB6E708
:1009800011F4801F04BF01430020B4F1FD0C88BFA7
:10099000BCF5E06F3FF6AFAEB5EB030C04BFB6EBB2
:1009A000020C5FEA500C50F1000041EB045170BDA5
:1009B0000EF0004E4EEA113114EB5C04C2BFD4EBD2
:1009C0000C0541EA045170BD41F480114FF0000E56
:1009D000013C90E645EA060E8DE60CEA135594EAD2
:1009E0000C0F08BF95EA0C0F3FF43BAF94EA0C0FD5
:1009F0000AD150EA01347FF434AF95EA0C0F7FF44A
:100A000025AF104619462CE795EA0C0F06D152EA9D
:100A100003353FF4FDAE1046194622E750EA410681
:100A200018BF52EA43067FF4C5AE50EA41047FF492
:100A30000DAF52EA43057FF4EBAE12E74FF0FF3CF7
:100A400006E000BF4FF0010C02E000BF4FF0010CC8
:100A50004DF804CD4FEA410C7FEA6C5C4FEA430C41
:100A600018BF7FEA6C5C1BD001B050EA410C0CBF90
:100A700052EA430C91EA030F02BF90EA020F0020F2
:100A8000704710F1000F91EA030F58BF994208BF59
:100A900090422CBFD8176FEAE37040F00100704716
:100AA0004FEA410C7FEA6C5C02D150EA013C07D16D
:100AB0004FEA430C7FEA6C5CD6D152EA033CD3D0B8
:100AC0005DF8040B704700BF8446104662468C46B2
:100AD0001946634600E000BF01B5FFF7B7FF0028E5
:100AE00048BF10F1000F01BD4DF808EDFFF7F4FF0E
:100AF0000CBF012000205DF808FB00BF4DF808ED99
:100B0000FFF7EAFF34BF012000205DF808FB00BFBB
:100B10004DF808EDFFF7E0FF94BF012000205DF8DD
:100B200008FB00BF4DF808EDFFF7CEFF94BF012092
:100B300000205DF808FB00BF4DF808EDFFF7C4FF8B
:100B400034BF012000205DF808FB00BF4FEA410CD4
:100B50007FEA6C5C02D150EA013C0AD14FEA430CB7
:100B60007FEA6C5C02D152EA033C02D14FF00000F4
:100B700070474FF0010070474FEA410212F5001232
:100B800015D211D56FF47873B3EB625212D94FEAD4
:100B9000C12343F0004343EA505311F0004F23FABE
:100BA00002F018BF404270474FF00000704750EA13
:100BB000013005D111F0004008BF6FF000407047D0
:100BC0004FF00000704700BF4A0011D212F500122A
:100BD00011D20DD56FF47873B3EB62520ED44FEA95
:100BE000C12343F0004343EA505323FA02F0704715
:100BF0004FF00000704750EA013002D14FF0FF3053
:100C000070474FF0000070474FEA4102B2F1E043F5
:100C100024BFB3F5001CDCF1FE5C0DD901F0004CE3
:100C20004FEAC0024CEA5070B2F1004F40EB830033
:100C300008BF20F00100704711F0804F21D113F15F
:100C40003872BCBF01F00040704741F480114FEA98
:100C50005252C2F11802C2F1200C10FA0CF320FA21
:100C600002F018BF40F001004FEAC1234FEAD3233E
:100C700003FA0CFC40EA0C0023FA02F34FEA4303A8
:100C8000CCE77FEA625307D150EA01331EBF4FF031
:100C9000FE4040F44000704701F0004040F0FE404C
:100CA00040F40000704700BF7BB972B90029BEBF95
:100CB00000204FF0004106E008BF00281CBF6FF085
:100CC00000414FF0FF3000F0EBB9ADF1080C6DE9D9
:100CD00004CE002909DB002B1ADB00F083F8DDF8D5
:100CE00004E0DDE9022304B07047404261EB4101BA
:100CF000002B1BDB00F076F8DDF804E0DDE90223D1
:100D000004B0404261EB4101524263EB4303704740
:100D1000524263EB430300F065F8DDF804E0DDE9DF
:100D2000022304B0404261EB41017047524263EB41
:100D3000430300F057F8DDF804E0DDE9022304B0D6
:100D4000524263EB4303704753B94AB9002908BFC5
:100D500000281CBF4FF0FF314FF0FF3000F0A0B96A
:100D6000ADF1080C6DE904CE00F03CF8DDF804E0CC
:100D7000DDE9022304B0704738B5002200230446A1
:100D80000D46FFF7BBFE28B920462946BDE838408E
:100D900000F00AB8204605F1004100F005F8404295
:100DA00061EB410138BD00BFD0B50C4B00220646B7
:100DB0000F46FFF731FCFFF707FF0446FFF7B2FBD2
:100DC000074B0022FFF728FC02460B463046394607
:100DD000FFF76AFAFFF7F8FE2146D0BD0000F03DAC
:100DE0000000F0412DE9F047089D0C46002B4ED144
:100DF00094468C458646B2FA82F262D94AB1C2F173
:100E00002003914020FA03F30CFA02FC194300FA84
:100E100002FE4FEA1C471FFA8CF6B1FBF7F44FEACB
:100E20001E4307FB141143EA014304FB06F19942F8
:100E30000AD91CEB030304F1FF3080F012819942C0
:100E400040F20F81023C6344591A1FFA8EF3B1FB42
:100E5000F7F007FB101143EA014300FB06F69E4240
:100E60000AD91CEB030300F1FF3180F0FC809E42A5
:100E700040F2F980634402389B1B40EA04400021A1
:100E80001DB1D3400022C5E90032BDE8F0878B4296
:100E900005D90DB1C5E9000100210846F5E7B3FA0F
:100EA00083F1002946D1A34202D39042C0F0F080E2
:100EB000861A64EB03030120002DE6D0C5E9006328
:100EC000E3E7002A40F09080A1EB0C044FEA1C48B5
:100ED0001FFA8CF70121B4FBF8F64FEA1E4308FB1A
:100EE000164443EA044307FB06F0984208D91CEB7A
:100EF000030306F1FF3402D2984200F2CD80264669
:100F00001C1A1FFA8EF3B4FBF8F008FB104443EAF6
:100F1000044300FB07F79F4208D91CEB030300F1D1
:100F2000FF3402D29F4200F2B0802046DB1B40EA31
:100F30000640A5E7C1F120068B4022FA06F71F43C1
:100F400020FA06FC04FA01F343EA0C03F44000FA29
:100F500001F8380C4FEA1349B4FBF0FE1FFA87FC86
:100F600000FB1E4449EA04440EFB0CF9A14502FAB9
:100F700001F20AD93C190EF1FF3A80F08480A145B4
:100F800040F28180AEF1020E3C44A4EB09041FFA4A
:100F900083F9B4FBF0F300FB134449EA044403FB78
:100FA0000CFCA44507D93C1903F1FF3067D2A445D6
:100FB00065D9023B3C4443EA0E40A0FB0293A4EBFC
:100FC0000C049C42CE469C4651D34ED055B1B8EB52
:100FD0000E0364EB0C0404FA06F6CB401E43CC402F
:100FE000C5E90064002150E7C2F1200320FA03F1B3
:100FF0000CFA02FC24FA03F394400C434FEA1C4819
:1010000000FA02FE1FFA8CF7B3FBF8F008FB103170
:10101000230C43EA014300FB07F1994208D91CEB7A
:10102000030300F1FF362CD299422AD902386344D7
:101030005B1AA4B2B3FBF8F108FB113344EA034492
:1010400001FB07F3A34208D91CEB040401F1FF36AE
:1010500013D2A34211D902396444E41A41EA00418F
:1010600039E70446F0E6084606E7C845AED2B9EBD4
:10107000020E63EB070C0138A8E73146EDE70346A3
:1010800099E73046D4E7D6467FE7634402384DE718
:101090000646234608460FE7023E634430E700BF9A
:1010A000704700BF84B080B584B000AF07F1180C62
:1010B0008CE80F00124B1B7E012B19D13B46CE2230
:1010C000194607F1180002F0B5FF7B78F02B0FD11D
:1010D000BB78052B0CD13B460333184609F064FA64
:1010E0003B7A012B0CBF01230023DAB2054B1A70A7
:1010F00000BF1037BD46BDE8804004B0704700BF58
:10110000781600207502002080B584B004AF11F07D
:10111000E1FE00F081F900F03BFC00F0F3FB00F091
:101120001BFD00F0F7F900F023FA00F04FFA00F091
:1011300011FB00F031FB00F065FB00F0B9FB1AF089
:10114000C5FD00F071FA00F087FB00F0CFF902F066
:1011500079FE034601221946754819F024F802F079
:1011600067FE034601221946724819F01CF841F245
:10117000883000F0CDFD08F0FBFB6F4B1B7883F04F
:101180000103DBB2002B03D00021002002F0F2FDAE
:1011900000F080FF06F04CFF684B1B7842F6D072DF
:1011A0001946674827F095F864220021654827F022
:1011B00090F864220021644827F08BF8634B029377
:1011C000634B01930323009300234FF44072614962
:1011D00061481CF06AF90346604A1360604B029351
:1011E000604B01930323009300234FF440725E4948
:1011F0005E481CF05AF903465D4A13605D4B02934A
:101200005D4B01930323009300234FF440725B492D
:101210005B481CF04AF903465A4A13605A4B029342
:101220005A4B01930323009300234FF4A0625849C3
:1012300058481CF03AF90346574A1360574B02933B
:10124000574B01930323009300234FF4A0625549A9
:1012500055481CF02AF90346544A1360544B029334
:10126000544B01930323009300234FF440725249DF
:1012700052481CF01AF90346514A1360514B01932E
:101280000123009300234FF4A0624F494F481CF004
:1012900070F94F4B019302230093002340F6B842AC
:1012A0004C494D481CF065F94C4B019302230093C7
:1012B00000234FF410624A494A481CF05AF94A4B3D
:1012C00001930223009300234FF4007247494848DA
:1012D0001CF04FF9474B01930223009300234FF476
:1012E0004072454945481CF044F9454B019302239F
:1012F000009300234FF40072424943481CF039F92F
:10130000424B01930123009300234FF4A062404914
:1013100040481CF02EF905F041F9244B1B68184693
:1013200008F072FB08F0E2FF1CF016FB00BFFDE7BF
:10133000D40800208C080020750200208A020020BA
:10134000007D006450170020B4170020A01000108A
:10135000A0040010B0B90208D1AF0008702200202C
:10136000401D001040110010B8B90208C18C0008DF
:10137000D0190020E0290010E01D0010C4B90208B7
:10138000C9590008A4160020803E0010802A0010D1
:10139000D0B90208D5EC0008F8290020205300102D
:1013A000203F0010D8B90208D1DE0008A02200209A
:1013B000C05F0010C0530010E0B90208699800082F
:1013C000381C0020C81C0020ECB90208899D0008C8
:1013D000BC1C0020F4B90208C19B0008C01C0020FE
:1013E000FCB90208299A00083422002004BA020835
:1013F00005A900083822002008BA0208C5AA00087A
:10140000302200200CBA0208F5A60008C41C0020F7
:1014100014BA0208B55B000880B594B000AF07F1BC
:10142000200330220021184626F053FF07F10C0359
:1014300000221A605A609A60DA601A610023BB6069
:10144000284B1B6C274A43F080531364254B1B6CBD
:1014500003F08053BB60BB6800237B60224B1B689A
:10146000214A43F4804313601F4B1B6803F48043FD
:101470007B607B680A233B620123FB6210233B6392
:1014800001237B630223BB630023FB6308233B64CC
:1014900054237B640223BB640423FB6407F1200311
:1014A000184614F07BFD0346002B01D000F060FECF
:1014B0000F23FB6002233B6180237B610023BB6120
:1014C0000023FB6107F10C030121184614F0DEFF35
:1014D0000346002B01D000F04BFE00BF5037BD4645
:1014E00080BD00BF003802400070004080B500AFF2
:1014F000064B074A1A60054811F036FE0346002BDA
:1015000001D000F035FE00BF80BD00BF0C050020FB
:101510000030024080B500AF124B134A1A60114BE5
:10152000124A5A600F4B00229A600E4B0022DA607A
:101530000C4B4FF480421A610A4B00225A61094B4E
:1015400000229A61074B0022DA61064B00221A62E0
:10155000044813F07FF80346002B01D000F008FE8A
:1015600000BF80BD1405002000540040A08601008B
:1015700080B500AF124B134A1A60114B124A5A60E1
:101580000F4B00229A600E4B0022DA600C4B4FF496
:1015900080421A610A4B00225A61094B00229A616B
:1015A000074B0022DA61064B00221A62044813F04E
:1015B00051F80346002B01D000F0DAFD00BF80BDDA
:1015C0006805002000580040A086010080B500AFEB
:1015D000124B134A1A60114B124A5A600F4B0022E9
:1015E0009A600E4B0022DA600C4B4FF480421A6175
:1015F0000A4B00225A61094B00229A61074B0022D4
:10160000DA61064B00221A62044813F023F80346FD
:10161000002B01D000F0ACFD00BF80BDBC05002058
:10162000005C0040A086010080B590B000AF07F1DB
:101630002C0300221A605A609A60DA601A61002353
:10164000BB623B4628220021184626F042FE3F4B53
:101650003F4A1A603D4B00225A603C4B7F229A6001
:101660003A4BFF22DA60394B00221A61374B0022D5
:101670005A61364B00229A61344815F0FBF9034653
:10168000002B01D000F074FD002387F82C300023DC
:1016900087F82D30002387F82E300023BB6300230A
:1016A000FB6307F12C0301221946284815F065FA5F
:1016B0000346002B01D000F05BFD022387F82830A1
:1016C000042387F82930282387F82A30252387F830
:1016D0002B3007F12803012219461C4815F045FB61
:1016E0000346002B01D000F043FD00233B70012393
:1016F0007B700023BB7000237B600023FB60002312
:101700003B614FF000437B610023BB610023FB6121
:10171000012387F820304FF480737B623B4601221F
:1017200019460A4815F0F4FB0346002B01D000F0DF
:101730001FFD00220521292011F0DEFC292011F0D7
:10174000F7FC00BF4037BD4680BD00BF100600203B
:101750000028004080B400AF0D4B0E4A1A600C4BBD
:1017600000225A600A4B00229A60094B0022DA607C
:10177000074B00221A61064B4FF480425A61044B1A
:1017800004229A6100BFBD465DF8047B704700BF2C
:1017900030060020002C014080B500AF174B184ADE
:1017A0001A60164B4FF482725A60144B00229A60F2
:1017B000124B0022DA60114B00221A610F4B0022FB
:1017C0005A610E4B4FF400729A610C4B1022DA6191
:1017D0000A4B00221A62094B00225A62074B002270
:1017E0009A62064B0A22DA62044817F04CF8034664
:1017F000002B01D000F0BCFC00BF80BD74070020AE
:10180000003C004080B500AF114B124A1A60104BEB
:101810004FF416525A600E4B00229A600C4B002275
:10182000DA600B4B00221A61094B0C225A61084BFB
:1018300000229A61064B0022DA61054818F0D8FBB5
:101840000346002B01D000F093FC00BF80BD00BF19
:101850008C080020004C004080B500AF124B134AAA
:101860001A60114B4FF4E1325A600F4B4FF4805223
:101870009A600D4B0022DA600B4B4FF480621A61C4
:10188000094B0C225A61084B00229A61064B002238
:10189000DA61054818F0ACFB0346002B01D000F0DC
:1018A00067FC00BF80BD00BFD40800200048004096
:1018B00080B500AF114B124A1A60104B4FF4E13261
:1018C0005A600E4B00229A600C4B0022DA600B4BE0
:1018D00000221A61094B0C225A61084B00229A61BE
:1018E000064B0022DA61054818F082FB0346002B04
:1018F00001D000F03DFC00BF80BD00BF1C090020EE
:101900000014014080B582B000AF00237B601F4B04
:101910001B6B1E4A43F4800313631C4B1B6B03F4C5
:1019200080037B607B6800233B60184B1B6B174A6E
:1019300043F400131363154B1B6B03F400133B605C
:101940003B68002205210B2011F0D6FB0B2011F083
:10195000EFFB00220521102011F0CEFB102011F02A
:10196000E7FB002205213B2011F0C6FB3B2011F0D4
:10197000DFFB00220521452011F0BEFB452011F0C0
:10198000D7FB00BF0837BD4680BD00BF003802400E
:1019900080B58EB000AF07F1240300221A605A60B0
:1019A0009A60DA601A6100233B62664B1B6B654AE2
:1019B00043F004031363634B1B6B03F004033B62AC
:1019C0003B6A0023FB615F4B1B6B5E4A43F02003C5
:1019D00013635C4B1B6B03F02003FB61FB6900236B
:1019E000BB61584B1B6B574A43F080031363554B45
:1019F0001B6B03F08003BB61BB6900237B61514B10
:101A00001B6B504A43F0010313634E4B1B6B03F0F7
:101A100001037B617B6900233B614A4B1B6B494A95
:101A200043F002031363474B1B6B03F002033B615C
:101A30003B690023FB60434B1B6B424A43F040036E
:101A40001363404B1B6B03F04003FB60FB680023F8
:101A5000BB603C4B1B6B3B4A43F010031363394B99
:101A60001B6B03F01003BB60BB6800237B60354B2E
:101A70001B6B344A43F008031363324B1B6B03F0B8
:101A800008037B607B68002242F230212E4812F06E
:101A9000A3FD00224FF440412C4812F09DFD42F27C
:101AA00030237B620123BB620023FB6200233B6384
:101AB00007F124031946244812F0DEFA04237B625E
:101AC0004FF48813BB620023FB6207F1240319461D
:101AD0001F4812F0D1FA4FF400737B624FF4881361
:101AE000BB620023FB6207F124031946174812F07A
:101AF000C3FA4FF480737B620023BB620023FB6256
:101B000007F124031946134812F0B6FA4FF4404384
:101B10007B620123BB620023FB6200233B6307F16E
:101B200024031946094812F0A7FA002200210820D0
:101B300011F0E2FA082011F0FBFA00BF3837BD4679
:101B400080BD00BF0038024000080240001C024077
:101B5000000402400018024080B588B000AF3B1D71
:101B600000221A605A609A60DA601A615A619A61BA
:101B70004C4B4FF020421A604A4B4B4A5A60494B3B
:101B800000229A60474B0022DA60464B00221A611D
:101B9000444B10225A61434B00229A61414B002270
:101BA000DA61404B00221A623E4B00225A623D4BE2
:101BB0004FF480529A623B4B0022DA62394B00228A
:101BC0001A63384B00225A63364B00229A63354B16
:101BD00000225A640F237B600F23BB60FF23FB604E
:101BE0000F233B6110237B611123BB610023FB6149
:101BF0003B1D002219462B4817F010FF0346002B0F
:101C000001D000F0B5FA294B4FF020421A60274B63
:101C1000254A5A60254B02229A60244B0022DA6042
:101C2000224B00221A61214B10225A611F4B0022C5
:101C30009A611E4B0022DA611C4B00221A621B4B78
:101C400000225A62194B4FF480529A62174B0022BD
:101C5000DA62164B00221A63144B00225A63134BAC
:101C600000229A63114B00225A640F237B600F23DA
:101C7000BB60FF23FB600F233B6110237B611123BB
:101C8000BB610023FB613B1D00221946074817F08A
:101C9000C5FE0346002B01D000F06AFA00BF2037D2
:101CA000BD4680BD64090020040100A0B4090020E5
:101CB00080B485B000AF78607B681B68064A9342A9
:101CC00003D17B685B6DFB6000BF00BF1437BD466E
:101CD0005DF8047B704700BF003C004080B582B0D7
:101CE00000AF1CF099FC0346012B09D0EFF30583EC
:101CF0007B607B68002B03D11BF092FF034601E061
:101D0000024B1B6818460837BD4680BD082A0020D4
:101D10002DE9B04F86B000AF78601CF07DFC034623
:101D2000012B42D0EFF30583FB60FB68002B3CD115
:101D30007B6800229846914642464B464FF0000091
:101D40004FF00001590141EAD261500102460B46B1
:101D5000B2EB080463EB09054FF000024FF00003FB
:101D6000AB0043EA9473A20014461D4614EB080A24
:101D700045EB090B4FF000024FF000034FEACB0395
:101D800043EA5A734FEACA0292469B465046594666
:101D90004FF47A724FF00003FEF7D6FF02460B466F
:101DA000134618461BF03AFD18E0FFF797FF38611D
:101DB0007B687B617B69B3F1FF3F05D00A4B1B78E1
:101DC0001A467B6913447B6100BFFFF787FF024619
:101DD0003B69D31A7A699A42F7D800BF00BF183717
:101DE000BD46BDE8B08F00BFA802002080B582B01C
:101DF00000AF00237B600B4B1B683A1D1146184651
:101E00001AF09CFE7B68002B07D0074B4FF08052E6
:101E10001A60BFF34F8FBFF36F8F00BF0837BD4607
:101E200080BD00BFF421002004ED00E080B582B049
:101E300000AF00237B600B4B1B683A1D1146184610
:101E40001AF07CFE7B68002B07D0074B4FF08052C6
:101E50001A60BFF34F8FBFF36F8F00BF0837BD46C7
:101E600080BD00BFF021002004ED00E080B584B00B
:101E700000AF78600023FB607B681B680C4A9342CC
:101E800012D10C4B1B6807F10C02114618461AF0D0
:101E900055FEFB68002B07D0074B4FF080521A60AD
:101EA000BFF34F8FBFF36F8F00BF1037BD4680BDAC
:101EB000003C0040F821002004ED00E090B589B01E
:101EC00004AF78600023BB607B681B68604A934264
:101ED00037D101F0B7FF03461B78FB735D4B1B68DE
:101EE000002B14D05B4B186807F1080207F10F01B3
:101EF00000231AF06DFDBB68002B19D0564B4FF034
:101F000080521A60BFF34F8FBFF36F8F10E0FB7BDF
:101F10001946524801F0A0FF504BCE2203926C4666
:101F200003F1100207CA84E807000FCBFFF7BAF8E5
:101F300001F088FF034601221946494818F033F999
:101F400066E07B681B68474A934237D101F070FF17
:101F500003461B78FB73444B1B68002B14D0424B89
:101F6000186807F1080207F10F0100231AF030FD8D
:101F7000BB68002B19D0384B4FF080521A60BFF36A
:101F80004F8FBFF36F8F10E0FB7B1946334801F092
:101F900063FF324BAB2203926C4603F1100207CA77
:101FA00084E807000FCBFFF77DF801F041FF0346FF
:101FB000012219462D4818F0F6F829E07B681B68C5
:101FC0002B4A934224D106F053F803461B78FB7347
:101FD000254B1B68002B13D0264B186807F108020D
:101FE00007F10F0100231AF0F3FCBB68002B07D0A8
:101FF000194B4FF080521A60BFF34F8FBFF36F8FB2
:1020000006F036F80346012219461B4818F0CBF8B3
:102010001CF002FB0346012B16D0184B1B68002B4B
:1020200012D0164B1B6807F10802002118461CF05D
:1020300079FFBB68002B07D0074B4FF080521A6026
:10204000BFF34F8FBFF36F8F00BF1437BD4690BDF6
:10205000004800403C1C002004ED00E07816002001
:10206000D4080020004C0040401C00208C080020B8
:1020700000140140441C00201C090020F829002005
:1020800080B483B000AF786000BF0C37BD465DF808
:10209000047B704780B400AF114B1B68104A23F4D7
:1020A000405313600E4B1B680D4A43F4805313607A
:1020B0000B4B5B680A4A23F040035360084B9B6854
:1020C000074A23F440539360054BDB68044A23F42A
:1020D0004053D36000BFBD465DF8047B704700BF2E
:1020E0000008024080B485B000AFF860B9607A6043
:1020F000FB68074A1A60BB68064A1A607B684FF49F
:1021000080721A6000BF1437BD465DF8047B7047CB
:10211000040A0020A40A002080B485B000AFF86053
:10212000B9607A60FB68074A1A60BB68064A1A60A1
:102130007B684FF4C0721A6000BF1437BD465DF86B
:10214000047B7047A40E0020440F002080B582B0AD
:1021500000AF78607B681B68044A934201D110F09D
:10216000DBFE00BF0837BD4680BD00BF0014004045
:1021700080B400AF72B600BF00BFFDE780B483B08B
:1021800000AF00237B60104B5B6C0F4A43F480432D
:1021900053640D4B5B6C03F480437B607B680023CE
:1021A0003B60094B1B6C084A43F080531364064B99
:1021B0001B6C03F080533B603B6800BF0C37BD468F
:1021C0005DF8047B704700BF0038024080B485B0E2
:1021D00000AF78607B681B680B4A93420DD10023E7
:1021E000FB600A4B1B6B094A43F480531363074B94
:1021F0001B6B03F48053FB60FB6800BF1437BD46C4
:102200005DF8047B704700BF003002400038024098
:1022100080B58EB000AF786007F1240300221A6009
:102220005A609A60DA601A617B681B684B4A934275
:102230002CD100233B624A4B1B6B494A43F00203FB
:102240001363474B1B6B03F002033B623B6AC023E3
:102250007B621223BB620023FB6203233B630423E4
:102260007B6307F1240319463E4811F005FF002364
:10227000FB613B4B1B6C3A4A43F400131364384B2D
:102280001B6C03F40013FB61FB6963E07B681B6854
:10229000354A93422CD10023BB61314B1B6B304A32
:1022A00043F0800313632E4B1B6B03F08003BB6171
:1022B000BB6930237B621223BB620023FB620323D2
:1022C0003B6304237B6307F124031946274811F07D
:1022D000D3FE00237B61224B1B6C214A43F4800315
:1022E00013641F4B1B6C03F480037B617B6931E03B
:1022F0007B681B681E4A93422CD100233B61184B1C
:102300001B6B174A43F080031363154B1B6B03F0E1
:1023100080033B613B694FF4C0737B621223BB6255
:102320000023FB6203233B6304237B6307F1240345
:1023300019460E4811F0A0FE0023FB60084B1B6CF1
:10234000074A43F400031364054B1B6C03F40003BA
:10235000FB60FB6800BF3837BD4680BD00540040BD
:10236000003802400004024000580040001C0240B7
:10237000005C004080B586B000AF786007F10803CC
:1023800000221A605A609A60DA607B681B68104A03
:10239000934219D10223BB604FF400737B6107F1B4
:1023A0000803184614F084FA0346002B01D0FFF707
:1023B000DFFE084B01221A6000220521292010F0BF
:1023C0009BFE292010F0B4FE00BF1837BD4680BD2B
:1023D000002800403C0E474280B58AB000AF7860CC
:1023E00007F1140300221A605A609A60DA601A61D9
:1023F0007B681B68764A934240F0E68000233B618D
:10240000744B5B6C734A43F400635364714B5B6CB5
:1024100003F400633B613B690023FB606D4B1B6B66
:102420006C4A43F0040313636A4B1B6B03F0040311
:10243000FB60FB680023BB60664B1B6B654A43F087
:1024400008031363634B1B6B03F00803BB60BB689B
:102450004FF480737B610223BB610123FB61032383
:102460003B620C237B6207F1140319465A4811F0B2
:1024700003FE4FF480537B610223BB610023FB61A9
:1024800003233B620C237B6207F114031946524875
:1024900011F0F2FD04237B610223BB610123FB6188
:1024A00003233B620C237B6207F1140319464B485C
:1024B00011F0E2FD4A4B4B4A1A60494B4FF0006263
:1024C0005A60474B00229A60454B0022DA60444B29
:1024D0004FF480621A61424B4FF480525A61404B74
:1024E0004FF480429A613E4B2022DA613C4B00223D
:1024F0001A623B4B04225A62394B03229A62384BD0
:102500000022DA62364B00221A63354810F07CFE56
:102510000346002B01D0FFF72BFE7B68304A1A647C
:102520002F4A7B689363304B304A1A602E4B4FF032
:1025300000625A602C4B40229A602B4B0022DA60DA
:10254000294B4FF480621A61274B4FF480525A6135
:10255000254B4FF480429A61234B2022DA61224BB3
:1025600000221A62204B04225A621F4B03229A62F5
:102570001D4B0022DA621C4B00221A631A4810F02D
:1025800043FE0346002B01D0FFF7F2FD7B68164A9D
:10259000DA63154A7B68936300220521312010F02D
:1025A000ABFD312010F0C4FD002205213B2010F0CE
:1025B000A3FD3B2010F0BCFD00220521452010F0BA
:1025C0009BFD452010F0B4FD00BF2837BD4680BDFF
:1025D000002C01400038024000080240000C02407C
:1025E000B40600205864024014070020A064024092
:1025F00080B582B000AF78607B681B68114A934257
:102600001BD1114B5B6C104A23F4006353644FF4ED
:1026100088510E4811F0CCFE04210D4811F0C8FE7F
:102620007B681B6C184610F09DFE7B68DB6B1846C0
:1026300010F098FE312010F089FD00BF0837BD462C
:1026400080BD00BF002C014000380240000802405D
:10265000000C024080B58AB000AF786007F1140327
:1026600000221A605A609A60DA601A617B681B68FF
:102670005A4A934240F0AD8000233B61584B1B6C9B
:10268000574A43F400431364554B1B6C03F4004357
:102690003B613B690023FB60514B1B6B504A43F08D
:1026A000040313634E4B1B6B03F00403FB60FB68D6
:1026B0000023BB604A4B1B6B494A43F00203136380
:1026C000474B1B6B03F00203BB60BB684FF44063D6
:1026D0007B610223BB610023FB6103233B62062372
:1026E0007B6207F1140319463E4811F0C5FC202314
:1026F0007B610223BB610023FB6103233B62062352
:102700007B6207F114031946374811F0B5FC374BCB
:10271000374A1A60354B00225A60344B00229A60C7
:10272000324B0022DA60314B4FF480621A612F4B3A
:1027300000225A612D4B00229A612C4B0022DA6153
:102740002A4B00221A62294B00225A62274810F0B5
:102750005BFD0346002B01D0FFF70AFD7B68234A8F
:10276000DA64224A7B689363224B234A1A60214B26
:1027700000225A601F4B40229A601E4B0022DA60F2
:102780001C4B4FF480621A611A4B00225A61194B9C
:1027900000229A61174B0022DA61164B00221A625E
:1027A000144B00225A62134810F02EFD0346002BF2
:1027B00001D0FFF7DDFC7B680E4A9A640D4A7B6806
:1027C000936300220521332010F096FC332010F093
:1027D000AFFC00BF2837BD4680BD00BF003C0040B5
:1027E000003802400008024000040240CC070020EC
:1027F000106002402C0800208860024080B58EB036
:1028000000AF786007F1240300221A605A609A60D2
:10281000DA601A617B681B68574A934234D10023FF
:102820003B62564B1B6C554A43F400231364534BD5
:102830001B6C03F400233B623B6A0023FB614F4B9C
:102840001B6B4E4A43F0010313634C4B1B6B03F0AD
:102850000103FB61FB6903237B620223BB6200234C
:10286000FB6203233B6308237B6307F124031946C0
:10287000434811F001FC00220521342010F03CFCFB
:10288000342010F055FC73E07B681B683D4A93428E
:1028900035D10023BB61394B1B6C384A43F480238C
:1028A0001364364B1B6C03F48023BB61BB690023AC
:1028B0007B61324B1B6B314A43F0020313632F4B96
:1028C0001B6B03F002037B617B694FF440637B6207
:1028D0000223BB620023FB6203233B6307237B636A
:1028E00007F124031946284811F0C6FB00220521F0
:1028F000272010F001FC272010F01AFC38E07B683C
:102900001B68224A934233D100233B611B4B5B6C13
:102910001A4A43F020035364184B5B6C03F0200306
:102920003B613B690023FB60144B1B6B134A43F074
:1029300004031363114B1B6B03F00403FB60FB6880
:10294000C0237B620223BB620023FB6203233B6341
:1029500008237B6307F1240319460D4811F08CFB13
:1029600000220521472010F0C7FB472010F0E0FBB4
:1029700000BF3837BD4680BD004C004000380240E3
:1029800000000240004800400004024000140140E2
:102990000008024080B586B000AF3B1D00221A60DF
:1029A0005A609A60DA601A612C4B1B68002B51D177
:1029B0002A4B01221A6000233B60294B9B6B284A5B
:1029C00043F001039363264B9B6B03F001033B60D1
:1029D0003B684FF23F037B600223BB600023FB6038
:1029E00003233B610C237B613B1D19461D4811F0FD
:1029F00043FB40F23F237B600223BB600023FB606C
:102A000003233B610C237B613B1D1946164811F0E3
:102A100033FB4FF683737B600223BB600023FB60B4
:102A200003233B610C237B613B1D19460F4811F0CA
:102A300023FB4DF6B3737B600223BB600023FB6076
:102A400003233B610C237B613B1D1946084811F0B1
:102A500013FB00E000BF1837BD4680BD44150020C1
:102A600000380240001402400018024000100240EA
:102A7000000C024080B582B000AF7860FFF78AFF9B
:102A800000BF0837BD4680BD80B58EB000AF78600E
:102A90000023FB620023BB620023FB60334B1B6CF3
:102AA000324A43F020031364304B1B6C03F02003C5
:102AB000FB60FB6807F1100207F11403114618468A
:102AC00013F0C4FE3B6AFB62FB6A002B03D113F0D8
:102AD00095FE786304E013F091FE03465B007B6390
:102AE0007B6B234AA2FB03239B0C013BBB62214B64
:102AF000214A1A601F4B40F2E732DA601D4ABB6A76
:102B000053601C4B00221A611A4B00229A60194B29
:102B100000229A61174816F0C9FF034687F8333040
:102B200097F83330002B1BD1124817F019F80346E1
:102B300087F8333097F83330002B11D1372010F05D
:102B4000F7FA7B680F2B08D800227968372010F03D
:102B5000D3FA0A4A7B68136002E0012387F8333016
:102B600097F8333018463837BD4680BD00380240EC
:102B700083DE1B434815002000140040A4020020FF
:102B800080B400AF00BFFDE780B400AF00BFFDE739
:102B900080B400AF00BFFDE780B400AF00BFFDE729
:102BA00080B400AF00BFFDE780B400AF00BFBD46FA
:102BB0005DF8047B704780B500AF042011F026FD5E
:102BC00000BF80BD80B500AF024810F013FD00BF0C
:102BD00080BD00BFCC07002080B500AF024810F0D8
:102BE00009FD00BF80BD00BF2C08002080B500AFEC
:102BF000024817F0FDFA00BF80BD00BFD4080020D6
:102C000080B500AF024814F0C7FA00BF80BD00BF16
:102C10001006002080B500AF024815F00FF800BF85
:102C200080BD00BF3006002080B500AF024816F01E
:102C3000B5FB00BF80BD00BF7407002080B500AFAA
:102C4000024817F0D5FA00BF80BD00BF8C080020F5
:102C500080B500AF024816F0F3FF00BF80BD00BF93
:102C60004815002080B500AF024810F0C3FC00BF3B
:102C700080BD00BFB406002080B500AF024810F050
:102C8000B9FC00BF80BD00BF1407002080B500AFB5
:102C9000024817F0ADFA00BF80BD00BF1C0900203C
:102CA00080B400AF01231846BD465DF8047B704731
:102CB00080B582B000AF7860396026F0A3F9034692
:102CC00016221A604FF0FF3318460837BD4680BD04
:102CD00080B582B000AF78604FF0FF317868FFF7C1
:102CE000E7FF00BFFDE780B586B000AFF860B960D0
:102CF0007A6000237B610AE0AFF300800146BB6885
:102D00005A1CBA60CAB21A707B6901337B617A6956
:102D10007B689A42F0DB7B6818461837BD4680BD59
:102D200080B586B000AFF860B9607A6000237B613F
:102D300009E0BB685A1CBA601B781846AFF30080E4
:102D40007B6901337B617A697B689A42F1DB7B683E
:102D500018461837BD4680BD80B483B000AF786098
:102D60004FF0FF3318460C37BD465DF8047B7047C3
:102D700080B483B000AF786039603B684FF4005294
:102D80005A60002318460C37BD465DF8047B704737
:102D900080B483B000AF7860012318460C37BD467D
:102DA0005DF8047B704780B485B000AFF860B9600F
:102DB0007A60002318461437BD465DF8047B7047DF
:102DC00080B586B000AF7860144A154BD31A7B618A
:102DD0007B693B61134B1B68002B02D1114B124ADC
:102DE0001A60104B1A687B6813443A699A4207D2FA
:102DF00026F008F903460C221A604FF0FF3309E071
:102E0000084B1B68FB60074B1A687B681344054A34
:102E10001360FB6818461837BD4680BD00000220CD
:102E200000040000941500200000006080B400AF92
:102E3000064BD3F88830054A43F47003C2F8883053
:102E400000BFBD465DF8047B704700BF00ED00E0A9
:102E5000DFF834D0FFF7EAFF0C480D490D4A002394
:102E600002E0D458C4500433C4188C42F9D30A4A3F
:102E70000A4C002301E013600432A242FBD326F087
:102E8000C7F8FEF741F9704700000220000000205B
:102E9000F004002010D80208F00400207066012021
:102EA000FEE780B588B004AF78602323BB7364234A
:102EB00002930123019307F10E03009301232122C2
:102EC000D221786812F03AF80346FB73FB7B002BA3
:102ED00001D0FB7B6EE000237B736423029301230C
:102EE000019307F10D03009301232222D221786878
:102EF00012F024F80346FB73FB7B002B01D0FB7B15
:102F000058E000233B73642302930123019307F1EC
:102F10000C03009301232322D221786812F00EF8CB
:102F20000346FB73FB7B002B01D0FB7B42E00023BD
:102F3000FB72642302930123019307F10B030093B7
:102F400001232522D221786811F0F8FF0346FB7394
:102F5000FB7B002B01D0FB7B2CE01323BB72642393
:102F600002930123019307F10A0300930123242212
:102F7000D221786811F0E2FF0346FB73FB7B002B44
:102F800001D0FB7B16E00F237B72642302930123A5
:102F9000019307F10903009301232022D2217868CD
:102FA00011F0CCFF0346FB73FB7B002B01D0FB7BB6
:102FB00000E0002318461037BD4680BD80B588B0BC
:102FC00004AF78603960354B1B684FF0FF3118460D
:102FD00019F03EFF642302930623019307F10803CF
:102FE00000930123A822D221786812F0A1F80346A9
:102FF000002B01D001234CE0284B1868002300224D
:10300000002119F0E3FB7B7A1B021AB23B7A1BB258
:1030100013431AB23B685A84FB7A1B021AB2BB7A7A
:103020001BB213431AB23B689A847B7B1B021AB211
:103030003B7B1BB213431AB23B68DA843B68B3F99B
:10304000223007EE903AF8EEE77A9FED157A67EEB8
:10305000877A3B68C3ED037A3B68B3F9243007EE07
:10306000903AF8EEE77A9FED0E7A67EE877A3B6842
:10307000C3ED047A3B68B3F9263007EE903AF8EED8
:10308000E77A9FED077A67EE877A3B68C3ED057AAA
:10309000002318461037BD4680BD00BF0022002027
:1030A000295C0F3C80B588B004AF78604FF408739A
:1030B000FB81642302930223019307F10E03009323
:1030C000012301229021786811F038FF00BF1037EA
:1030D000BD4680BD0000000080B588B004AF7860B8
:1030E0003960214B1B684FF0FF31184619F0B0FED4
:1030F000642302930223019307F10C03009301233D
:1031000000229021786812F013F8174B18680023FA
:103110000022002119F05AFB3B7B1B021AB27B7B79
:103120001BB213431BB29AB23B681A853B681B8DD6
:103130001846FDF707FA0AA3D3E90023FDF76CFA56
:1031400002460B4610461946FDF75EFD02463B68F7
:103150009A6100BF1037BD4680BD00BFAFF300804D
:10316000DE718A8EE4F27F3F0022002080B582B0BB
:1031700000AF78607868FFF794FE7868FFF792FFF9
:1031800000BF0837BD4680BD80B582B000AF786013
:10319000396039687868FFF711FF39687868FFF798
:1031A0009BFF32201AF03AFB3968786800F020F96A
:1031B00000BF0837BD4680BD80B586B002AF7860DD
:1031C00048F20703BB8107F10C026423009302233A
:1031D0006021786811F082FB3220FEF799FD2023F0
:1031E0007B7307F10C02642300930223602178684B
:1031F00011F074FB0120FEF78BFD00BF1037BD46B8
:1032000080BD80B586B002AF786048F20703BB810D
:1032100007F10C026423009302236021786811F007
:103220005DFB3220FEF774FD40237B7307F10C0237
:103230006423009302236021786811F04FFB012082
:10324000FEF766FD00BF1037BD4680BD80B58CB06F
:1032500002AFF860B9607A603B60002387F82730DE
:103260000723FB77FB7F3B7501237B755E4B1B6858
:103270004FF0FF31184619F0EBFD07F114026423FB
:10328000009302236021F86811F028FB564B186860
:1032900000230022002119F099FA0A201AF0BEFA40
:1032A0000623FB77504B1B684FF0FF31184619F08F
:1032B000CFFD07F11F026423009301236021F8680A
:1032C00011F00CFB07F11E0264230093012360211F
:1032D000F86811F001FC444B18680023002200211B
:1032E00019F074FA97F82730013387F82730BB7F3D
:1032F00003F00103002B03D197F82730042BCFD91B
:10330000BB7F03F00103002B0CD13B684FF00002A0
:103310001A603B681A687B681A607B681A68BB6829
:103320001A605DE00023FB772F4B1B684FF0FF31E5
:10333000184619F08DFD07F11F0264230093012345
:103340006021F86811F0CAFA07F1180264230093AB
:1033500006236021F86811F0BFFB234B1868002397
:103360000022002119F032FA7B7E1B021AB23B7E4A
:103370001BB213431BB2BB84FB7E1B021AB2BB7E83
:103380001BB213431BB27B847B7F1B021AB23B7FB1
:103390001BB213431BB23B84BB8C07EE903AB8EED2
:1033A000677ADFED126AC7EE267ABB68C3ED007A52
:1033B0007B8C07EE903AB8EE677ADFED0C6AC7EEC9
:1033C000267A7B68C3ED007A3B8C07EE903AB8EE24
:1033D000677ADFED066AC7EE267A3B68C3ED007AAE
:1033E0002837BD4680BD00BF0022002000000045F8
:1033F00080B588B000AF786039607868FFF7DCFE90
:1034000007F1140307F1180207F11C017868FFF7B0
:103410001DFF7868FFF7F5FE07F1080307F10C02BE
:1034200007F110017868FFF711FF97ED077AD7EDE4
:10343000047A37EE677AF0EE006AC7EE267A9FEDDF
:103440003E7A67EE877A3B68C3ED007A97ED067A9D
:10345000D7ED037A37EE677AF0EE006AC7EE267A88
:103460009FED357A67EE877A3B68C3ED017A97ED79
:10347000057AD7ED027A37EE677AF0EE006AC7EE8A
:10348000267A9FED2D7A67EE877A3B68C3ED027A44
:10349000386800F0D3F83968786800F051F83B6874
:1034A000D3ED007AF0EEE77A17EE900AFDF75CF8BC
:1034B0004FF00002214BFDF7D9F902460B461046AA
:1034C0001946FDF781FB03469AB23B689A833B6835
:1034D000D3ED017AF0EEE77A17EE900AFDF744F8A3
:1034E0004FF00002154BFDF7C1F902460B4610469E
:1034F0001946FDF769FB03469AB23B68DA833B68DD
:10350000D3ED027AF0EEE77A17EE900AFDF72CF889
:103510004FF00002094BFDF7A9F902460B46104691
:103520001946FDF751FB03469AB23B681A8400BF67
:103530002037BD4680BD00BF0050C3470000244077
:1035400080B485B000AF786039603B68D3ED007A15
:10355000F5EEC07AF1EE10FAACBF01230023FB7345
:103560003B68D3ED017AF5EEC07AF1EE10FAACBF0C
:1035700001230023BB733B68D3ED027AF5EEC07ADA
:10358000F1EE10FAACBF012300237B73FB7B9B00A1
:103590005AB2BB7B5B005BB213435AB297F90D3052
:1035A00013435BB2DAB23B6883F82A2000BF1437BA
:1035B000BD465DF8047B704780B582B000AF78608F
:1035C0001C4B1B68002B31D01A4B1B684FF0FF318E
:1035D000184619F03DFC7B681B68174A13607B682E
:1035E0005B68154A53607B689B68134A93607B68ED
:1035F000DB68114AD3607B681B690F4A13617B68E3
:103600005B690D4A53617B689B690B4A93617B68D8
:10361000DB69094AD3617B681B6A074A1362054B61
:10362000186800230022002119F0D0F800BF0837E5
:10363000BD4680BD102200203C02002080B52DED4B
:10364000028B8AB000AF78607B681B68BB617B68C7
:103650005B687B617B689B683B615A4B1B68002BF6
:1036600000F09A80574B1B684FF0FF31184619F055
:10367000EFFB554BD3ED007A97ED067A77EE676A4C
:10368000514B93ED037AC6EE877AC7ED097A4E4B1C
:10369000D3ED017A97ED057A37EE677A4A4BD3ED91
:1036A000047A87EE278A484BD3ED067AB0EE670A94
:1036B00020F0EAFEB0EE407AD7ED097A67EE277A7D
:1036C00038EE678A404BD3ED067AB0EE670A20F0F9
:1036D0008FFEB0EE407AC8EE077AC7ED087A3A4B13
:1036E000D3ED087AB0EE670A20F082FEB0EE408A91
:1036F000354BD3ED077AB0EE670A20F079FEF0EE95
:10370000407A28EE277AF7EE006AC6EE877AC7ED90
:10371000037A2D4BD3ED027A97ED047A37EE677A70
:10372000294BD3ED057A87EE278A274BD3ED077A0D
:10373000B0EE670A20F0A8FEB0EE407AD7ED097A25
:1037400067EE277A38EE678A1F4BD3ED087AB0EE22
:10375000670A20F099FEB0EE407AD7ED087A67EE5E
:10376000278A194BD3ED077AB0EE670A20F040FEA6
:10377000F0EE407A68EEA77A78EE677A97ED037AF2
:1037800067EE277AC7ED077A0E4B186800230022F0
:10379000002119F01BF805E0BB697B627B693B6285
:1037A0003B69FB617B687A6A1A607B683A6A5A6097
:1037B0007B68FA699A6000BF2837BD46BDEC028B72
:1037C00080BD00BF102200203C02002080B582B0E6
:1037D00000AF0346FB71124B1B684FF0FF311846D8
:1037E00019F036FBFB79012B06D10E4B0E4A1A60FD
:1037F0000E4B01221A7008E0FB79022B05D1094B10
:103800000B4A1A60094B02221A70054B18680023F4
:103810000022002118F0DAFF00BF0837BD4680BD46
:103820001822002060020020C01500206402002041
:10383000EC15002080B485B000AF78600023FB73E6
:1038400009E0FB7B7A681A44FB7B11780A4AD15461
:10385000FB7B0133FB73FB7B042BF2D9074B1B78FB
:1038600043F00103DAB2054B1A7000BF1437BD46AE
:103870005DF8047B704700BF98150020BC15002040
:1038800080B485B000AF78600023FB730AE0FB7B57
:103890007A681A44FB7B053311780A4AD154FB7BC2
:1038A0000133FB73FB7B042BF1D9074B1B7843F0EF
:1038B0000203DAB2044B1A7000BF1437BD465DF83C
:1038C000047B704798150020BC15002080B485B09B
:1038D00000AF78600023FB730AE0FB7B7A681A4430
:1038E000FB7B0A3311780A4AD154FB7B0133FB730B
:1038F000FB7B042BF1D9074B1B7843F00403DAB2AE
:10390000044B1A7000BF1437BD465DF8047B704746
:1039100098150020BC15002080B485B000AF7860F9
:103920000023FB730AE0FB7B7A681A44FB7B0F33AE
:1039300011780A4AD154FB7B0133FB73FB7B042BC8
:10394000F1D9074B1B7843F00803DAB2044B1A7025
:1039500000BF1437BD465DF8047B70479815002002
:10396000BC15002080B485B000AF78600023FB73E5
:103970000AE0FB7B7A681A44FB7B143311780A4A0D
:10398000D154FB7B0133FB73FB7B042BF1D9074B39
:103990001B7843F01003DAB2044B1A7000BF1437DF
:1039A000BD465DF8047B704798150020BC150020CB
:1039B00080B485B000AF78600023FB730AE0FB7B26
:1039C0007A681A44FB7B193311780A4AD154FB7B7D
:1039D0000133FB73FB7B042BF1D9074B1B7843F0BE
:1039E0002003DAB2044B1A7000BF1437BD465DF8ED
:1039F000047B704798150020BC15002080B485B06A
:103A000000AF78600023FB730AE0FB7B7A681A44FE
:103A1000FB7B1E3311780A4AD154FB7B0133FB73C5
:103A2000FB7B042BF1D9074B1B7843F04003DAB240
:103A3000044B1A7000BF1437BD465DF8047B704715
:103A400098150020BC15002080B582B000AF7860CA
:103A500039607B681A780F4B83F823200E4B1B7854
:103A600063F07F03DAB20C4B1A700B4B1B78FF2B01
:103A70000AD10848FFF7A0FD074B00221A703868EA
:103A800000F00CF8012300E0002318460837BD467B
:103A900080BD00BF98150020BC15002080B582B005
:103AA00000AF7860214B1B68002B3AD01F4B1B687E
:103AB0004FF0FF31184619F0CBF91D4B1A687B689F
:103AC0001A607B6804331A4A52681A607B680833AC
:103AD000174A92681A607B680C33154AD2681A60DC
:103AE0007B681033124A12691A607B681433104ADB
:103AF00052691A607B6818330D4A92691A607B68B4
:103B00001C330B4AD2691A607B682033084A126A58
:103B10001A60064B186800230022002118F056FE98
:103B200000E000BF0837BD4680BD00BF1022002066
:103B30003C02002080B485B000AF786041F60F539E
:103B4000FB817B6802331B7802333B7301237B7359
:103B500016E0FB891B0A9BB27A7B79680A441278CB
:103B600053407B817B890C4A32F813301AB2FB89AF
:103B70001B021BB253401BB2FB817B7B01337B7367
:103B80007A7B3B7B9A42E4D9FB8918461437BD46C1
:103B90005DF8047B704700BFE0BA020880B485B0CE
:103BA00000AF786039607B68FB603B68BB600D4BA1
:103BB00000221A700AE0FB681A780A4B1B785340FF
:103BC000DAB2084B1A70FB680133FB60FA68BB6815
:103BD0009A42F0D3034B1B7818461437BD465DF864
:103BE000047B70471816002080B485B000AF786061
:103BF0000023FB7302E0FB7B0133FB73FB7B7A68E2
:103C000013441B78002BF6D1FB7B18461437BD46B6
:103C10005DF8047B704780B586B000AFB9607B600B
:103C20000346FB731346BB730023BB827B68CD2224
:103C30001A707B680133FA7B1A70BB7B272B01D982
:103C40002723BB737B680233BA7B1A700023FB7592
:103C50000CE0FB7DBA681A44FB7D033319467B6890
:103C60000B4412781A70FB7D0133FB75FA7DBB7B28
:103C70009A42EED37868FFF75DFF0346BB82BB8AAA
:103C80001B0A9AB2BB7B033319467B680B44D2B242
:103C90001A70BB7B04331A467B681344BA8AD2B2CB
:103CA0001A70BB7B05331A467B6813440A221A70CC
:103CB000BB7B06331A467B68134400221A7000BF90
:103CC0001837BD4680BD80B483B000AF034639606D
:103CD000FB713B68CD221A703B680133FA791A7088
:103CE0003B68023300221A703B680333FA791A707A
:103CF0003B680433FA791A703B6805330A221A705C
:103D00003B68063300221A7000BF0C37BD465DF8D1
:103D1000047B704780B582B000AF78600BF08DF8FF
:103D20007B6802331B7806339AB24FF0FF33796811
:103D3000034816F0ADF900BF0837BD4680BD00BF8F
:103D4000D408002080B582B000AF78600BF06EF828
:103D50007B6802331B7806339AB24FF0FF337968E1
:103D6000034816F095F900BF0837BD4680BD00BF77
:103D70008C08002080B58EB000AF03463960FB711F
:103D80003868FFF731FF03461A4607F10803F87950
:103D90003968FFF740FFBB7A06339AB207F1080192
:103DA0004FF0FF33034816F073F900BF3837BD46B4
:103DB00080BD00BF8C08002080B582B000AF786065
:103DC0000B46FB70FB78AB2B08D17B6802331B786A
:103DD000272B03D87868FFF7B5FF0AE0FB78CE2BD6
:103DE00007D17B6802331B78272B02D87868FFF74E
:103DF00091FF00BF0837BD4680BD80B58EB000AFD3
:103E000003460A46FB711346BB7107F10802FB79B2
:103E100011461846FFF757FFBA7907F10803114614
:103E20001846FFF7C9FF00BF3837BD4680BD000008
:103E300080B400AF024B1846BD465DF8047B704766
:103E40007516002080B400AF024B1846BD465DF8E1
:103E5000047B70477416002080B584B000AF786092
:103E60000B46FB7019F0DCFEF8607B685B69FA6852
:103E7000D31AB3F57A7F05D97B6800221A767B685E
:103E800000221A747B681B7C062B00F2808001A242
:103E900052F823F0B13E0008E33E0008F13E00086E
:103EA000213F00084F3F00085D3F00086B3F0008BE
:103EB000FB78AB2B02D0FB78CE2B0ED17B68002297
:103EC0001A767B68FA781A707B6801221A7419F0E6
:103ED000A7FE02467B685A6163E07B6800221A7481
:103EE0005FE07B68FA785A707B6802221A7458E0A7
:103EF0007B68FA789A707B6800225A74FB78002BF2
:103F000003D17B6804221A744BE0FB78272B03D87B
:103F10007B6803221A7444E07B6802221A7640E030
:103F20007B685B7C1A467B681344FA78DA707B689E
:103F30005B7C0133DAB27B685A747B685A7C7B689D
:103F40009B789A422AD37B6804221A7426E07B6805
:103F5000FA785A737B6805221A7422E07B68FA7833
:103F60009A737B6806221A741BE0FB780A2B06D131
:103F70007B6801221A767B68FA78DA7310E07B6836
:103F80001B7E012B0CD07B6802221A7608E07B682E
:103F900002221A767B6800221A7402E000BF00E059
:103FA00000BF00BF1037BD4680BD00BF80B483B0E6
:103FB00000AF78600B46FB707B685B78FA789A42BA
:103FC0000FD17B689B78002B0BD17B685B7BFA78E9
:103FD0009A4206D17B689B7BFA789A4201D10123F1
:103FE00000E0002318460C37BD465DF8047B70479F
:103FF00080B584B000AF78600023FB810023BB81D3
:104000007868FFF797FD0346BB817B685B7B1B02EB
:104010001AB27B689B7B1BB213431BB2FB81FA89EC
:10402000BB899A4201D1012300E0002318461037D2
:10403000BD4680BD80B586B000AFF860B96013465C
:10404000FB71FB681B7E022B09D1BB68FA791A70E1
:10405000BB6800225A70BB6800229A7061E0FF21A1
:10406000F868FFF7A3FF0346012B0DD1FB681A7810
:10407000BB681A70BB68FF225A70BB6800229A7036
:10408000BB680022DA704CE0AA21F868FFF78EFFC7
:104090000346012B0DD1FB681A78BB681A70BB6808
:1040A000AA225A70BB6800229A70BB680022DA709C
:1040B00037E0F868FFF79CFF0346002B28D0FB6829
:1040C0001B78FA799A4223D1FB681A78BB681A7078
:1040D000FB685A78BB685A70FB689A78BB689A701C
:1040E00000237B610DE0FA687B6913440333197880
:1040F000BA687B69134403330A461A707B6901333B
:104100007B61FB689B781A467B699342EBDB08E096
:10411000BB68FA791A70BB6800225A70BB6800222B
:104120009A70FB6800221A76FB6800221A74FB68FA
:1041300000221A7000BF1837BD4680BD80B584B01C
:1041400000AF78603960FF217868FFF72FFF0346E2
:10415000012B0DD17B681A783B681A703B68FF22EF
:104160005A703B6800229A703B680022DA7048E07F
:10417000AA217868FFF71AFF0346012B0DD17B684F
:104180001A783B681A703B68AA225A703B68002272
:104190009A703B680022DA7033E07868FFF728FFF6
:1041A0000346002B23D07B681A783B681A707B6823
:1041B0005A783B685A707B689A783B689A700023FB
:1041C000FB600DE07A68FB681344033319783A68A2
:1041D000FB68134403330A461A70FB680133FB6023
:1041E0007B689B781A46FB689342EBDB09E07B68AF
:1041F0001A783B681A703B6800225A703B680022AC
:104200009A707B6800221A767B6800221A747B6899
:1042100000221A7000BF1037BD4680BD80B582B045
:1042200000AF7860114806F093F90346104A136016
:104230000F4B1B681B0EDAB27B681A700C4B1B68A5
:104240001A0C7B680133D2B21A70094B1B681A0A28
:104250007B680233D2B21A70054B1A687B6803334D
:10426000D2B21A7000BF0837BD4680BD1C220020A4
:10427000A016002080B584B000AF78608C4806F0AE
:1042800067F903468B4A13608A4B1B681B0EDAB230
:104290007B681A70874B1B681A0C7B680133D2B29B
:1042A0001A70844B1B681A0A7B680233D2B21A70E8
:1042B000804B1A687B680333D2B21A707E4B9B8B9B
:1042C0001B0A9AB27B680433D2B21A707A4B9A8B6B
:1042D0007B680533D2B21A70774BDB8B1B0A9AB21C
:1042E0007B680633D2B21A70734BDA8B7B68073364
:1042F000D2B21A70704B1B8C1B0A9AB27B680833BF
:10430000D2B21A706C4B1A8C7B680933D2B21A7015
:10431000694BB3F922301B121AB27B680A33D2B24E
:104320001A70654BB3F922207B680B33D2B21A7036
:10433000614BB3F924301B121AB27B680C33D2B232
:104340001A705D4BB3F924207B680D33D2B21A701A
:10435000594BB3F926301B121AB27B680E33D2B216
:104360001A70554BB3F926207B680F33D2B21A70FE
:10437000514B1B8D1B0A9AB27B681033D2B21A7054
:104380004D4B1A8D7B681133D2B21A704A4B93F899
:104390002A301B015AB2494B93F82A305BB203F022
:1043A0000F035BB213435AB27B681233D2B21A7056
:1043B000424B9B8B1B0A9AB27B681333D2B21A70A2
:1043C0003E4B9A8B7B681433D2B21A703B4BDB8B1B
:1043D0001B0A9AB27B681533D2B21A70374BDA8B4C
:1043E0007B681633D2B21A70344B1B8C1B0A9AB2FC
:1043F0007B681733D2B21A70304B1A8C7B68183333
:10440000D2B21A702D4BB3F922301B121AB27B684C
:104410001933D2B21A70294BB3F922207B681A33B0
:10442000D2B21A70254BB3F924301B121AB27B6832
:104430001B33D2B21A70214BB3F924207B681C3392
:10444000D2B21A701D4BB3F926301B121AB27B6818
:104450001D33D2B21A70194BB3F926207B681E3374
:10446000D2B21A70154B1B8D1B0A9AB27B681F3390
:10447000D2B21A70114B1A8D7B682033D2B21A70E7
:104480000023FB600CE0FB6821331A467B68134471
:104490000B49FA680A4412781A70FB680133FB6012
:1044A000FB68042BEFDD00BF00BF1037BD4680BDA9
:1044B0001C220020A0160020C0150020EC150020B2
:1044C0009416002080B483B000AF78607B684C22E3
:1044D0001A707B68013349221A707B6802334522C7
:1044E0001A707B68033353221A707B6804334522A9
:1044F0001A707B68053332221A707B6806333022CB
:104500001A707B68073332221A707B6808333622B0
:104510001A707B68093341221A707B680A334C2277
:104520001A707B680B3352221A707B680C334D2251
:104530001A707B680D3341221A707B680E33532248
:104540001A707B680F3345221A707B681033432240
:104550001A707B68113336221A707B681233372247
:104560001A707B6813334A221A707B681433432213
:104570001A707B6815334A221A707B681633412201
:104580001A707B68173350221A707B6818337B22AD
:104590001A707B68193341221A707B681A335A22C9
:1045A0001A707B681B33EC221A707B681C33242240
:1045B0001A707B681D334C221A707B681E333322BD
:1045C0001A707B681F334A221A707B682033452299
:1045D0001A707B68213341221A707B682233412292
:1045E0001A707B68233348221A707B682433422276
:1045F0001A707B68253348221A707B682633432261
:104600001A7000BF0C37BD465DF8047B7047000090
:1046100080B582B000AF78603E4805F099FF034650
:104620003D4A13603C4B1B681B0EDAB27B681A7064
:10463000394B1B681A0C7B680133D2B21A70364BA7
:104640001B681A0A7B680233D2B21A70324B1A689E
:104650007B680333D2B21A707B6804332F4A127816
:104660001A702F4B1B881B0A9AB27B680533D2B293
:104670001A702B4B1A887B680633D2B21A70284BFB
:104680005B881B0A9AB27B680733D2B21A70244B3C
:104690005A887B680833D2B21A70214B9B881B0A58
:1046A0009AB27B680933D2B21A701D4B9A887B6824
:1046B0000A33D2B21A701A4BDB881B0A9AB27B6893
:1046C0000B33D2B21A70164BDA887B680C33D2B235
:1046D0001A70134B1B891B0A9AB27B680D33D2B236
:1046E0001A700F4B1A897B680E33D2B21A700C4BBA
:1046F0005B891B0A9AB27B680F33D2B21A70084BDF
:104700005A897B681033D2B21A7000BF0837BD4691
:1047100080BD00BF1C220020A0160020991600209A
:104720005C22002080B582B000AF7860684805F058
:104730000FFF0346674A1360664B1B681B0EDAB215
:104740007B681A70634B1B681A0C7B680133D2B20A
:104750001A70604B1B681A0A7B680233D2B21A7057
:104760005C4B1A687B680333D2B21A707B680433DF
:10477000594A12781A70594B9B691A0E7B68053397
:10478000D2B21A70554B9B691A0C7B680633D2B2B1
:104790001A70524B9B691A0A7B680733D2B21A709F
:1047A0004E4B9A697B680833D2B21A704B4BDB6967
:1047B0001A0E7B680933D2B21A70484BDB691A0CA7
:1047C0007B680A33D2B21A70444BDB691A0A7B68E1
:1047D0000B33D2B21A70414BDA697B680C33D2B218
:1047E0001A703E4BD3E90A014FF000024FF000036C
:1047F0000A0E002379680D31D3B20B70374BD3E921
:104800000A014FF000024FF000030A0C0023796800
:104810000E31D3B20B70314BD3E90A014FF00002D5
:104820004FF000030A0A002379680F31D3B20B70EE
:104830002A4BD3E90A014FF000024FF000030A00AF
:10484000002379681031D3B20B70244BD3E90A01ED
:104850004FF000024FF00003020E42EA01220B0E5D
:1048600079681131D3B20B701C4BD3E90A014FF0B8
:1048700000024FF00003020C42EA01420B0C79687F
:104880001231D3B20B70154BD3E90A014FF000027D
:104890004FF00003020A42EA01620B0A7968133101
:1048A000D3B20B700D4BD3E90A2379681431D3B21C
:1048B0000B707B681533094A92F835201A707B68B3
:1048C0001633054A12781A7000BF0837BD4680BDFE
:1048D0001C220020A0160020991600209819002004
:1048E00090B583B000AF7860674805F031FE0346AD
:1048F000664A1360654B1B681B0EDAB27B681A7040
:10490000624B1B681A0C7B680133D2B21A705F4B82
:104910001B681A0A7B680233D2B21A705B4B1A68A2
:104920007B680333D2B21A707B680433584A12781A
:104930001A707B680533574A12781A707B689C1D81
:1049400001F018FD034623707B68073300221A70BC
:10495000514B1A887B680833D2B21A707B680933CE
:104960004C4A12781A707B6803F10A0401F042FD88
:10497000034623707B680B3300221A70464B1A885B
:104980007B680C33D2B21A707B680D33414A1278BF
:104990001A707B6803F10E0401F00CFD03462370CE
:1049A0007B680F3300221A703B4B1A887B681033E8
:1049B000D2B21A707B681133364A12781A707B684B
:1049C00003F1120401F036FD034623707B681333B4
:1049D00000221A70304B1A887B681433D2B21A70D6
:1049E0007B6815332B4A12781A707B6803F1160422
:1049F00001F05AFD034623707B68173300221A70BA
:104A0000254B1A887B681833D2B21A707B68193329
:104A1000204A12781A707B6803F11A0401F06CFDC9
:104A2000034623707B681B3300221A701A4B1A88C6
:104A30007B681C33D2B21A707B681D33144A12781B
:104A40001A707B681E33124A12781A707B681F3303
:104A50000F4A12781A707B6820330D4A12781A7048
:104A60007B6821330A4A12781A707B682233084A1D
:104A700012781A707B682333054A12781A7000BFC7
:104A80000C37BD4690BD00BF1C220020A0160020A0
:104A9000991600209A1600209C16002080B582B03E
:104AA00000AF7860AD4805F053FD0346AC4A136093
:104AB000AB4B1B681B0EDAB27B681A70A84B1B68E5
:104AC0001A0C7B680133D2B21A70A54B1B681A0A04
:104AD0007B680233D2B21A70A14B1A687B68033329
:104AE000D2B21A709F4B5B681A0E7B680433D2B245
:104AF0001A709C4B5B681A0C7B680533D2B21A7033
:104B0000984B5B681A0A7B680633D2B21A70954BD1
:104B10005A687B680733D2B21A70924B1B691A0E1F
:104B20007B680833D2B21A708E4B1B691A0C7B68F3
:104B30000933D2B21A708B4B1B691A0A7B680A338D
:104B4000D2B21A70874B1A697B680B33D2B21A70D3
:104B5000844B9B681A0E7B680C33D2B21A70814B5F
:104B60009B681A0C7B680D33D2B21A707D4B9B6820
:104B70001A0A7B680E33D2B21A707A4B9A687B6835
:104B80000F33D2B21A70774B9B691A0E7B681033C1
:104B9000D2B21A70734B9B691A0C7B681133D2B274
:104BA0001A70704B9B691A0A7B681233D2B21A7062
:104BB0006C4B9A697B681333D2B21A707B681433DA
:104BC000694A12781A70694B1B881B0A9AB27B6873
:104BD0001533D2B21A70654B1A887B681633D2B27D
:104BE0001A707B681733624A12781A70614B1B88FF
:104BF0001B0A9AB27B681833D2B21A705D4B1A88BE
:104C00007B681933D2B21A705B4BD3E908014FF0BD
:104C100000024FF000030A00002379681A31D3B272
:104C20000B70554BD3E908014FF000024FF0000321
:104C3000020E42EA01220B0E79681B31D3B20B70CF
:104C40004D4BD3E908014FF000024FF00003020C76
:104C500042EA01420B0C79681C31D3B20B70464B0F
:104C6000D3E908014FF000024FF00003020A42EAC4
:104C700001620B0A79681D31D3B20B703E4BD3E948
:104C8000082379681E31D3B20B703C4BD3E906017F
:104C90004FF000024FF000030A00002379681F3133
:104CA000D3B20B70354BD3E906014FF000024FF041
:104CB0000003020E42EA01220B0E79682031D3B2C2
:104CC0000B702E4BD3E906014FF000024FF00003AA
:104CD000020C42EA01420B0C79682131D3B20B700D
:104CE000264BD3E906014FF000024FF00003020A01
:104CF00042EA01620B0A79682231D3B20B701F4B72
:104D0000D3E9062379682331D3B20B707B6824334F
:104D1000144A12781A701A4B1B785AB2194B1B7826
:104D20005B005BB203F002035BB213435AB2164B53
:104D30001B789B005BB203F004035BB213435AB2CF
:104D4000084B1B7FDB005BB203F008035BB213432D
:104D50005AB20E4B1B781B015BB219E01C220020DB
:104D6000A016002080180020F0290020F42900203F
:104D7000F1290020F2290020B8220020202500205F
:104D8000E1210020E021002020190020591C0020F2
:104D900003F010035BB213435AB20F4B1B785B0155
:104DA0005BB203F020035BB213435AB20B4B1B7888
:104DB0009B015BB203F040035BB213435AB27B68C2
:104DC0002533D2B21A707B682633054A12781A70DE
:104DD00000BF0837BD4680BD8B0200208C0200203A
:104DE000581C002080B582B000AF78607D4805F087
:104DF000AFFB03467C4A13607B4B1B681B0EDAB289
:104E00007B681A70784B1B681A0C7B680133D2B22E
:104E10001A70754B1B681A0A7B680233D2B21A707B
:104E2000714B1A687B680333D2B21A706F4B1B68E0
:104E30001A0E7B680433D2B21A706C4B1B681A0CC2
:104E40007B680533D2B21A70684B1B681A0A7B68FC
:104E50000633D2B21A70654B1A687B680733D2B238
:104E60001A70624B5B681A0E7B680833D2B21A70F4
:104E70005E4B5B681A0C7B680933D2B21A705B4BCD
:104E80005B681A0A7B680A33D2B21A70574B5A68A9
:104E90007B680B33D2B21A70554B1B681A0E7B68B5
:104EA0000C33D2B21A70524B1B681A0C7B680D334C
:104EB000D2B21A704E4B1B681A0A7B680E33D2B2FC
:104EC0001A704B4B1A687B680F33D2B21A70484B7A
:104ED0005B681A0E7B681033D2B21A70444B5B6861
:104EE0001A0C7B681133D2B21A70414B5B681A0AF4
:104EF0007B681233D2B21A703D4B5A687B68133309
:104F0000D2B21A703B4B1B681A0E7B681433D2B2B4
:104F10001A70384B1B681A0C7B681533D2B21A70A2
:104F2000344B1B681A0A7B681633D2B21A70314BA5
:104F30001A687B681733D2B21A702E4B5B681A0E50
:104F40007B681833D2B21A702A4B5B681A0C7B68E4
:104F50001933D2B21A70274B5B681A0A7B681A336E
:104F6000D2B21A70234B5A687B681B33D2B21A70C4
:104F7000214B1B681A0E7B681C33D2B21A701E4B71
:104F80001B681A0C7B681D33D2B21A701A4B1B684F
:104F90001A0A7B681E33D2B21A70174B1A687B68E4
:104FA0001F33D2B21A70144B5B681A0E7B68203321
:104FB000D2B21A70104B5B681A0C7B682133D2B2E4
:104FC0001A700D4B5B681A0A7B682233D2B21A70D2
:104FD000094B5A687B682333D2B21A7000BF083776
:104FE000BD4680BD1C220020A0160020CC1600204B
:104FF000BC160020C4160020D416002080B58AB04C
:1050000000AF7860B34B1B684FF0FF31184617F0C4
:105010001FFFB14B1B687B62AE4B18680023002258
:10502000002117F0D3FBAD4B1B681B0EDAB27B6877
:105030001A70AA4B1B681A0C7B680133D2B21A7023
:10504000A64B1B681A0A7B680233D2B21A70A34BB4
:105050001A687B680333D2B21A707B6AD3ED007A88
:105060009FED9F7A67EE877AFDEEE77A17EE903A2A
:105070007B847B6AD3ED017A9FED997A67EE877A1C
:10508000FDEEE77A17EE903A3B847B6AD3ED027A25
:105090009FED937A67EE877AFDEEE77A17EE903A06
:1050A000FB83B7F922301B121AB27B680433D2B2E9
:1050B0001A707B6805337A8CD2B21A70B7F9203037
:1050C0001B121AB27B680633D2B21A707B680733A0
:1050D0003A8CD2B21A70B7F91E301B121AB27B6822
:1050E0000833D2B21A707B680933FA8BD2B21A70C5
:1050F0007C4B1B881B0A9AB27B680A33D2B21A70A7
:10510000784B1A887B680B33D2B21A70754B5B8868
:105110001B0A9AB27B680C33D2B21A70714B5A8850
:105120007B680D33D2B21A706E4B9B881B0A9AB201
:105130007B680E33D2B21A706A4B9A887B680F3341
:10514000D2B21A70674BDB881B0A9AB27B681033A5
:10515000D2B21A70634BDA887B681133D2B21A70FC
:10516000604B1B891B0A9AB27B681233D2B21A7049
:105170005C4B1A897B681333D2B21A70594B5B8926
:105180001B0A9AB27B681433D2B21A70554B5A89F3
:105190007B681533D2B21A70534BD3ED007A9FED72
:1051A000537A67EE877AFDEEE77A17EE903ABB61A5
:1051B0004D4BD3ED017A9FED4D7A67EE877AFDEE88
:1051C000E77A17EE903A7B61BB691A0E7B6816335B
:1051D000D2B21A70BB691A147B681733D2B21A7034
:1051E000BB691A127B681833D2B21A707B68193304
:1051F000BA69D2B21A707B691A0E7B681A33D2B2BE
:105200001A707B691A147B681B33D2B21A707B69DF
:105210001A127B681C33D2B21A707B681D337A690C
:10522000D2B21A70304B93ED027ADFED316AC7EEDD
:10523000267AFCEEE77AC7ED007A3B78FB747B6850
:105240001E33FA7C1A702B4BD3ED047A9FED2A7A29
:1052500067EE877AFDEEE77A17EE903A3B82254BB0
:10526000D3ED057A9FED247A67EE877AFDEEE77A33
:1052700017EE903AFB811F4BD3ED067A9FED1E7A15
:1052800067EE877AFDEEE77A17EE903ABB81194B0D
:10529000D3ED077A9FED187A67EE877AFDEEE77A0D
:1052A00017EE903A7B81B7F910301B121AB27B6867
:1052B0001F33D2B21A707B6820333A8AD2B21A7086
:1052C000B7F90E301B121AB27B682133D2B21A70B2
:1052D0007B6813E01822002060020020A016002046
:1052E00000007A445C2200209819002000247449B0
:1052F00000401C46742200200060EA462233FA89EE
:10530000D2B21A70B7F90C301B121AB27B68233371
:10531000D2B21A707B682433BA89D2B21A70B7F944
:105320000A301B121AB27B682533D2B21A707B681E
:1053300026337A89D2B21A7000BF2837BD4680BDA5
:1053400080B588B000AF7860AE4B1B684FF0FF317E
:10535000184617F07DFDAC4B1B68FB61A94B186824
:1053600000230022002117F031FAA84B1B681B0E06
:10537000DAB27B681A70A54B1B681A0C7B68013384
:10538000D2B21A70A14B1B681A0A7B680233D2B2E0
:105390001A709E4B1A687B680333D2B21A70FB698D
:1053A000B3F922301B121AB27B680433D2B21A70DE
:1053B000FB69B3F922207B680533D2B21A70FB690E
:1053C000B3F924301B121AB27B680633D2B21A70BA
:1053D000FB69B3F924207B680733D2B21A70FB69EA
:1053E000B3F926301B121AB27B680833D2B21A7096
:1053F000FB69B3F926207B680933D2B21A70FB69C6
:10540000D3ED007A9FED827A67EE877AFDEEE77A38
:1054100017EE903A7B83FB69D3ED017A9FED7C7A9E
:1054200067EE877AFDEEE77A17EE903A3B83FB69E9
:10543000D3ED027A9FED767A67EE877AFDEEE77A12
:1054400017EE903AFB82B7F91A301B121AB27B683A
:105450000A33D2B21A707B680B337A8BD2B21A70CD
:10546000B7F918301B121AB27B680C33D2B21A701B
:105470007B680D333A8BD2B21A70B7F916301B1213
:105480001AB27B680E33D2B21A707B680F33FA8A75
:10549000D2B21A705F4B1B881B0A9AB27B6810331A
:1054A000D2B21A705B4B1A887B681133D2B21A7071
:1054B000584B5B881B0A9AB27B681233D2B21A70BF
:1054C000544B5A887B681333D2B21A70514B9B8865
:1054D0001B0A9AB27B681433D2B21A704D4B9A8869
:1054E0007B681533D2B21A704A4BDB881B0A9AB21A
:1054F0007B681633D2B21A70464BDA887B68173352
:10550000D2B21A70434B1B891B0A9AB27B681833BC
:10551000D2B21A703F4B1A897B681933D2B21A7013
:105520003D4BD3ED007A9FED3D7A67EE877AFDEE35
:10553000E77A17EE903A3B61374BD3ED017A9FED56
:10554000377A67EE877AFDEEE77A17EE903AFB60DE
:105550003B691A0E7B681A33D2B21A703B691A146F
:105560007B681B33D2B21A703B691A127B681C33FA
:10557000D2B21A707B681D333A69D2B21A70FB68D6
:105580001A0E7B681E33D2B21A70FB681A147B683D
:105590001F33D2B21A70FB681A127B682033D2B262
:1055A0001A707B682133FA68D2B21A701A4B93EDE5
:1055B000027ADFED1B6AC7EE267A7B682233FCEEA7
:1055C000E77AC7ED007A3A78D2B21A70FB691B8D80
:1055D0001B0A9AB27B682333D2B21A70FB691A8D08
:1055E0007B682433D2B21A707B6825330D4A127857
:1055F0001A707B6826330B4A12781A7000BF203766
:10560000BD4611E01822002060020020A0160020F4
:1056100000007A445C22002098190020002474497C
:1056200000401C469916002080BD00BF80B58CB09C
:1056300000AF7860B24B1B684FF0FF31184617F08F
:1056400007FCB04B1B683B62AD4B1868002300227F
:10565000002117F0BBF8AC4B1B681B0EDAB27B685D
:105660001A70A94B1B681A0C7B680133D2B21A70EE
:10567000A54B1B681A0A7B680233D2B21A70A24B80
:105680001A687B680333D2B21A703B6AD3ED007A92
:105690009FED9E7A67EE877AFDEEE77A17EE903AF5
:1056A000FB833B6AD3ED017A9FED987A67EE877AA8
:1056B000FDEEE77A17EE903ABB833B6AD3ED027AB0
:1056C0009FED927A67EE877AFDEEE77A17EE903AD1
:1056D0007B83B7F91E301B121AB27B680433D2B237
:1056E0001A707B680533FA8BD2B21A70B7F91C3086
:1056F0001B121AB27B680633D2B21A707B6807336A
:10570000BA8BD2B21A70B7F91A301B121AB27B6870
:105710000833D2B21A707B6809337A8BD2B21A700E
:105720007B4B9B891B0A9AB27B680A33D2B21A70F0
:10573000774B9A897B680B33D2B21A70744BDB8932
:105740001B0A9AB27B680C33D2B21A70704BDA899A
:105750007B680D33D2B21A706D4B1B8A1B0A9AB24A
:105760007B680E33D2B21A70694B1A8A7B680F338A
:10577000D2B21A703B6AB3F922301B121AB27B689C
:105780001033D2B21A703B6AB3F922207B6811330E
:10579000D2B21A703B6AB3F924301B121AB27B687A
:1057A0001233D2B21A703B6AB3F924207B681333E8
:1057B000D2B21A703B6AB3F926301B121AB27B6858
:1057C0001433D2B21A703B6AB3F926207B681533C2
:1057D000D2B21A704F4BD3ED007A9FED4F7A67EE3D
:1057E000877AFDEEE77A17EE903A7B61494BD3ED6D
:1057F000017A9FED497A67EE877AFDEEE77A17EE38
:10580000903A3B617B691A0E7B681633D2B21A70EC
:105810007B691A147B681733D2B21A707B691A122B
:105820007B681833D2B21A707B6819337A69D2B2A6
:105830001A703B691A0E7B681A33D2B21A703B6930
:105840001A147B681B33D2B21A703B691A127B6838
:105850001C33D2B21A707B681D333A69D2B21A7007
:105860002C4B93ED027ADFED2D6AC7EE267AFCEE23
:10587000E77AC7ED007A3B78FB737B681E33FA7BCF
:105880001A70274B1B781B015AB2264B1B881B0A28
:105890009BB25BB203F00F035BB213435AB27B6857
:1058A0001F33D2B21A701F4B1A887B682033D2B2D2
:1058B0001A701D4BD3F8A030FB621B4BD3F8A430F9
:1058C000BB62194BD3F8A8307B62174BD3ED277A14
:1058D000F5EEC07AF1EE10FA2AD5D7ED0B7AF1EE9B
:1058E000677AC7ED0B7AD7ED0A7AF1EE677AC7EDE2
:1058F0000A7AD7ED097AF1EE677AC7ED097A17E0EF
:105900001822002060020020A016002000007A4427
:105910005C220020981900200024744900401C4695
:105920000A1C00200C1C0020D41900200060EA464C
:10593000D7ED0B7A1FED037A67EE877AFDEEE77AF3
:1059400017EE903ABB81D7ED0A7A1FED087A67EE21
:10595000877AFDEEE77A17EE903A7B81D7ED097AE8
:105960001FED0E7A67EE877AFDEEE77A17EE903A32
:105970003B81B7F90C301B121AB27B682133D2B2CB
:105980001A707B682233BA89D2B21A70B7F90A301A
:105990001B121AB27B682333D2B21A707B6824338D
:1059A0007A89D2B21A70B7F908301B121AB27B6822
:1059B0002533D2B21A707B6826333A89D2B21A7074
:1059C00000BF3037BD4680BD2DE9B04F9CB002AF5F
:1059D0007860012387F863306F4B7B6600F0D6FB5D
:1059E0006E4804F02FFE02F0EBF807F13C03184676
:1059F000FEF776FF07F13C03184600F0B5FD0346BD
:105A0000002B0DD007F13C031846FEF707FC07F109
:105A10000C0307F13C0104220120FEF7FCF807E02B
:105A200007F10C0307F13C0127220220FEF7F3F8EF
:105A30005B4B1B7883F00103DBB2002B04D007F132
:105A40000C031846FEF77EF97B6E002298469146BD
:105A500042464B464FF000004FF00001590141EA29
:105A6000D261500102460B46B2EB080463EB090514
:105A70004FF000024FF00003AB0043EA9473A20022
:105A800014461D4614EB080A45EB090B4FF00002C3
:105A90004FF000034FEACB0343EA5A734FEACA02BE
:105AA00092469B46504659464FF47A724FF0000397
:105AB000FBF74AF902460B4607F1080300924FF044
:105AC000FF320021002019F073F80346012B2AD180
:105AD000BB6803F00103002B02D0324B01221A7085
