:020000040800F2
:1000000000000220892D0008B92A0008C12A000832
:10001000C92A0008D12A0008D92A000800000000D7
:10002000000000000000000000000000A1E0010846
:10003000E12A00080000000091E30108F9E301084B
:10004000D92D0008D92D0008D92D0008D92D000878
:10005000D92D0008D92D0008D92D0008D92D000868
:10006000EF2A0008D92D0008D92D0008FD2A000824
:10007000D92D0008D92D0008D92D0008D92D000848
:10008000112B0008D92D0008D92D0008D92D000802
:10009000D92D0008D92D0008D92D0008D92D000828
:1000A000D92D0008D92D0008D92D0008D92D000818
:1000B000D92D0008D92D0008D92D0008D92D000808
:1000C000D92D0008D92D0008D92D0008D92D0008F8
:1000D000D92D0008D92D0008D92D0008252B00089E
:1000E000D92D0008392B0008D92D0008D92D00087A
:1000F000D92D0008D92D0008D92D0008D92D0008C8
:10010000D92D00084D2B0008D92D0008612B0008BF
:10011000752B0008D92D0008D92D0008892B00085F
:10012000D92D0008D92D0008D92D00089D2B0008D5
:10013000D92D0008D92D0008D92D0008D92D000887
:10014000D92D0008D92D0008D92D0008D92D000877
:10015000D92D0008B12B0008D92D0008C52B0008A7
:10016000D92D0008D92D0008D92D0008D92D000857
:10017000D92D0008D92D0008D92D00080000000055
:08018000D92D0008D92D00085B
:1001900010B5054C237833B9044B13B10448AFF3C1
:1001A00000800123237010BDD00400200000000057
:1001B000F8A1020808B5034B1BB103490348AFF38C
:1001C000008008BD00000000D4040020F8A102084F
:1001D00010F8012B11F8013B012A28BF9A42F7D0F1
:1001E000D01A7047034613F8012B002AFBD1181AC6
:1001F000013870470000000000000000000000000F
:1002000001F0FF01102A2BDB10F0070F08D010F8C7
:10021000013B013A8B422DD010F0070F42B3F6D1CB
:10022000F0B441EA012141EA014122F007047FF0E4
:1002300000070023F0E80256083C85EA010586EA3B
:10024000010685FA47F5A3FA87F586FA47F6A5FA77
:1002500087F68EB9EED1F0BC01F0FF0102F0070283
:1002600032B110F8013B013A83EA010313B1F8D12E
:100270000020704701387047002D06BF354603380F
:10028000073815F0010F07D1013015F4807F02BF48
:10029000013015F4C03F0130F0BC0138704700BF99
:1002A00081F0004102E000BF83F0004330B54FEA27
:1002B00041044FEA430594EA050F08BF90EA020F94
:1002C0001FBF54EA000C55EA020C7FEA645C7FEA27
:1002D000655C00F0E2804FEA5454D4EB5555B8BF4A
:1002E0006D420CDD2C4480EA020281EA030382EABB
:1002F000000083EA010180EA020281EA0303362D4D
:1003000088BF30BD11F0004F4FEA01314FF4801C1F
:100310004CEA113102D0404261EB410113F0004F31
:100320004FEA03334CEA133302D0524263EB4303E8
:1003300094EA050F00F0A780A4F10104D5F1200E86
:100340000DDB02FA0EFC22FA05F2801841F10001E1
:1003500003FA0EF2801843FA05F359410EE0A5F1B5
:1003600020050EF1200E012A03FA0EFC28BF4CF0E6
:10037000020C43FA05F3C01851EBE37101F000459C
:1003800007D54FF0000EDCF1000C7EEB00006EEBA9
:100390000101B1F5801F1BD3B1F5001F0CD3490833
:1003A0005FEA30004FEA3C0C04F101044FEA44528A
:1003B00012F5800F80F09A80BCF1004F08BF5FEA11
:1003C000500C50F1000041EB045141EA050130BDF1
:1003D0005FEA4C0C404141EB0101013C28BFB1F503
:1003E000801FE9D291F0000F04BF01460020B1FA4E
:1003F00081F308BF2033A3F10B03B3F120020CDA21
:100400000C3208DD02F1140CC2F10C0201FA0CF0FE
:1004100021FA02F10CE002F11402D8BFC2F1200C63
:1004200001FA02F120FA0CFCDCBF41EA0C01904019
:10043000E41AA2BF01EB0451294330BD6FEA040462
:100440001F3C1CDA0C340EDC04F11404C4F120024D
:1004500020FA04F001FA02F340EA030021FA04F35F
:1004600045EA030130BDC4F10C04C4F1200220FAB6
:1004700002F001FA04F340EA0300294630BD21FAF4
:1004800004F0294630BD94F0000F83F4801306BFBA
:1004900081F480110134013D4EE77FEA645C18BFAE
:1004A0007FEA655C29D094EA050F08BF90EA020F45
:1004B00005D054EA000C04BF1946104630BD91EA3D
:1004C000030F1EBF0021002030BD5FEA545C05D140
:1004D0004000494128BF41F0004130BD14F580047F
:1004E0003CBF01F5801130BD01F0004545F0FE41F3
:1004F00041F470014FF0000030BD7FEA645C1ABF28
:10050000194610467FEA655C1CBF0B46024650EA5E
:10051000013406BF52EA033591EA030F41F400218A
:1005200030BD00BF90F0000F04BF0021704730B510
:100530004FF4806404F132044FF000054FF00001E5
:1005400050E700BF90F0000F04BF0021704730B5A6
:100550004FF4806404F1320410F0004548BF40427B
:100560004FF000013EE700BF42004FEAE2014FEAD0
:1005700031014FEA02701FBF12F07F4393F07F4FAB
:1005800081F06051704732F07F4208BF704793F0AE
:100590007F4F04BF41F40021704730B54FF46074C1
:1005A00001F0004521F000411CE700BF50EA0102C4
:1005B00008BF704730B54FF000050AE050EA01026D
:1005C00008BF704730B511F0004502D5404261EBDD
:1005D00041014FF4806404F132045FEA915C3FF41E
:1005E000D8AE4FF003025FEADC0C18BF03325FEABB
:1005F000DC0C18BF033202EBDC02C2F1200300FA6C
:1006000003FC20FA02F001FA03FE40EA0E0021FA90
:1006100002F11444BDE600BF70B54FF0FF0C4CF47E
:10062000E06C1CEA11541DBF1CEA135594EA0C0F30
:1006300095EA0C0F00F0DEF82C4481EA030621EA6B
:100640004C5123EA4C5350EA013518BF52EA0335A6
:1006500041F4801143F4801338D0A0FB02CE4FF058
:100660000005E1FB02E506F00042E0FB03E54FF088
:100670000006E1FB03569CF0000F18BF4EF0010E80
:10068000A4F1FF04B6F5007F64F5407404D25FEA7C
:100690004E0E6D4146EB060642EAC62141EA55512F
:1006A0004FEAC52040EA5E504FEACE2EB4F1FD0C71
:1006B00088BFBCF5E06F1ED8BEF1004F08BF5FEAEF
:1006C000500E50F1000041EB045170BD06F00046A1
:1006D00046EA010140EA020081EA0301B4EB5C044E
:1006E000C2BFD4EB0C0541EA045170BD41F4801146
:1006F0004FF0000E013C00F3AB8014F1360FDEBF6B
:10070000002001F0004170BDC4F10004203C35DA46
:100710000C341BDC04F11404C4F1200500FA05F3C9
:1007200020FA04F001FA05F240EA020001F000426A
:1007300021F0004110EBD37021FA04F642EB0601E0
:100740005EEA430E08BF20EAD37070BDC4F10C040A
:10075000C4F1200500FA04F320FA05F001FA04F2CE
:1007600040EA020001F0004110EBD37041F10001BA
:100770005EEA430E08BF20EAD37070BDC4F12005C5
:1007800000FA05F24EEA020E20FA04F301FA05F22D
:1007900043EA020321FA04F001F0004121FA04F2D5
:1007A00020EA020000EBD3705EEA430E08BF20EAA5
:1007B000D37070BD94F0000F0FD101F000464000DF
:1007C00041EB010111F4801F08BF013CF7D041EA61
:1007D000060195F0000F18BF704703F00046520065
:1007E00043EB030313F4801F08BF013DF7D043EA36
:1007F0000603704794EA0C0F0CEA135518BF95EAEC
:100800000C0F0CD050EA410618BF52EA4306D1D172
:1008100081EA030101F000414FF0000070BD50EA91
:10082000410606BF1046194652EA430619D094EA1B
:100830000C0F02D150EA013613D195EA0C0F05D105
:1008400052EA03361CBF104619460AD181EA030159
:1008500001F0004141F0FE4141F470014FF0000011
:1008600070BD41F0FE4141F4780170BD70B54FF0AC
:10087000FF0C4CF4E06C1CEA11541DBF1CEA13552C
:1008800094EA0C0F95EA0C0F00F0A7F8A4EB05040E
:1008900081EA030E52EA03354FEA013100F0888005
:1008A0004FEA03334FF0805545EA131343EA1263CE
:1008B0004FEA022245EA111545EA10654FEA002683
:1008C0000EF000419D4208BF964244F1FD0404F53C
:1008D000407402D25B084FEA3202B61A65EB030598
:1008E0005B084FEA32024FF480104FF4002CB6EB55
:1008F000020E75EB030E22BFB61A754640EA0C00D5
:100900005B084FEA3202B6EB020E75EB030E22BF14
:10091000B61A754640EA5C005B084FEA3202B6EB55
:10092000020E75EB030E22BFB61A754640EA9C0014
:100930005B084FEA3202B6EB020E75EB030E22BFE4
:10094000B61A754640EADC0055EA060E18D04FEAA2
:10095000051545EA16754FEA06164FEAC30343EA42
:1009600052734FEAC2025FEA1C1CC0D111F4801F0F
:100970000BD141EA00014FF000004FF0004CB6E708
:1009800011F4801F04BF01430020B4F1FD0C88BFA7
:10099000BCF5E06F3FF6AFAEB5EB030C04BFB6EBB2
:1009A000020C5FEA500C50F1000041EB045170BDA5
:1009B0000EF0004E4EEA113114EB5C04C2BFD4EBD2
:1009C0000C0541EA045170BD41F480114FF0000E56
:1009D000013C90E645EA060E8DE60CEA135594EAD2
:1009E0000C0F08BF95EA0C0F3FF43BAF94EA0C0FD5
:1009F0000AD150EA01347FF434AF95EA0C0F7FF44A
:100A000025AF104619462CE795EA0C0F06D152EA9D
:100A100003353FF4FDAE1046194622E750EA410681
:100A200018BF52EA43067FF4C5AE50EA41047FF492
:100A30000DAF52EA43057FF4EBAE12E74FF0FF3CF7
:100A400006E000BF4FF0010C02E000BF4FF0010CC8
:100A50004DF804CD4FEA410C7FEA6C5C4FEA430C41
:100A600018BF7FEA6C5C1BD001B050EA410C0CBF90
:100A700052EA430C91EA030F02BF90EA020F0020F2
:100A8000704710F1000F91EA030F58BF994208BF59
:100A900090422CBFD8176FEAE37040F00100704716
:100AA0004FEA410C7FEA6C5C02D150EA013C07D16D
:100AB0004FEA430C7FEA6C5CD6D152EA033CD3D0B8
:100AC0005DF8040B704700BF8446104662468C46B2
:100AD0001946634600E000BF01B5FFF7B7FF0028E5
:100AE00048BF10F1000F01BD4DF808EDFFF7F4FF0E
:100AF0000CBF012000205DF808FB00BF4DF808ED99
:100B0000FFF7EAFF34BF012000205DF808FB00BFBB
:100B10004DF808EDFFF7E0FF94BF012000205DF8DD
:100B200008FB00BF4DF808EDFFF7CEFF94BF012092
:100B300000205DF808FB00BF4DF808EDFFF7C4FF8B
:100B400034BF012000205DF808FB00BF4FEA410CD4
:100B50007FEA6C5C02D150EA013C0AD14FEA430CB7
:100B60007FEA6C5C02D152EA033C02D14FF00000F4
:100B700070474FF0010070474FEA410212F5001232
:100B800015D211D56FF47873B3EB625212D94FEAD4
:100B9000C12343F0004343EA505311F0004F23FABE
:100BA00002F018BF404270474FF00000704750EA13
:100BB000013005D111F0004008BF6FF000407047D0
:100BC0004FF00000704700BF4A0011D212F500122A
:100BD00011D20DD56FF47873B3EB62520ED44FEA95
:100BE000C12343F0004343EA505323FA02F0704715
:100BF0004FF00000704750EA013002D14FF0FF3053
:100C000070474FF0000070474FEA4102B2F1E043F5
:100C100024BFB3F5001CDCF1FE5C0DD901F0004CE3
:100C20004FEAC0024CEA5070B2F1004F40EB830033
:100C300008BF20F00100704711F0804F21D113F15F
:100C40003872BCBF01F00040704741F480114FEA98
:100C50005252C2F11802C2F1200C10FA0CF320FA21
:100C600002F018BF40F001004FEAC1234FEAD3233E
:100C700003FA0CFC40EA0C0023FA02F34FEA4303A8
:100C8000CCE77FEA625307D150EA01331EBF4FF031
:100C9000FE4040F44000704701F0004040F0FE404C
:100CA00040F40000704700BF7BB972B90029BEBF95
:100CB00000204FF0004106E008BF00281CBF6FF085
:100CC00000414FF0FF3000F009BAADF1080C6DE9BA
:100CD00004CE002909DB002B1ADB00F083F8DDF8D5
:100CE00004E0DDE9022304B07047404261EB4101BA
:100CF000002B1BDB00F076F8DDF804E0DDE90223D1
:100D000004B0404261EB4101524263EB4303704740
:100D1000524263EB430300F065F8DDF804E0DDE9DF
:100D2000022304B0404261EB41017047524263EB41
:100D3000430300F057F8DDF804E0DDE9022304B0D6
:100D4000524263EB4303704753B94AB9002908BFC5
:100D500000281CBF4FF0FF314FF0FF3000F0BEB94C
:100D6000ADF1080C6DE904CE00F03CF8DDF804E0CC
:100D7000DDE9022304B0704738B5002200230446A1
:100D80000D46FFF7BBFE28B920462946BDE838408E
:100D900000F00AB8204605F1004100F005F8404295
:100DA00061EB410138BD00BFD0B50C4B00220646B7
:100DB0000F46FFF731FCFFF707FF0446FFF7B2FBD2
:100DC000074B0022FFF728FC02460B463046394607
:100DD000FFF76AFAFFF7F8FE2146D0BD0000F03DAC
:100DE0000000F0412DE9F047089D8E4604468846F4
:100DF000002B4AD18A42174662D9B2FA82F64EB126
:100E0000C6F1200301FA06F820FA03F3B74043EADB
:100E10000808B4404FEA174E1FFA87FCB8FBFEF1F2
:100E2000230C0EFB118843EA084301FB0CF29A42A3
:100E300009D9FB1801F1FF3080F0EA809A4240F2B4
:100E4000E78002393B449A1AA3B2B2FBFEF00EFBD4
:100E5000102243EA024300FB0CFC9C4509D9FB1815
:100E600000F1FF3280F0D6809C4540F2D3803B44B5
:100E7000023840EA0140A3EB0C0300211DB1F3400E
:100E80000022C5E90032BDE8F0878B4205D90DB1DB
:100E9000C5E9000100210846F5E7B3FA83F100290E
:100EA00046D1734502D3824200F20581841A6EEB6B
:100EB000030201209046002DE5D0C5E90048E2E795
:100EC000002A00F09080B2FA82F6002E40F0A48052
:100ED0008A1A030C4FEA174E80B2BCB20121B2FB52
:100EE000FEFC0EFB1C2243EA024304FB0CF29A4276
:100EF00007D9FB180CF1FF3802D29A4200F2E080C9
:100F0000C4469B1AB3FBFEF20EFB123340EA0343C6
:100F100002FB04F49C4207D9FB1802F1FF3002D215
:100F20009C4200F2CA8002461B1B42EA0C40A5E725
:100F3000C1F120068B4022FA06F71F430EFA01F496
:100F400020FA06F32EFA06FE4FEA1749234300FA69
:100F500001F81FFA87FCBEFBF9F01C0C09FB10EE30
:100F600044EA0E4400FB0CFEA64502FA01F209D940
:100F70003C1900F1FF3A80F09C80A64540F2998030
:100F800002383C44A4EB0E041FFA83FEB4FBF9F3D1
:100F900009FB13444EEA044403FB0CFCA44508D9A6
:100FA0003C1903F1FF3E80F08280A4457FD9023BCB
:100FB0003C4443EA0040A4EB0C04A0FB02EC644573
:100FC0007346E14662D35FD05DB1B8EB030264EBD8
:100FD000090404FA06F622FA01F31E43CC40C5E9DF
:100FE000006400214FE7B1FBF2FC010C41EA0E4125
:100FF00080B240EA01423B4638463C46B846BE46CF
:101000002026B1FBF7F1A2EB080241EA0C4166E7AA
:10101000014618E710462CE7C6F120022EFA02F32B
:10102000B740B14020FA02F24FEA174E0A43B3FB31
:10103000FEF8BCB20EFB1833110C41EA034108FB69
:1010400004F9B04089454FEA104380B23ED979187F
:1010500008F1FF3C01D289451FD8A1EB0901B1FB82
:10106000FEF909FB04F80EFB191192B242EA0142A3
:10107000424529D2BA1809F1FF31C4D24245C2D241
:10108000A9F102013A44BEE7F0459DD2BEEB02034E
:101090006CEB070C0138E14696E7A7EB09094944D8
:1010A000A8F1020CB1FBFEF909FB04F8DBE773467B
:1010B0007FE7504666E70846FDE63B44023A33E7E1
:1010C000ACF1020C3B441CE749469CE7A1EB09014B
:1010D000C446B1FBFEF909FB04F8C4E7704700BF42
:1010E00080B584B004AF10F065FA00F077F900F035
:1010F00031FC00F0E9FB00F011FD00F0EDF900F02B
:1011000019FA00F045FA00F007FB00F027FB00F0A9
:101110005BFB00F0AFFB19F06FF900F067FA00F02D
:101120007DFB00F0C5F9642000F0D4FD07F0D6FB8C
:1011300002F038FC0346012219466F4817F0C9FB3C
:1011400002F026FC0346012219466C4817F0C1FB49
:101150000021002002F0C4FB00F038FF06F0F2F896
:10116000674B1B7842F6D0721946664825F0B3FCEF
:1011700064220021644825F0AEFC6422002163480B
:1011800025F0A9FC624B0293624B01930323009369
:1011900000234FF44072604960481AF01CFD03467A
:1011A0005F4A13605F4B02935F4B019303230093ED
:1011B00000234FF440725D495D481AF00CFD034670
:1011C0005C4A13605C4B02935C4B019303230093D6
:1011D00000234FF440725A495A481AF0FCFC034667
:1011E000594A1360594B0293594B019303230093BF
:1011F00000234FF4A062574957481AF0ECFC03460D
:10120000564A1360564B0293564B019303230093A7
:1012100000234FF44072544954481AF0DCFC034652
:10122000534A1360534B0293534B01930323009390
:1012300000234FF44072514951481AF0CCFC034648
:10124000504A1360504B01930123009300234FF445
:1012500040724E494E481AF022FD4E4B0193022334
:10126000009300234FF410624B494C481AF017FDCD
:101270004B4B01930223009300234FF41062494922
:1012800049481AF00CFD494B0193022300930023B7
:101290004FF40072464947481AF001FD464B01934E
:1012A0000223009300234FF44072444944481AF04B
:1012B000F6FC444B01930223009300234FF4007289
:1012C000414942481AF0EBFC414B01930123009342
:1012D00000234FF4A0623F493F481AF0E0FC04F0BD
:1012E00059FB234B1B68184607F042FB07F054FFDD
:1012F0001AF04AFF00BFFDE7B40800206C08002088
:1013000082020020007D0064CC16002030170020EF
:10131000A0100010A004001010A202084D9D0008AB
:1013200084210020401D00104011001018A2020866
:10133000FD7F000818190020E0290010E01D0010B2
:1013400024A20208114F000820160020803E001041
:10135000802A001030A20208B5D3000820290020FE
:10136000204B0010203F001038A2020829C60008B8
:10137000B4210020C0570010C04B001040A202084A
:10138000E98700085C1B0020EC1B00204CA202082F
:101390002D8C0008E01B002054A20208118B0008CD
:1013A000E41B00205CA2020891890008482100206B
:1013B00064A20208459700084C21002068A2020898
:1013C000BD980008442100206CA20208799500080D
:1013D000E81B002074A202082D50000880B594B0CC
:1013E00000AF07F1200330220021184625F073FBDF
:1013F00007F10C0300221A605A609A60DA601A61E1
:101400000023BB60284B1B6C274A43F080531364B6
:10141000254B1B6C03F08053BB60BB6800237B60D3
:10142000224B1B68214A43F4804313601F4B1B6807
:1014300003F480437B607B680A233B620123FB62E9
:1014400010233B6301237B630223BB630023FB6305
:1014500008233B6454237B640223BB640423FB64A2
:1014600007F12003184613F023F90346002B01D09F
:1014700000F01AFE0F23FB6002233B6180237B6197
:101480000023BB610023FB6107F10C030121184617
:1014900013F086FB0346002B01D000F005FE00BFD1
:1014A0005037BD4680BD00BF00380240007000408C
:1014B00080B500AF064B074A1A60054810F0C4F922
:1014C0000346002B01D000F0EFFD00BF80BD00BF40
:1014D000EC0400200030024080B500AF124B134AEC
:1014E0001A60114B124A5A600F4B00229A600E4B41
:1014F0000022DA600C4B4FF480421A610A4B002242
:101500005A61094B00229A61074B0022DA61064BAF
:1015100000221A62044811F027FC0346002B01D078
:1015200000F0C2FD00BF80BDF40400200054004064
:10153000A086010080B500AF124B134A1A60114B10
:10154000124A5A600F4B00229A600E4B0022DA605A
:101550000C4B4FF480421A610A4B00225A61094B2E
:1015600000229A61074B0022DA61064B00221A62C0
:10157000044811F0F9FB0346002B01D000F094FD64
:1015800000BF80BD4805002000580040A086010033
:1015900080B500AF124B134A1A60114B124A5A60C1
:1015A0000F4B00229A600E4B0022DA600C4B4FF476
:1015B00080421A610A4B00225A61094B00229A614B
:1015C000074B0022DA61064B00221A62044811F030
:1015D000CBFB0346002B01D000F066FD00BF80BDB1
:1015E0009C050020005C0040A086010080B590B002
:1015F00000AF07F12C0300221A605A609A60DA608B
:101600001A610023BB623B4628220021184625F0C0
:1016100062FA3F4B3F4A1A603D4B00225A603C4BF6
:101620007F229A603A4BFF22DA60394B00221A611E
:10163000374B00225A61364B00229A61344813F02E
:10164000A3FD0346002B01D000F02EFD002387F8F8
:101650002C30002387F82D30002387F82E3000230C
:10166000BB630023FB6307F12C03012219462848C2
:1016700013F00DFE0346002B01D000F015FD0223F0
:1016800087F82830042387F82930282387F82A3060
:10169000252387F82B3007F12803012219461C481F
:1016A00013F0EDFE0346002B01D000F0FDFC0023FB
:1016B0003B7001237B700023BB7000237B60002301
:1016C000FB6000233B614FF000437B610023BB6163
:1016D0000023FB61012387F820304FF480737B6285
:1016E0003B46012219460A4813F09CFF0346002B93
:1016F00001D000F0D9FC00220521292010F06CF85F
:10170000292010F085F800BF4037BD4680BD00BFDE
:10171000F00500200028004080B400AF0D4B0E4AB9
:101720001A600C4B00225A600A4B00229A60094B47
:101730000022DA60074B00221A61064B4FF4804208
:101740005A61044B04229A6100BFBD465DF8047BD8
:10175000704700BF10060020002C014080B500AF8C
:10176000174B184A1A60164B4FF482725A60144B8A
:1017700000229A60124B0022DA60114B00221A619B
:101780000F4B00225A610E4B4FF400729A610C4BC2
:101790001022DA610A4B00221A62094B00225A62B7
:1017A000074B00229A62064B0A22DA62044815F0BF
:1017B000F4FB0346002B01D000F076FC00BF80BD97
:1017C00054070020003C004080B500AF114B124A86
:1017D0001A60104B4FF416525A600E4B00229A605A
:1017E0000C4B0022DA600B4B00221A61094B0C22D1
:1017F0005A61084B00229A61064B0022DA610548C3
:1018000016F08CFF0346002B01D000F04DFC00BF0A
:1018100080BD00BF6C080020004C004080B500AFC8
:10182000124B134A1A60114B4FF4E1325A600F4BBE
:101830004FF480529A600D4B0022DA600B4B4FF44C
:1018400080621A61094B0C225A61084B00229A618E
:10185000064B0022DA61054816F060FF0346002BB4
:1018600001D000F021FC00BF80BD00BFB408002003
:101870000048004080B500AF114B124A1A60104B6F
:101880004FF4E1325A600E4B00229A600C4B00225A
:10189000DA600B4B00221A61094B0C225A61084B8B
:1018A00000229A61064B0022DA61054816F036FFE5
:1018B0000346002B01D000F0F7FB00BF80BD00BF46
:1018C000FC0800200014014080B582B000AF002366
:1018D0007B601F4B1B6B1E4A43F4800313631C4B3E
:1018E0001B6B03F480037B607B6800233B60184B19
:1018F0001B6B174A43F400131363154B1B6B03F464
:1019000000133B603B68002205210B200FF064FFB1
:101910000B200FF07DFF0022052110200FF05CFF4F
:1019200010200FF075FF002205213B200FF054FF1F
:101930003B200FF06DFF0022052145200FF04CFFEA
:1019400045200FF065FF00BF0837BD4680BD00BFD2
:101950000038024080B58EB000AF07F124030022AA
:101960001A605A609A60DA601A6100233B62664B23
:101970001B6B654A43F004031363634B1B6B03F05B
:1019800004033B623B6A0023FB615F4B1B6B5E4AB7
:1019900043F0200313635C4B1B6B03F02003FB61DC
:1019A000FB690023BB61584B1B6B574A43F0800314
:1019B0001363554B1B6B03F08003BB61BB690023B2
:1019C0007B61514B1B6B504A43F0010313634E4B39
:1019D0001B6B03F001037B617B6900233B614A4B76
:1019E0001B6B494A43F002031363474B1B6B03F025
:1019F00002033B613B690023FB60434B1B6B424A84
:101A000043F040031363404B1B6B03F04003FB6048
:101A1000FB680023BB603C4B1B6B3B4A43F010034D
:101A20001363394B1B6B03F01003BB60BB680023CF
:101A30007B60354B1B6B344A43F008031363324B16
:101A40001B6B03F008037B607B68002242F23021AD
:101A50002E4811F031F900224FF440412C4811F08A
:101A60002BF942F230237B620123BB620023FB622D
:101A700000233B6307F124031946244810F06CFE51
:101A800004237B624FF48813BB620023FB6207F1DF
:101A9000240319461F4810F05FFE4FF400737B6269
:101AA0004FF48813BB620023FB6207F1240319463D
:101AB000174810F051FE4FF480737B620023BB6225
:101AC0000023FB6207F124031946134810F044FE7B
:101AD0004FF440437B620123BB620023FB6200237F
:101AE0003B6307F124031946094810F035FE002234
:101AF000002108200FF070FE08200FF089FE00BFC3
:101B00003837BD4680BD00BF0038024000080240A3
:101B1000001C0240000402400018024080B588B05A
:101B200000AF3B1D00221A605A609A60DA601A61A9
:101B30005A619A614C4B4FF020421A604A4B4B4A13
:101B40005A60494B00229A60474B0022DA60464BAC
:101B500000221A61444B10225A61434B00229A61C1
:101B6000414B0022DA61404B00221A623E4B0022B8
:101B70005A623D4B4FF480529A623B4B0022DA622C
:101B8000394B00221A63384B00225A63364B00222D
:101B90009A63354B00225A640F237B600F23BB608E
:101BA000FF23FB600F233B6110237B611123BB618B
:101BB0000023FB613B1D002219462B4816F0C4FA96
:101BC0000346002B01D000F06FFA294B4FF0204262
:101BD0001A60274B254A5A60254B02229A60244BF3
:101BE0000022DA60224B00221A61214B10225A6136
:101BF0001F4B00229A611E4B0022DA611C4B00220F
:101C00001A621B4B00225A62194B4FF480529A629F
:101C1000174B0022DA62164B00221A63144B002283
:101C20005A63134B00229A63114B00225A640F230C
:101C30007B600F23BB60FF23FB600F233B611023FE
:101C40007B611123BB610023FB613B1D0022194610
:101C5000074816F079FA0346002B01D000F024FA69
:101C600000BF2037BD4680BD44090020040100A00C
:101C70009409002080B485B000AF78607B681B6851
:101C8000064A934203D17B685B6DFB6000BF00BFD7
:101C90001437BD465DF8047B704700BF003C004030
:101CA00080B582B000AF1BF0CFF80346012B09D0FE
:101CB000EFF305837B607B68002B03D11AF0C8FB30
:101CC000034601E0024B1B6818460837BD4680BD3D
:101CD000302900202DE9B04F86B000AF78601BF0AE
:101CE000B3F80346012B42D0EFF30583FB60FB689A
:101CF000002B3CD17B6800229846914642464B46D9
:101D00004FF000004FF00001590141EAD26150014B
:101D100002460B46B2EB080463EB09054FF00002E4
:101D20004FF00003AB0043EA9473A20014461D4633
:101D300014EB080A45EB090B4FF000024FF00003CB
:101D40004FEACB0343EA5A734FEACA0292469B46D4
:101D5000504659464FF47A724FF00003FEF7F4FFF5
:101D600002460B46134618461AF070F918E0FFF7C2
:101D700097FF38617B687B617B69B3F1FF3F05D0DA
:101D80000A4B1B781A467B6913447B6100BFFFF73F
:101D900087FF02463B69D31A7A699A42F7D800BF97
:101DA00000BF1837BD46BDE8B08F00BFA0020020BD
:101DB00080B582B000AF00237B600B4B1B683A1DDF
:101DC0001146184619F050FA7B68002B07D0074BD4
:101DD0004FF080521A60BFF34F8FBFF36F8F00BF79
:101DE0000837BD4680BD00BF1421002004ED00E08F
:101DF00080B582B000AF00237B600B4B1B683A1D9F
:101E00001146184619F030FA7B68002B07D0074BB3
:101E10004FF080521A60BFF34F8FBFF36F8F00BF38
:101E20000837BD4680BD00BF1021002004ED00E052
:101E300080B584B000AF78600023FB607B681B68CE
:101E40000C4A934212D10C4B1B6807F10C0211464D
:101E5000184619F009FAFB68002B07D0074B4FF022
:101E600080521A60BFF34F8FBFF36F8F00BF1037E0
:101E7000BD4680BD003C00401821002004ED00E07C
:101E800080B584B000AF78600023BB607B681B68BE
:101E90003E4A934221D101F085FD03461B78FB7336
:101EA0003B4B186807F1080207F10F01002319F0F6
:101EB00025F9BB68002B07D0364B4FF080521A60D3
:101EC000BFF34F8FBFF36F8F01F06CFD034601220C
:101ED0001946314816F0FDFC4CE07B681B682F4A20
:101EE000934221D101F054FD03461B78FB732C4B28
:101EF000186807F1080207F10F01002319F0FEF836
:101F0000BB68002B07D0234B4FF080521A60BFF301
:101F10004F8FBFF36F8F01F03BFD0346012219463F
:101F2000204816F0D6FC25E07B681B681E4A9342C9
:101F300020D105F027FA03461B78FB731B4B18686A
:101F400007F1080207F10F01002319F0D7F8BB6869
:101F5000002B07D00F4B4FF080521A60BFF34F8F0A
:101F6000BFF36F8F05F00EFA0346012219461048A1
:101F700016F0AFFC0F4B1B6807F108020021184652
:101F80001BF0E8FB00BF1037BD4680BD0048004095
:101F9000601B002004ED00E0B4080020004C00406D
:101FA000641B00206C08002000140140681B002006
:101FB000FC0800202029002080B483B000AF7860A6
:101FC00000BF0C37BD465DF8047B704780B400AF9E
:101FD000114B1B68104A23F4405313600E4B1B68CF
:101FE0000D4A43F4805313600B4B5B680A4A23F09D
:101FF00040035360084B9B68074A23F440539360A7
:10200000054BDB68044A23F44053D36000BFBD4650
:102010005DF8047B704700BF0008024080B485B0C3
:1020200000AFF860B9607A60FB68074A1A60BB6865
:10203000064A1A607B684FF480721A6000BF14373A
:10204000BD465DF8047B7047E4090020840A002047
:1020500080B485B000AFF860B9607A60FB68074A69
:102060001A60BB68064A1A607B684FF4C0721A6037
:1020700000BF1437BD465DF8047B7047840E002016
:10208000240F002080B582B000AF78607B681B68A9
:10209000044A934201D10FF0AFFA00BF0837BD46A2
:1020A00080BD00BF0014004080B400AF72B600BF16
:1020B00000BFFDE780B483B000AF00237B60104B0E
:1020C0005B6C0F4A43F4804353640D4B5B6C03F429
:1020D00080437B607B6800233B60094B1B6C084A94
:1020E00043F080531364064B1B6C03F080533B603A
:1020F0003B6800BF0C37BD465DF8047B704700BFEE
:102100000038024080B485B000AF78607B681B68FF
:102110000B4A93420DD10023FB600A4B1B6B094A0B
:1021200043F480531363074B1B6B03F48053FB6032
:10213000FB6800BF1437BD465DF8047B704700BFE5
:10214000003002400038024080B58EB000AF7860A9
:1021500007F1240300221A605A609A60DA601A615B
:102160007B681B684B4A93422CD100233B624A4B4D
:102170001B6B494A43F002031363474B1B6B03F08D
:1021800002033B623B6AC0237B621223BB620023D3
:10219000FB6203233B6304237B6307F1240319469B
:1021A0003E4810F0D9FA0023FB613B4B1B6C3A4AC6
:1021B00043F400131364384B1B6C03F40013FB61EE
:1021C000FB6963E07B681B68354A93422CD100238E
:1021D000BB61314B1B6B304A43F0800313632E4BC2
:1021E0001B6B03F08003BB61BB6930237B6212234E
:1021F000BB620023FB6203233B6304237B6307F181
:1022000024031946274810F0A7FA00237B61224BCC
:102210001B6C214A43F4800313641F4B1B6C03F4B3
:1022200080037B617B6931E07B681B681E4A9342B7
:102230002CD100233B61184B1B6B174A43F08003E2
:102240001363154B1B6B03F080033B613B694FF439
:10225000C0737B621223BB620023FB6203233B63D8
:1022600004237B6307F1240319460E4810F074FA27
:102270000023FB60084B1B6C074A43F40003136404
:10228000054B1B6C03F40003FB60FB6800BF383791
:10229000BD4680BD005400400038024000040240AA
:1022A00000580040001C0240005C004080B586B031
:1022B00000AF786007F1080300221A605A609A6044
:1022C000DA607B681B68104A934219D10223BB6015
:1022D0004FF400737B6107F10803184612F072FE99
:1022E0000346002B01D0FFF7DFFE084B01221A60E6
:1022F0000022052129200FF06FFA29200FF088FA1B
:1023000000BF1837BD4680BD002800403C0E474244
:1023100080B58AB000AF786007F1140300221A601C
:102320005A609A60DA601A617B681B68764A934249
:1023300040F0E68000233B61744B5B6C734A43F4CE
:1023400000635364714B5B6C03F400633B613B6956
:102350000023FB606D4B1B6B6C4A43F0040313635B
:102360006A4B1B6B03F00403FB60FB680023BB603C
:10237000664B1B6B654A43F008031363634B1B6B8F
:1023800003F00803BB60BB684FF480737B610223DA
:10239000BB610123FB6103233B620C237B6207F1DA
:1023A000140319465A4810F0D7F94FF480537B6153
:1023B0000223BB610023FB6103233B620C237B628E
:1023C00007F114031946524810F0C6F904237B6143
:1023D0000223BB610123FB6103233B620C237B626D
:1023E00007F1140319464B4810F0B6F94A4B4B4A13
:1023F0001A60494B4FF000625A60474B00229A60C6
:10240000454B0022DA60444B4FF480621A61424B24
:102410004FF480525A61404B4FF480429A613E4BD8
:102420002022DA613C4B00221A623B4B04225A62A2
:10243000394B03229A62384B0022DA62364B002273
:102440001A6335480FF050FA0346002B01D0FFF70E
:102450002BFE7B68304A1A642F4A7B689363304BAB
:10246000304A1A602E4B4FF000625A602C4B4022CB
:102470009A602B4B0022DA60294B4FF480621A617C
:10248000274B4FF480525A61254B4FF480429A619A
:10249000234B2022DA61224B00221A62204B0422B5
:1024A0005A621F4B03229A621D4B0022DA621C4BB8
:1024B00000221A631A480FF017FA0346002B01D0C6
:1024C000FFF7F2FD7B68164ADA63154A7B6893636F
:1024D0000022052131200FF07FF931200FF098F90B
:1024E000002205213B200FF077F93B200FF090F9F7
:1024F0000022052145200FF06FF945200FF088F9E3
:1025000000BF2837BD4680BD002C01400038024086
:1025100000080240000C024094060020586402406B
:10252000F4060020A064024080B582B000AF78605D
:102530007B681B68114A93421BD1114B5B6C104A9C
:1025400023F4006353644FF488510E4810F0A0FA4E
:1025500004210D4810F09CFA7B681B6C18460FF0A4
:1025600071FA7B68DB6B18460FF06CFA31200FF0C4
:102570005DF900BF0837BD4680BD00BF002C01409B
:102580000038024000080240000C024080B58AB0CA
:1025900000AF786007F1140300221A605A609A6055
:1025A000DA601A617B681B685A4A934240F0AD803A
:1025B00000233B61584B1B6C574A43F400431364A0
:1025C000554B1B6C03F400433B613B690023FB60EC
:1025D000514B1B6B504A43F0040313634E4B1B6B70
:1025E00003F00403FB60FB680023BB604A4B1B6BDA
:1025F000494A43F002031363474B1B6B03F002038A
:10260000BB60BB684FF440637B610223BB61002366
:10261000FB6103233B6206237B6207F11403194627
:102620003E4810F099F820237B610223BB61002310
:10263000FB6103233B6206237B6207F11403194607
:10264000374810F089F8374B374A1A60354B00226B
:102650005A60344B00229A60324B0022DA60314BD0
:102660004FF480621A612F4B00225A612D4B0022D9
:102670009A612C4B0022DA612A4B00221A62294B04
:1026800000225A6227480FF02FF90346002B01D091
:10269000FFF70AFD7B68234ADA64224A7B6893636A
:1026A000224B234A1A60214B00225A601F4B4022C2
:1026B0009A601E4B0022DA601C4B4FF480621A6154
:1026C0001A4B00225A61194B00229A61174B0022C3
:1026D000DA61164B00221A62144B00225A62134828
:1026E0000FF002F90346002B01D0FFF7DDFC7B68F9
:1026F0000E4A9A640D4A7B689363002205213320B9
:102700000FF06AF833200FF083F800BF2837BD467A
:1027100080BD00BF003C004000380240000802407D
:1027200000040240AC070020106002400C080020AA
:102730008860024080B58EB000AF786007F1240356
:1027400000221A605A609A60DA601A617B681B681E
:10275000574A934234D100233B62564B1B6C554A77
:1027600043F400231364534B1B6C03F400233B62BC
:102770003B6A0023FB614F4B1B6B4E4A43F0010346
:1027800013634C4B1B6B03F00103FB61FB690323D9
:102790007B620223BB620023FB6203233B630823AB
:1027A0007B6307F12403194643480FF0D5FF00224D
:1027B000052134200FF010F834200FF029F873E0D1
:1027C0007B681B683D4A934235D10023BB61394B7E
:1027D0001B6C384A43F480231364364B1B6C03F4A0
:1027E0008023BB61BB6900237B61324B1B6B314A89
:1027F00043F0020313632F4B1B6B03F002037B6157
:102800007B694FF440637B620223BB620023FB625F
:1028100003233B6307237B6307F1240319462848FE
:102820000FF09AFF0022052127200EF0D5FF272068
:102830000EF0EEFF38E07B681B68224A934233D1EA
:1028400000233B611B4B5B6C1A4A43F0200353642B
:10285000184B5B6C03F020033B613B690023FB607A
:10286000144B1B6B134A43F004031363114B1B6B94
:1028700003F00403FB60FB68C0237B620223BB629E
:102880000023FB6203233B6308237B6307F12403DC
:1028900019460D480FF060FF0022052147200EF079
:1028A0009BFF47200EF0B4FF00BF3837BD4680BD08
:1028B000004C004000380240000002400048004048
:1028C00000040240001401400008024080B586B0B8
:1028D00000AF3B1D00221A605A609A60DA601A61EC
:1028E0002C4B1B68002B51D12A4B01221A6000236C
:1028F0003B60294B9B6B284A43F001039363264BB3
:102900009B6B03F001033B603B684FF23F037B602E
:102910000223BB600023FB6003233B610C237B612C
:102920003B1D19461D480FF017FF40F23F237B6007
:102930000223BB600023FB6003233B610C237B610C
:102940003B1D194616480FF007FF4FF683737B6057
:102950000223BB600023FB6003233B610C237B61EC
:102960003B1D19460F480FF0F7FE4DF6B3737B6021
:102970000223BB600023FB6003233B610C237B61CC
:102980003B1D194608480FF0E7FE00E000BF18376E
:10299000BD4680BD241500200038024000140240CE
:1029A0000018024000100240000C024080B582B0C6
:1029B00000AF7860FFF78AFF00BF0837BD4680BDD3
:1029C00080B58EB000AF78600023FB620023BB624D
:1029D0000023FB60334B1B6C324A43F0200313642B
:1029E000304B1B6C03F02003FB60FB6807F1100207
:1029F00007F114031146184612F0B2FA3B6AFB6263
:102A0000FB6A002B03D112F083FA786304E012F022
:102A10007FFA03465B007B637B6B234AA2FB0323A5
:102A20009B0C013BBB62214B214A1A601F4B40F2B9
:102A3000E732DA601D4ABB6A53601C4B00221A6100
:102A40001A4B00229A60194B00229A61174815F020
:102A5000C3FB034687F8333097F83330002B1BD184
:102A6000124815F013FC034687F8333097F83330DB
:102A7000002B11D137200EF0CBFE7B680F2B08D82E
:102A80000022796837200EF0A7FE0A4A7B6813609F
:102A900002E0012387F8333097F83330184638378F
:102AA000BD4680BD0038024083DE1B432815002050
:102AB000001400409C02002080B400AF00BFFDE77E
:102AC00080B400AF00BFFDE780B400AF00BFFDE7FA
:102AD00080B400AF00BFFDE780B400AF00BFFDE7EA
:102AE00080B400AF00BFBD465DF8047B704780B581
:102AF00000AF042010F014F900BF80BD80B500AF16
:102B000002480FF0E7F800BF80BD00BFAC0700200F
:102B100080B500AF02480FF0DDF800BF80BD00BFF8
:102B20000C08002080B500AF024815F0F7FE00BF8A
:102B300080BD00BFB408002080B500AF024812F08D
:102B4000B5FE00BF80BD00BFF005002080B500AF1E
:102B5000024813F0FDFB00BF80BD00BF100600203F
:102B600080B500AF024814F0A3FF00BF80BD00BFD6
:102B70005407002080B500AF024815F0CFFE00BF1B
:102B800080BD00BF6C08002080B500AF024815F082
:102B9000EDFB00BF80BD00BF2815002080B500AF51
:102BA00002480FF097F800BF80BD00BF94060020D8
:102BB00080B500AF02480FF08DF800BF80BD00BFA8
:102BC000F406002080B500AF024815F0A7FE00BF54
:102BD00080BD00BFFC08002080B400AF0123184670
:102BE000BD465DF8047B704780B582B000AF786069
:102BF000396024F039FE034616221A604FF0FF3385
:102C000018460837BD4680BD80B582B000AF7860F9
:102C10004FF0FF317868FFF7E7FF00BFFDE780B5B1
:102C200086B000AFF860B9607A6000237B610AE08B
:102C3000AFF300800146BB685A1CBA60CAB21A7072
:102C40007B6901337B617A697B689A42F0DB7B6840
:102C500018461837BD4680BD80B586B000AFF86015
:102C6000B9607A6000237B6109E0BB685A1CBA60D6
:102C70001B781846AFF300807B6901337B617A696A
:102C80007B689A42F1DB7B6818461837BD4680BDE9
:102C900080B483B000AF78604FF0FF3318460C3734
:102CA000BD465DF8047B704780B483B000AF7860A8
:102CB00039603B684FF400525A60002318460C37C5
:102CC000BD465DF8047B704780B483B000AF786088
:102CD000012318460C37BD465DF8047B704780B46D
:102CE00085B000AFF860B9607A60002318461437E9
:102CF000BD465DF8047B704780B586B000AF786054
:102D0000144A154BD31A7B617B693B61134B1B68DB
:102D1000002B02D1114B124A1A60104B1A687B68C3
:102D200013443A699A4207D224F09EFD03460C22CE
:102D30001A604FF0FF3309E0084B1B68FB60074B3C
:102D40001A687B681344054A1360FB6818461837F5
:102D5000BD4680BD00000220000400007415002064
:102D60000000006080B400AF064BD3F88830054AFD
:102D700043F47003C2F8883000BFBD465DF8047BA1
:102D8000704700BF00ED00E0DFF834D0FFF7EAFF46
:102D90000C480D490D4A002302E0D458C4500433B6
:102DA000C4188C42F9D30A4A0A4C002301E013608C
:102DB0000432A242FBD324F05DFDFEF791F9704787
:102DC0000000022000000020D0040020D0C0020833
:102DD000D004002098650120FEE780B588B004AFDC
:102DE00078602323BB73642302930123019307F1CB
:102DF0000E03009301232122D221786810F028FCD1
:102E00000346FB73FB7B002B01D0FB7B6EE00023B2
:102E10007B73642302930123019307F10D03009355
:102E200001232222D221786810F012FC0346FB73A2
:102E3000FB7B002B01D0FB7B58E000233B7364231A
:102E400002930123019307F10C0300930123232232
:102E5000D221786810F0FCFB0346FB73FB7B002B50
:102E600001D0FB7B42E00023FB7264230293012329
:102E7000019307F10B03009301232522D2217868E7
:102E800010F0E6FB0346FB73FB7B002B01D0FB7BC2
:102E90002CE01323BB72642302930123019307F1F7
:102EA0000A03009301232422D221786810F0D0FB7A
:102EB0000346FB73FB7B002B01D0FB7B16E00F234B
:102EC0007B72642302930123019307F109030093AA
:102ED00001232022D221786810F0BAFB0346FB734D
:102EE000FB7B002B01D0FB7B00E000231846103752
:102EF000BD4680BD80B588B004AF78603960364B80
:102F00001B684FF0FF31184618F038FB642302931A
:102F10000623019307F1080300930123A822D2217D
:102F2000786810F08FFC0346002B01D001234FE09E
:102F3000294B186800230022002117F0DDFF7B7A5F
:102F40001BB21B021AB23B7A1BB213431AB23B6884
:102F50005A84FB7A1BB21B021AB2BB7A1BB2134310
:102F60001AB23B689A847B7B1BB21B021AB23B7B72
:102F70001BB213431AB23B68DA843B68B3F92230C0
:102F800007EE903AF8EEE77A9FED147A67EE877ACB
:102F90003B68C3ED037A3B68B3F9243007EE903AFF
:102FA000F8EEE77A9FED0D7A67EE877A3B68C3ED1E
:102FB000047A3B68B3F9263007EE903AF8EEE77AE8
:102FC0009FED067A67EE877A3B68C3ED057A0023AA
:102FD00018461037BD4680BD20210020295C0F3CDB
:102FE00080B588B004AF78604FF40873FB81642328
:102FF00002930223019307F10E03009301230122A0
:103000009021786810F024FB00BF1037BD4680BDCA
:1030100080B588B004AF78603960214B1B684FF0F1
:10302000FF31184618F0AAFA642302930223019391
:1030300007F10C030093012300229021786810F01F
:1030400001FC174B186800230022002117F054FFE1
:103050003B7B1BB21B021AB27B7B1BB213431BB21E
:103060009AB23B681A853B681B8D1846FDF76AFAD1
:1030700009A3D3E90023FDF7CFFA02460B46104619
:103080001946FDF7C1FD02463B689A6100BF103743
:10309000BD4680BDAFF30080DE718A8EE4F27F3FD3
:1030A0002021002080B582B000AF78607868FFF7FB
:1030B00094FE7868FFF794FF00BF0837BD4680BDD7
:1030C00080B582B000AF7860396039687868FFF702
:1030D00011FF39687868FFF79BFF322018F0B6FFC0
:1030E0003968786800F022F900BF0837BD4680BD16
:1030F00080B586B002AF786048F20703BB8107F164
:103100000C02642300930223602178680FF070FFA3
:103110003220FEF7DFFD20237B7307F10C026423CE
:1031200000930223602178680FF062FF0120FEF710
:10313000D1FD00BF1037BD4680BD80B586B002AF5F
:10314000786048F20703BB8107F10C026423009307
:103150000223602178680FF04BFF3220FEF7BAFDA2
:1031600040237B7307F10C02642300930223602148
:1031700078680FF03DFF0120FEF7ACFD00BF10376F
:10318000BD4680BD80B58CB002AFF860B9607A6092
:103190003B60002387F827300723FB77FB7F3B75D5
:1031A00001237B755F4B1B684FF0FF31184618F009
:1031B000E5F907F114026423009302236021F86803
:1031C0000FF016FF574B186800230022002117F05C
:1031D00093FE0A2018F03AFF0623FB77514B1B6839
:1031E0004FF0FF31184618F0C9F907F11F026423A8
:1031F000009301236021F8680FF0FAFE07F11E0228
:103200006423009301236021F8680FF0EFFF454B22
:10321000186800230022002117F06EFE97F827306F
:10322000013387F82730BB7F03F00103002B03D164
:1032300097F82730042BCFD9BB7F03F00103002B75
:103240000CD13B684FF000021A603B681A687B683B
:103250001A607B681A68BB681A6060E00023FB771D
:10326000304B1B684FF0FF31184618F087F907F113
:103270001F026423009301236021F8680FF0B8FE59
:1032800007F118026423009306236021F8680FF009
:10329000ADFF244B186800230022002117F02CFEFC
:1032A0007B7E1BB21B021AB23B7E1BB213431BB2C6
:1032B000BB84FB7E1BB21B021AB2BB7E1BB2134344
:1032C0001BB27B847B7F1BB21B021AB23B7F1BB2FB
:1032D00013431BB23B84BB8C07EE903AB8EE677A7F
:1032E000DFED116AC7EE267ABB68C3ED007A7B8CEE
:1032F00007EE903AB8EE677ADFED0B6AC7EE267AF2
:103300007B68C3ED007A3B8C07EE903AB8EE677AA3
:10331000DFED056AC7EE267A3B68C3ED007A2837F1
:10332000BD4680BD202100200000004580B588B04A
:1033300000AF786039607868FFF7DAFE07F11403B0
:1033400007F1180207F11C017868FFF71BFF786886
:10335000FFF7F3FE07F1080307F10C0207F1100174
:103360007868FFF70FFF97ED077AD7ED047A37EE0D
:10337000677AF0EE006AC7EE267A9FED2A7A67EE4A
:10338000877A3B68C3ED007A97ED067AD7ED037A2A
:1033900037EE677AF0EE006AC7EE267A9FED217A63
:1033A00067EE877A3B68C3ED017A97ED057AD7ED32
:1033B000027A37EE677AF0EE006AC7EE267A9FED62
:1033C000197A67EE877A3B68C3ED027A386800F0B5
:1033D0009FF83968786800F027F83B68D3ED007AE9
:1033E000FDEEE77A17EE903A1BB29AB23B689A83E9
:1033F0003B68D3ED017AFDEEE77A17EE903A1BB207
:103400009AB23B68DA833B68D3ED027AFDEEE77A45
:1034100017EE903A1BB29AB23B681A8400BF20376D
:10342000BD4680BD0050C34780B485B000AF786012
:1034300039603B68D3ED007AF5EEC07AF1EE10FA10
:1034400012D50023FB733B68D3ED007AFDEEE77ADB
:1034500017EE903A1BB25B4207EE903AF8EEE77A2D
:103460003B68C3ED007A01E00123FB733B68D3EDB9
:10347000017AF5EEC07AF1EE10FA12D50023BB7393
:103480003B68D3ED017AFDEEE77A17EE903A1BB276
:103490005B4207EE903AF8EEE77A3B68C3ED017ABB
:1034A00001E00123BB733B68D3ED027AF5EEC07AED
:1034B000F1EE10FA12D500237B733B68D3ED027A4C
:1034C000FDEEE77A17EE903A1BB25B4207EE903AB8
:1034D000F8EEE77A3B68C3ED027A01E001237B73E3
:1034E00097F90F309B005AB297F90E305B005BB230
:1034F00013435AB297F90D3013435BB2DAB23B680B
:1035000083F82A2000BF1437BD465DF8047B70475E
:1035100080B52DED028B8AB000AF78607B681B68A8
:10352000BB617B685B687B617B689B683B615A4BD6
:103530001B68002B00F09A80574B1B684FF0FF313F
:10354000184618F01BF8554BD3ED007A97ED067A24
:1035500077EE676A514B93ED037AC6EE877AC7ED33
:10356000097A4E4BD3ED017A97ED057A37EE677AFB
:103570004A4BD3ED047A87EE278A484BD3ED067A7F
:10358000B0EE670A1FF094FBB0EE407AD7ED097AEF
:1035900067EE277A38EE678A404BD3ED067AB0EEB5
:1035A000670A1FF039FBB0EE407AC8EE077AC7ED24
:1035B000087A3A4BD3ED087AB0EE670A1FF02CFB7D
:1035C000B0EE408A354BD3ED077AB0EE670A1FF0B4
:1035D00023FBF0EE407A28EE277AF7EE006AC6EE7B
:1035E000877AC7ED037A2D4BD3ED027A97ED047AF3
:1035F00037EE677A294BD3ED057A87EE278A274B7A
:10360000D3ED077AB0EE670A1FF052FBB0EE407AB6
:10361000D7ED097A67EE277A38EE678A1F4BD3ED2C
:10362000087AB0EE670A1FF043FBB0EE407AD7EDA0
:10363000087A67EE278A194BD3ED077AB0EE670A4E
:103640001FF0EAFAF0EE407A68EEA77A78EE677A31
:1036500097ED037A67EE277AC7ED077A0E4B186865
:1036600000230022002117F047FC05E0BB697B62C4
:103670007B693B623B69FB617B687A6A1A607B68A5
:103680003A6A5A607B68FA699A6000BF2837BD467B
:10369000BDEC028B80BD00BF2C2100203C0200202D
:1036A00080B485B000AF786041F60F53FB817B6832
:1036B00002331B7802333B7301237B7317E0FB89D2
:1036C0001B0A9BB27A7B79680A44127853407B814B
:1036D0007B890C4A32F813301AB2B7F90E301B024C
:1036E0001BB253401BB2FB817B7B01337B737A7B24
:1036F0003B7B9A42E3D9FB8918461437BD465DF8F7
:10370000047B704740A3020880B485B000AF7860A6
:1037100039607B68FB603B68BB600D4B00221A7010
:103720000AE0FB681A780A4B1B785340DAB2084B60
:103730001A70FB680133FB60FA68BB689A42F0D3E9
:10374000034B1B7818461437BD465DF8047B704761
:10375000D015002080B485B000AF78600023FB73E3
:1037600002E0FB7B0133FB73FB7B7A6813441B781D
:10377000002BF6D1FB7B18461437BD465DF8047B61
:10378000704780B586B000AFB9607B600346FB73BD
:103790001346BB730023BB827B68CD221A707B6803
:1037A0000133FA7B1A70BB7B272B01D92723BB730C
:1037B0007B680233BA7B1A700023FB750CE0FB7D3B
:1037C000BA681A44FB7D033319467B680B441278B0
:1037D0001A70FB7D0133FB75FA7DBB7B9A42EED3F9
:1037E0007868FFF75DFF0346BB82BB8A1B0A9AB26B
:1037F000BB7B033319467B680B44D2B21A70BB7B88
:1038000004331A467B681344BA8AD2B21A70BB7B5F
:1038100005331A467B6813440A221A70BB7B0633B1
:103820001A467B68134400221A7000BF1837BD4641
:1038300080BD80B483B000AF03463960FB713B6844
:10384000CD221A703B680133FA791A703B68023353
:1038500000221A703B680333FA791A703B6804330C
:10386000FA791A703B6805330A221A703B680633EE
:1038700000221A7000BF0C37BD465DF8047B70470C
:1038800080B582B000AF786009F04EFE7B680233ED
:103890001B7806339AB24FF0FF337968034814F06F
:1038A0008DFF00BF0837BD4680BD00BFB4080020B3
:1038B00080B582B000AF786009F022FE7B680233E9
:1038C0001B7806339AB24FF0FF337968034814F03F
:1038D00075FF00BF0837BD4680BD00BF6C080020E3
:1038E00080B58EB000AF03463960FB713868FFF7D2
:1038F00031FF03461A4607F10803F8793968FFF7E4
:1039000040FFBB7A06339AB207F108014FF0FF334C
:10391000034814F053FF00BF3837BD4680BD00BFD9
:103920006C08002080B582B000AF78600B46FB7059
:10393000FB78AB2B03D17868FFF7BAFF0AE0FB787E
:10394000CE2B07D17B6802331B78272B02D87868EF
:10395000FFF796FF00BF0837BD4680BD80B58EB02B
:1039600000AF03460A46FB711346BB7107F108021C
:10397000FB7911461846FFF75CFFBA7907F1080397
:1039800011461846FFF7CEFF00BF3837BD4680BD51
:1039900080B400AF024B1846BD465DF8047B70470B
:1039A0000C16002080B400AF024B1846BD465DF8EF
:1039B000047B70470B16002080B483B000AF7860A2
:1039C0000B46FB707B681B7C062B7DD801A252F84E
:1039D00023F000BFF13900081F3A00082D3A000813
:1039E0005D3A00088B3A0008993A0008A73A0008A7
:1039F000FB78AB2B02D0FB78CE2B09D17B68012260
:103A00009A747B68FA781A707B6801221A7463E0F2
:103A10007B6802229A747B6800221A745CE07B68DF
:103A2000FA785A707B6802221A7455E07B68FA783B
:103A30009A707B6800225A74FB78002B03D17B6854
:103A400004221A7448E0FB78262B03D87B680322F3
:103A50001A7441E07B6802229A743DE07B685B7CCB
:103A60001A467B681344FA78DA707B685B7C013312
:103A7000DAB27B685A747B685A7C7B689B789A427E
:103A800029D37B6804221A7425E07B68FA785A737C
:103A90007B6805221A741FE07B68FA789A737B684A
:103AA00006221A7418E0FB780A2B06D17B680022E4
:103AB0009A747B68FA78DA730EE07B6802229A7453
:103AC0007B6800221A7407E07B6802229A747B6884
:103AD00000221A7400E000BF00BF0C37BD465DF83D
:103AE000047B704780B483B000AF78600B46FB70F6
:103AF0007B685B78FA789A420FD17B689B78002BC1
:103B00000BD17B685B7BFA789A4206D17B689B7B02
:103B1000FA789A4201D1012300E0002318460C37BD
:103B2000BD465DF8047B704780B584B000AF786017
:103B30000023FB810023BB817868FFF7B1FD0346BA
:103B4000BB817B685B7B1BB21B021AB27B689B7BD1
:103B50001BB213431BB2FB81FA89BB899A4201D184
:103B6000012300E0002318461037BD4680BD80B514
:103B700086B000AFF860B9601346FB71FF21F868AA
:103B8000FFF7B0FF0346012B0DD1FB681A78BB6825
:103B90001A70BB68FF225A70BB6800229A70BB681B
:103BA0000022DA704CE0AA21F868FFF79BFF034679
:103BB000012B0DD1FB681A78BB681A70BB68AA226A
:103BC0005A70BB6800229A70BB680022DA7037E036
:103BD000F868FFF7A9FF0346002B28D0FB681B7885
:103BE000FA799A4223D1FB681A78BB681A70FB688D
:103BF0005A78BB685A70FB689A78BB689A70002341
:103C00007B610DE0FA687B69134403331978BA6865
:103C10007B69134403330A461A707B6901337B6165
:103C2000FB689B781A467B699342EBDB08E0BB6834
:103C3000FA791A70BB6800225A70BB6800229A7029
:103C4000FB6801229A74FB6800221A74FB68002248
:103C50001A7000BF1837BD4680BD80B584B000AF74
:103C600078603960FF217868FFF73CFF0346012B3D
:103C70000DD17B681A783B681A703B68FF225A7036
:103C80003B6800229A703B680022DA7048E0AA2163
:103C90007868FFF727FF0346012B0DD17B681A7860
:103CA0003B681A703B68AA225A703B6800229A70DF
:103CB0003B680022DA7033E07868FFF735FF03468F
:103CC000002B23D07B681A783B681A707B685A787F
:103CD0003B685A707B689A783B689A700023FB6057
:103CE0000DE07A68FB681344033319783A68FB687F
:103CF000134403330A461A70FB680133FB607B6888
:103D00009B781A46FB689342EBDB09E07B681A78E4
:103D10003B681A703B6800225A703B6800229A7018
:103D20007B6801229A747B6800221A747B680022E7
:103D30001A7000BF1037BD4680BD000080B582B04C
:103D400000AF7860114805F045FB0346104A136048
:103D50000F4B1B681B0EDAB27B681A700C4B1B688A
:103D60001A0C7B680133D2B21A70094B1B681A0A0D
:103D70007B680233D2B21A70054B1A687B68033332
:103D8000D2B21A7000BF0837BD4680BD3021002076
:103D90001C16002080B584B000AF78608D4805F017
:103DA00019FB03468C4A13608B4B1B681B0EDAB25F
:103DB0007B681A70884B1B681A0C7B680133D2B27F
:103DC0001A70854B1B681A0A7B680233D2B21A70CC
:103DD000814B1A687B680333D2B21A707F4B9B8B7E
:103DE0001B0A9AB27B680433D2B21A707B4B9A8B4F
:103DF0007B680533D2B21A70784BDB8B1B0A9AB200
:103E00007B680633D2B21A70744BDA8B7B68073347
:103E1000D2B21A70714B1B8C1B0A9AB27B680833A2
:103E2000D2B21A706D4B1A8C7B680933D2B21A70F9
:103E30006A4BB3F922301B121AB27B680A33D2B232
:103E40001A70664BB3F922207B680B33D2B21A701A
:103E5000624BB3F924301B121AB27B680C33D2B216
:103E60001A705E4BB3F924207B680D33D2B21A70FE
:103E70005A4BB3F926301B121AB27B680E33D2B2FA
:103E80001A70564BB3F926207B680F33D2B21A70E2
:103E9000524B1B8D1B0A9AB27B681033D2B21A7038
:103EA0004E4B1A8D7B681133D2B21A704B4B93F87C
:103EB0002A305BB21B015AB2494B93F82A305BB2ED
:103EC00003F00F035BB213435AB27B681233D2B2D2
:103ED0001A70434B9B8B1B0A9AB27B681333D2B286
:103EE0001A703F4B9A8B7B681433D2B21A703C4BDA
:103EF000DB8B1B0A9AB27B681533D2B21A70384B2F
:103F0000DA8B7B681633D2B21A70354B1B8C1B0AC6
:103F10009AB27B681733D2B21A70314B1A8C7B6815
:103F20001833D2B21A702E4BB3F922301B121AB2C8
:103F30007B681933D2B21A70294BB3F922207B68FF
:103F40001A33D2B21A70264BB3F924301B121AB2AC
:103F50007B681B33D2B21A70214BB3F924207B68E3
:103F60001C33D2B21A701E4BB3F926301B121AB290
:103F70007B681D33D2B21A70194BB3F926207B68C7
:103F80001E33D2B21A70164B1B8D1B0A9AB27B6875
:103F90001F33D2B21A70124B1A8D7B682033D2B203
:103FA0001A700023FB600CE0FB6821331A467B6823
:103FB00013440C49FA680A4412781A70FB680133FA
:103FC000FB60FB68042BEFDD00BF00BF1037BD4670
:103FD00080BD00BF302100201C1600207815002075
:103FE000A41500201016002080B582B000AF7860C4
:103FF0003E4805F0EFF903463D4A13603C4B1B6811
:104000001B0EDAB27B681A70394B1B681A0C7B687E
:104010000133D2B21A70364B1B681A0A7B6802331E
:10402000D2B21A70324B1A687B680333D2B21A705C
:104030007B6804332F4A12781A702F4B1B881B0A97
:104040009AB27B680533D2B21A702B4B1A887B6800
:104050000633D2B21A70284B5B881B0A9AB27B686F
:104060000733D2B21A70244B5A887B680833D2B215
:104070001A70214B9B881B0A9AB27B680933D2B213
:104080001A701D4B9A887B680A33D2B21A701A4B89
:10409000DB881B0A9AB27B680B33D2B21A70164BBC
:1040A000DA887B680C33D2B21A70134B1B891B0A57
:1040B0009AB27B680D33D2B21A700F4B1A897B68A3
:1040C0000E33D2B21A700C4B5B891B0A9AB27B6812
:1040D0000F33D2B21A70084B5A897B681033D2B2B0
:1040E0001A7000BF0837BD4680BD00BF30210020D8
:1040F0001C160020151600207021002080B582B00B
:1041000000AF7860684805F065F90346674A1360B8
:10411000664B1B681B0EDAB27B681A70634B1B6818
:104120001A0C7B680133D2B21A70604B1B681A0AF2
:104130007B680233D2B21A705C4B1A687B68033317
:10414000D2B21A707B680433594A12781A70594BEC
:104150009B691A0E7B680533D2B21A70554B9B6966
:104160001A0C7B680633D2B21A70524B9B691A0A3A
:104170007B680733D2B21A704E4B9A697B6808335A
:10418000D2B21A704B4BDB691A0E7B680933D2B27C
:104190001A70484BDB691A0C7B680A33D2B21A706A
:1041A000444BDB691A0A7B680B33D2B21A70414B5D
:1041B000DA697B680C33D2B21A703E4BD3E90A013C
:1041C0004FF000024FF000030A0E002379680D3112
:1041D000D3B20B70374BD3E90A014FF000024FF016
:1041E00000030A0C002379680E31D3B20B70314BF7
:1041F000D3E90A014FF000024FF000030A0A00233E
:1042000079680F31D3B20B702A4BD3E90A014FF012
:1042100000024FF000030A00002379681031D3B286
:104220000B70244BD3E90A014FF000024FF000035A
:10423000020E42EA01220B0E79681131D3B20B70E3
:104240001C4BD3E90A014FF000024FF00003020CAF
:1042500042EA01420B0C79681231D3B20B70154B54
:10426000D3E90A014FF000024FF00003020A42EACC
:1042700001620B0A79681331D3B20B700D4BD3E98D
:104280000A2379681431D3B20B707B681533094A5D
:1042900092F835201A707B681633054A12781A7026
:1042A00000BF0837BD4680BD302100201C1600200D
:1042B00015160020E018002090B583B000AF78609C
:1042C000674805F087F80346664A1360654B1B682C
:1042D0001B0EDAB27B681A70624B1B681A0C7B6883
:1042E0000133D2B21A705F4B1B681A0A7B68023323
:1042F000D2B21A705B4B1A687B680333D2B21A7061
:104300007B680433584A12781A707B680533574A21
:1043100012781A707B689C1D01F024FA0346237002
:104320007B68073300221A70514B1A887B68083368
:10433000D2B21A707B6809334C4A12781A707B68C3
:1043400003F10A0401F04EFA034623707B680B3335
:1043500000221A70464B1A887B680C33D2B21A704E
:104360007B680D33414A12781A707B6803F10E04A2
:1043700001F018FA034623707B680F3300221A708D
:104380003B4B1A887B681033D2B21A707B681133AA
:10439000364A12781A707B6803F1120401F042FA6F
:1043A000034623707B68133300221A70304B1A883F
:1043B0007B681433D2B21A707B6815332B4A12789B
:1043C0001A707B6803F1160401F068FA0346237043
:1043D0007B68173300221A70254B1A887B681833C4
:1043E000D2B21A707B681933204A12781A707B682F
:1043F00003F11A0401F07AFA034623707B681B3339
:1044000000221A701A4B1A887B681C33D2B21A70B9
:104410007B681D33144A12781A707B681E33124A67
:1044200012781A707B681F330F4A12781A707B68F3
:1044300020330D4A12781A707B6821330A4A1278A9
:104440001A707B682233084A12781A707B6823330B
:10445000054A12781A7000BF0C37BD4690BD00BFE8
:10446000302100201C1600201516002016160020F2
:104470001816002080B582B000AF7860A44804F020
:10448000A9FF0346A34A1360A24B1B681B0EDAB2B6
:104490007B681A709F4B1B681A0C7B680133D2B281
:1044A0001A709C4B1B681A0A7B680233D2B21A70CE
:1044B000984B1A687B680333D2B21A70964B5B68CC
:1044C0001A0E7B680433D2B21A70934B5B681A0CD5
:1044D0007B680533D2B21A708F4B5B681A0A7B680F
:1044E0000633D2B21A708C4B5A687B680733D2B24B
:1044F0001A70894B1B691A0E7B680833D2B21A7086
:10450000854B1B691A0C7B680933D2B21A70824B37
:104510001B691A0A7B680A33D2B21A707E4B1A6979
:104520007B680B33D2B21A707B4B9B681A0E7B6888
:104530000C33D2B21A70784B9B681A0C7B680D331F
:10454000D2B21A70744B9B681A0A7B680E33D2B2CF
:104550001A70714B9A687B680F33D2B21A706E4B27
:104560009B691A0E7B681033D2B21A706A4B9B6932
:104570001A0C7B681233D2B21A70674B9B691A0A05
:104580007B681333D2B21A70634B9A697B68143319
:10459000D2B21A707B681533604A12781A70604B79
:1045A0001B881B0A9AB27B681633D2B21A705C4B16
:1045B0001A887B681733D2B21A707B681833594A4D
:1045C00012781A70584B1B881B0A9AB27B681933F1
:1045D000D2B21A70544B1A887B681A33D2B21A704E
:1045E000524BD3E908014FF000024FF000030A00DC
:1045F000002379681B31D3B20B704C4BD3E908010F
:104600004FF000024FF00003020E42EA01220B0EAF
:1046100079681C31D3B20B70444BD3E908014FF0D9
:1046200000024FF00003020C42EA01420B0C7968D1
:104630001D31D3B20B703D4BD3E908014FF000029E
:104640004FF00003020A42EA01620B0A79681E3148
:10465000D3B20B70354BD3E9082379681F31D3B23D
:104660000B70334BD3E906014FF000024FF000030B
:10467000020C42EA01420B0C79682031D3B20B7074
:104680002B4BD3E906014FF000024FF00003020E5E
:1046900042EA01220B0E79682131D3B20B70244B10
:1046A000D3E906014FF000024FF00003020C42EA8A
:1046B00001420B0C79682231D3B20B701C4BD3E949
:1046C00006014FF000024FF00003020A42EA0162C5
:1046D0000B0A79682331D3B20B70154BD3E906234B
:1046E00079682431D3B20B70124B1A787B6825336A
:1046F0001A70114B1A787B6826331A707B6827333F
:104700000E4A12781A7000BF0837BD4680BD00BF40
:10471000302100201C160020F81700201829002046
:104720001C290020192900201A290020D02100204E
:1047300038240020830200207D1B00207C1B0020E9
:1047400080B582B000AF78607D4804F043FE034638
:104750007C4A13607B4B1B681B0EDAB27B681A70B5
:10476000784B1B681A0C7B680133D2B21A70754BF8
:104770001B681A0A7B680233D2B21A70714B1A682E
:104780007B680333D2B21A706F4B1B681A0E7B68BA
:104790000433D2B21A706C4B1B681A0C7B68053359
:1047A000D2B21A70684B1B681A0A7B680633D2B201
:1047B0001A70654B1A687B680733D2B21A70624B65
:1047C0005B681A0E7B680833D2B21A705E4B5B6866
:1047D0001A0C7B680933D2B21A705B4B5B681A0AF9
:1047E0007B680A33D2B21A70574B5A687B680B3316
:1047F000D2B21A70554B1B681A0E7B680C33D2B2BA
:104800001A70524B1B681A0C7B680D33D2B21A70A7
:104810004E4B1B681A0A7B680E33D2B21A704B4B90
:104820001A687B680F33D2B21A70484B5B681A0E55
:104830007B681033D2B21A70444B5B681A0C7B68E9
:104840001133D2B21A70414B5B681A0A7B6812337B
:10485000D2B21A703D4B5A687B681333D2B21A70C9
:104860003B4B1B681A0E7B681433D2B21A70384B5C
:104870001B681A0C7B681533D2B21A70344B1B6854
:104880001A0A7B681633D2B21A70314B1A687B68E9
:104890001733D2B21A702E4B5B681A0E7B6818332E
:1048A000D2B21A702A4B5B681A0C7B681933D2B2E9
:1048B0001A70274B5B681A0A7B681A33D2B21A70D7
:1048C000234B5A687B681B33D2B21A70214B1B688A
:1048D0001A0E7B681C33D2B21A701E4B1B681A0C5E
:1048E0007B681D33D2B21A701A4B1B681A0A7B6898
:1048F0001E33D2B21A70174B1A687B681F33D2B2BC
:104900001A70144B5B681A0E7B682033D2B21A708F
:10491000104B5B681A0C7B682133D2B21A700D4BB6
:104920005B681A0A7B682233D2B21A70094B5A6844
:104930007B682333D2B21A7000BF0837BD4680BDF2
:10494000302100201C1600204816002038160020B8
:10495000401600205016002080B58AB000AF786065
:10496000B34804F037FD78627B6A1B0EDAB27B68CD
:104970001A707B6A1A0C7B680133D2B21A707B6A98
:104980001A0A7B680233D2B21A707B6803337A6AE0
:10499000D2B21A70A74BD3ED007A9FEDA77A67EEDB
:1049A000877AFDEEE77A17EE903A7B84A14BD3ED40
:1049B000017A9FEDA17A67EE877AFDEEE77A17EE2E
:1049C000903A3B849B4BD3ED027A9FED9B7A67EE46
:1049D000877AFDEEE77A17EE903AFB83B7F922303B
:1049E0001B121AB27B680433D2B21A707B6805338B
:1049F0007A8CD2B21A70B7F920301B121AB27B68C7
:104A00000633D2B21A707B6807333A8CD2B21A706E
:104A1000B7F91E301B121AB27B680833D2B21A7073
:104A20007B680933FA8BD2B21A70844B1B881B0A3D
:104A30009AB27B680A33D2B21A70804B1A887B68AC
:104A40000B33D2B21A707D4B5B881B0A9AB27B681B
:104A50000C33D2B21A70794B5A887B680D33D2B2BC
:104A60001A70764B9B881B0A9AB27B680E33D2B2BF
:104A70001A70724B9A887B680F33D2B21A706F4BE0
:104A8000DB881B0A9AB27B681033D2B21A706B4B68
:104A9000DA887B681133D2B21A70684B1B891B0A03
:104AA0009AB27B681233D2B21A70644B1A897B684F
:104AB0001333D2B21A70614B5B891B0A9AB27B68BE
:104AC0001433D2B21A705D4B5A897B681533D2B257
:104AD0001A705B4BD3ED007A9FED5A7A67EE877AB6
:104AE000FDEEE77A17EE903ABB61554BD3ED017AB4
:104AF0009FED547A67EE877AFDEEE77A17EE903AEB
:104B00007B61BB691A0E7B681633D2B21A70BB691F
:104B10001A147B681733D2B21A70BB691A127B68F9
:104B20001833D2B21A707B681933BA69D2B21A70CC
:104B30007B691A0E7B681A33D2B21A707B691A1419
:104B40007B681B33D2B21A707B691A127B681C33E4
:104B5000D2B21A707B681D337A69D2B21A70384BA0
:104B600093ED027ADFED386AC7EE267AFCEEE77A3B
:104B7000C7ED007A3B78FB747B681E33FA7C1A70B1
:104B8000324BD3ED047A9FED327A67EE877AFDEEF1
:104B9000E77A17EE903A3B822C4BD3ED057A9FEDE6
:104BA0002C7A67EE877AFDEEE77A17EE903AFB8172
:104BB000264BD3ED067A9FED267A67EE877AFDEED7
:104BC000E77A17EE903ABB81204BD3ED077A9FED41
:104BD000207A67EE877AFDEEE77A17EE903A7B81CE
:104BE000B7F910301B121AB27B681F33D2B21A7099
:104BF0007B6820333A8AD2B21A70B7F90E301B1292
:104C00001AB27B682133D2B21A707B682233FA89D8
:104C1000D2B21A70B7F90C301B121AB27B68233368
:104C2000D2B21A707B682433BA89D2B21A7011E0FA
:104C300010190020A415002000007A4470210020E3
:104C4000E01800200024744900401C468821002000
:104C50000060EA46B7F90A301B121AB27B682533A6
:104C6000D2B21A707B6826337A89D2B21A7000BF2A
:104C70002837BD4680BD00BF80B588B000AF7860E2
:104C80009B4804F0A7FBF861FB691B0EDAB27B6856
:104C90001A70FB691A0C7B680133D2B21A70FB6977
:104CA0001A0A7B680233D2B21A707B680333FA693E
:104CB000D2B21A708F4BD3ED007A9FED8F7A67EEE8
:104CC000877AFDEEE77A17EE903A7B83894BD3ED36
:104CD000017A9FED897A67EE877AFDEEE77A17EE23
:104CE000903A3B83834BD3ED027A9FED837A67EE54
:104CF000877AFDEEE77A17EE903AFB82B7F91A3021
:104D00001B121AB27B680433D2B21A707B68053367
:104D10007A8BD2B21A70B7F918301B121AB27B68AC
:104D20000633D2B21A707B6807333A8BD2B21A704C
:104D3000B7F916301B121AB27B680833D2B21A7058
:104D40007B680933FA8AD2B21A706C4B9B891B0AB2
:104D50009AB27B680A33D2B21A70684B9A897B6820
:104D60000B33D2B21A70654BDB891B0A9AB27B688F
:104D70000C33D2B21A70614BDA897B680D33D2B230
:104D80001A705E4B1B8A1B0A9AB27B680E33D2B232
:104D90001A705A4B1A8A7B680F33D2B21A70554B6D
:104DA000B3F922301B121AB27B681033D2B21A70D8
:104DB000504BB3F922207B681133D2B21A704D4B9D
:104DC000B3F924301B121AB27B681233D2B21A70B4
:104DD000484BB3F924207B681333D2B21A70454B89
:104DE000B3F926301B121AB27B681433D2B21A7090
:104DF000404BB3F926207B681533D2B21A70404B72
:104E0000D3ED007A9FED3F7A67EE877AFDEEE77A81
:104E100017EE903A3B613A4BD3ED017A9FED397A28
:104E200067EE877AFDEEE77A17EE903AFB603B6912
:104E30001A0E7B681633D2B21A703B691A147B685B
:104E40001733D2B21A703B691A127B681833D2B288
:104E50001A707B6819333A69D2B21A70FB681A0E5D
:104E60007B681A33D2B21A70FB681A147B681B3342
:104E7000D2B21A70FB681A127B681C33D2B21A7055
:104E80007B681D33FA68D2B21A701D4B93ED027A1B
:104E9000DFED1D6AC7EE267AFCEEE77AC7ED007AF1
:104EA0003B78FB727B681E33FA7A1A707B68223378
:104EB000164A12781A707B682333144A12781A70D3
:104EC0007B682433114A12781A707B6825330F4AA5
:104ED00012781A707B6826330C4A12781A707B6835
:104EE00027330A4A12781A7000BF2037BD4680BDAA
:104EF00010190020A415002000007A447021002021
:104F0000E01800200024744900401C4615160020BB
:104F100080B59CB002AF7860012387F8673017F046
:104F200097FA0346BB6000F029FB3E4804F0CCFA38
:104F300002F03EF807F140031846FFF7BDF907F10C
:104F40004003184600F00CFD0346002B0DD007F17E
:104F500040031846FEF7F2FE07F1100307F1400187
:104F600004220120FEF70DFC07E007F1100307F112
:104F7000400127220220FEF704FC07F11003184627
:104F8000FEF796FC07F10C03642200924FF0FF320B
:104F90000021002018F024FA0346012B02D1FB68FF
:104FA00087F8673097F86730012BEBD100F0E6FA0D
:104FB0001C4804F089FA01F0FBFF07F14003184692
:104FC000FFF77AF907F14003184600F0C9FC0346E1
:104FD000002B0DD007F140031846FEF7AFFE07F196
:104FE000100307F1400104220120FEF7CAFB07E08D
:104FF00007F1100307F1400127220220FEF7C1FB51
:10500000094B186807F1100100234FF0FF3215F02B
:1050100073FF07F1080342F21071184616F094FF6F
:10502000B0E700BFF0050020701B002080B59AB0EB
:1050300002AF786064230093444B4FF0FF320021AD
:10504000002018F0CDF90346012B11D13F4B1B680E
:1050500003F00103002B02D03D4B01221A703B4BA1
:105060001B6803F00203002B02D0394B00221A7098
:10507000374B1B78002BDDD017F0EAF90346354A91
:1050800013603549354800F083F800F043F9344B9C
:105090001B78002B41D0334807F088FB3249314858
:1050A00000F076F800F050F9304B03F5FA430C337A
:1050B0001A462F4B1846114642F6D0731A4622F074
:1050C0000AFC2C492A4800F063F800F0F7F92A4B53
:1050D00000221A60284B1B68FF222249184602F062
:1050E00097F826491F4800F053F800F049F907F1F6
:1050F00038031846FFF724FB07F1080307F13801CE
:1051000027220D20FEF73DFB1D4B186807F1080113
:1051100000234FF0FF3215F0EFFE17F099F9034628
:10512000184A1360174B1A680A4B1B68D31A164AA1
:105130001360144B1A68074B1B68D31A134A136089
:105140004FF47A6016F082FF74E700BF2C1600203F
:105150006C0200200829002048160020007D006411
:1051600000210020D0AC00645016002000000C0884
:10517000A0DC0064381600203818002040160020FB
:10518000701B00200C290020102900201429002069
:10519000F0B587B000AF786039600023FB60002372
:1051A000BB60544B00221A70524B00225A70514B74
:1051B00000229A704F4B0022DA704F4B00221A6087
:1051C0004E4B1B689A684D4B1B6842F001029A6077
:1051D00040F6F432796849480CF052FB0346464ADF
:1051E0001360474B1A68444B1B689A427ED00023D9
:1051F0007B6178E07A6913461B029B1A1B01FB60F6
:10520000FB687A6813443F4A104619464FF47F639F
:105210001A4622F060FB394B1B689A68374B1B68B3
:1052200042F001029A60344B00221A604FF47F7200
:10523000344932480CF024FB03462F4A1360324BAA
:105240001A682D4B1B689A424AD000233B6144E008
:105250003A6913465B0013441B011A46FB6813446A
:10526000BB60BB687A681344284A1C46164604F1A2
:10527000300C35462346186859689A68DB680FC5B4
:10528000103410366445F4D11C4B1B689A681B4BD4
:105290001B6842F001029A60174B00221A600C2230
:1052A0001A4916480CF0ECFA0346134A1360184BDF
:1052B0001A68114B1B689A420CD00E4A7B69134442
:1052C00001221A700B4B0122DA703A6830210F4824
:1052D00000F014F93B6901333B613B69542BB7DDA6
:1052E0007B6901337B617B69022B83DD00BF1C3747
:1052F000BD46F0BD2816002024160020EC04002036
:1053000060020020700C016464020020601C0164D3
:105310006802002080B500AF084BDB78002B0AD074
:10532000074B1B7842F6D0721946064821F0D3FB92
:10533000024B0022DA7000BF80BD00BF281600209B
:1053400082020020007D006480B500AF094BDB784D
:10535000002B0DD0084B1B784FF4FF7219460748FD
:1053600021F0B9FB054807F089F9024B0022DA70F9
:1053700000BF80BD2816002082020020901C01641E
:1053800080B500AF464B1B78002B3DD0444B5B787B
:10539000002B39D0424B9B78002B35D0414B1B68FA
:1053A00010221946404800F0F5FF3E4B1A683F4B6B
:1053B0001B6813443B4A13603A4B1B681022194682
:1053C000394800F0E7FF374B1A68384B1B68134425
:1053D000344A1360334B1B6810221946324800F0E0
:1053E000D9FF334B1B7842F6D0721946314821F071
:1053F00072FB314B1B68FF222E49184601F00EFE4E
:105400000A2016F023FE49E0254B1B78002B10D014
:10541000294B00221A60234B1B6810221946224890
:1054200000F0B8FF244B1B6855222249184601F0B2
:10543000F5FD1B4B5B78002B15D01F4B4FF48052B2
:105440001A601A4B1B68174A1360164B1B68102210
:105450001946154800F09EFF174B1B685522154949
:10546000184601F0DBFD0E4B9B78002B16D0124B3B
:105470004FF400521A600D4B1B685B00094A136021
:10548000084B1B6810221946074800F083FF0A4B9F
:105490001B6855220749184601F0C0FD00BF80BDBA
:1054A00028160020C816002054070020780200208B
:1054B00082020020D0AC00643C18002080B500AF10
:1054C0000B4BDB78002B10D00A4B1B7842F6D072C6
:1054D0001946094821F0FFFA18F0FCFE00F06CFABA
:1054E00018F02AFF024B0022DA7000BF80BD00BF17
:1054F0002816002082020020A0DC006480B487B05F
:1055000000AFF860B9607A601B4B1B78BB74002356
:105510007B6126E0FA687B6913441B787B747A7C94
:10552000BB7C9A421AD07B681B685A1C7B681A6045
:105530007A7CBB7C5340FB740DE0FB7C013BDBB20F
:105540005AB297F9133013405BB2FB747B685B6807
:105550005A1C7B685A60FB7C002BEED17B690133BF
:105560007B617A69BB689A42D4D300BF00BF1C3705
:10557000BD465DF8047B70478202002080B586B08E
:1055800004AF6C4B1B684FF0FF31184615F0F6FF67
:1055900064230293022301933B1D009301230F22F6
:1055A000902165480EF04EF903461A46634B1A7077
:1055B000624B1B78002B0FD13B791B027A79134386
:1055C00040F21712934203D15D4B00221A7006E09D
:1055D0005B4B01221A7002E05A4B01221A706423BD
:1055E000029301230193FB1C009301230F22D3217B
:1055F00051480EF027F903461A46504B1A704F4B8C
:105600001B78002B09D1FB78D32B03D14E4B002202
:105610001A7002E04C4B01221A706423029301239A
:105620000193BB1C009301232022602142480EF00D
:1056300009F903461A46414B1A70404B1B78002B60
:1056400009D1BB78062B03D1404B00221A7002E02F
:105650003E4B01221A7064230293022301933B1DE7
:10566000009301230F22902139480EF0EBF80346F6
:105670001A46324B1A70314B1B78002B0FD13B79F5
:105680001B027A79134340F21712934203D1314B34
:1056900000221A7006E02F4B01221A7002E02E4BF6
:1056A00001221A706423029301230193FB1C0093CF
:1056B00001230F22D32126480EF0C4F803461A46D0
:1056C0001E4B1A701D4B1B78002B09D1FB78D32B76
:1056D00003D1224B00221A7002E0204B01221A70E3
:1056E0006423029301230193BB1C00930123202216
:1056F000602117480EF0A6F803461A460F4B1A70A1
:105700000E4B1B78002B09D1BB78062B03D1144B11
:1057100000221A7002E0124B01221A70054B186821
:1057200000230022002115F0E7FB00BF0837BD462B
:1057300080BD00BF20210020F40400205816002066
:105740006D020020301600206F0200207102002040
:10575000480500206E020020311600207002002053
:105760007202002080B400AF0C4B1B78002B03D1D9
:105770000B4B1B78002B0BD0094B1B785BB25B00EB
:105780005AB2064B1B785BB213435BB2DBB200E04C
:1057900000231846BD465DF8047B70477102002067
:1057A0007202002080B400AF0C4B1B78002B03D199
:1057B0000B4B1B78002B0BD0094B1B785BB25B00AB
:1057C0005AB2064B1B785BB213435BB2DBB200E00C
:1057D00000231846BD465DF8047B70476D0200202B
:1057E0006E02002080B400AF0C4B1B78002B03D15D
:1057F0000B4B1B78002B0BD0094B1B785BB25B006B
:105800005AB2064B1B785BB213435BB2DBB200E0CB
:1058100000231846BD465DF8047B70476F020020E8
:105820007002002080B400AF1A4B1B78002B0BD104
:10583000184B5B78002B07D1164B9B78002B03D1BC
:10584000144BDB78002B1CD0134B01221A70114B28
:10585000DB785BB2DB005AB20E4B9B785BB29B00ED
:105860005BB213435AB20B4B5B785BB25B005BB22B
:1058700013435AB2074B1B785BB213435BB2DBB2E4
:1058800003E0054B00221A7000231846BD465DF860
:10589000047B70475C1800207302002080B400AFC6
:1058A0000F4B1B78002B03D10E4B1B78002B0ED017
:1058B0000D4B01221A700B4B1B785BB25B005AB286
:1058C000074B1B785BB213435BB2DBB203E0064BC2
:1058D00000221A7000231846BD465DF8047B70470D
:1058E00032160020331600207402002080B400AF6E
:1058F000174B1B78002B0BD1164B1B78002B07D1B5
:10590000154B1B78002B03D1144B1B78002B19D09F
:105910000F4B1B785BB2DB005AB20E4B1B785BB2AD
:105920009B005BB213435AB20B4B1B785BB25B001C
:105930005BB213435AB2094B1B785BB213435BB2A1
:10594000DBB200E000231846BD465DF8047B7047DB
:1059500034160020C4210020351600203616002001
:1059600080B485B000AF78600023FB7307E0FB7B59
:105970007A6813441B78002B01D0012303E0FB7BE2
:10598000262BF4D9002318461437BD465DF8047B56
:105990007047000080B500AF14F0ECFE0346044AE7
:1059A000136014F0E7FE0346024A136000BF80BD97
:1059B0005C160020601600202DE9B04F8CB000AFBF
:1059C0000CF046FC484BF322DA600023BB600A234C
:1059D0003B6101237B610223BB613A1D07F1080390
:1059E000114618460CF096FD0346002B74D13F4B30
:1059F0003B624FF4FA53FB610023FB6216E0FB6A43
:105A00009B003B4A9918FB6A9B003A6A13441B6847
:105A100000229A46934652465B4602200CF0C4FB95
:105A20000346002B07D1FB6A0133FB62FA6AFB696C
:105A30009A42E4D300E000BF2E4B3B6240F6F433C1
:105A4000FB610023BB6219E0BB6A9A00284B03F597
:105A5000FA430C33D118BB6A9B003A6A13441B68A3
:105A600000229846914642464B4602200CF09CFB91
:105A70000346002B07D1BB6A0133BB62BA6AFB69DC
:105A80009A42E1D300E000BF1B4B3B6240F2771328
:105A9000FB6100237B6219E07B6A9A00144B03F5DB
:105AA0002C43E833D1187B6A9B003A6A13441B6885
:105AB00000221C46154622462B4602200CF074FBA1
:105AC0000346002B07D17B6A01337B627A6AFB694C
:105AD0009A42E1D300E000BF0CF0DCFB00BF30379E
