:020000040800F2
:1000000000000220852400082D2200083522000867
:100010003D220008452200084D2200080000000093
:10002000000000000000000000000000B1F5000822
:100030005522000800000000A1F8000809F9000896
:10004000D5240008D5240008D5240008D5240008AC
:10005000D5240008D5240008D5240008D52400089C
:1000600063220008D5240008D5240008D524000800
:10007000D5240008D5240008D5240008D52400087C
:10008000D5240008D5240008D5240008D52400086C
:10009000D5240008D5240008D5240008D52400085C
:1000A000D5240008D5240008D5240008D52400084C
:1000B000D5240008D5240008D5240008D52400083C
:1000C000D5240008D5240008D5240008D52400082C
:1000D000D5240008D5240008D52400087122000882
:1000E000D524000885220008D5240008D52400085E
:1000F000D5240008D5240008D5240008D5240008FC
:10010000D5240008D5240008D5240008D5240008EB
:1001100099220008D5240008D5240008AD22000843
:10012000D5240008D5240008D5240008D5240008CB
:10013000D5240008D5240008D5240008D5240008BB
:10014000D5240008D5240008D5240008D5240008AB
:10015000D5240008D5240008D5240008C1220008B1
:10016000D5240008D5240008D5240008D52400088B
:10017000D5240008D5240008D5240008000000007C
:08018000D5240008D524000875
:1001900010B5054C237833B9044B13B10448AFF3C1
:1001A00000800123237010BD000200200000000029
:1001B0004C2E010808B5034B1BB103490348AFF3AC
:1001C000008008BD00000000040200204C2E010841
:1001D00001F0FF01102A2BDB10F0070F08D010F8F8
:1001E000013B013A8B422DD010F0070F42B3F6D1FC
:1001F000F0B441EA012141EA014122F007047FF015
:1002000000070023F0E80256083C85EA010586EA6B
:10021000010685FA47F5A3FA87F586FA47F6A5FAA7
:1002200087F68EB9EED1F0BC01F0FF0102F00702B3
:1002300032B110F8013B013A83EA010313B1F8D15E
:100240000020704701387047002D06BF354603383F
:10025000073815F0010F07D1013015F4807F02BF78
:10026000013015F4C03F0130F0BC0138704700BFC9
:1002700081F0004102E000BF83F0004330B54FEA57
:1002800041044FEA430594EA050F08BF90EA020FC4
:100290001FBF54EA000C55EA020C7FEA645C7FEA57
:1002A000655C00F0E2804FEA5454D4EB5555B8BF7A
:1002B0006D420CDD2C4480EA020281EA030382EAEB
:1002C000000083EA010180EA020281EA0303362D7D
:1002D00088BF30BD11F0004F4FEA01314FF4801C50
:1002E0004CEA113102D0404261EB410113F0004F62
:1002F0004FEA03334CEA133302D0524263EB430319
:1003000094EA050F00F0A780A4F10104D5F1200EB6
:100310000DDB02FA0EFC22FA05F2801841F1000111
:1003200003FA0EF2801843FA05F359410EE0A5F1E5
:1003300020050EF1200E012A03FA0EFC28BF4CF016
:10034000020C43FA05F3C01851EBE37101F00045CC
:1003500007D54FF0000EDCF1000C7EEB00006EEBD9
:100360000101B1F5801F1BD3B1F5001F0CD3490863
:100370005FEA30004FEA3C0C04F101044FEA4452BA
:1003800012F5800F80F09A80BCF1004F08BF5FEA41
:10039000500C50F1000041EB045141EA050130BD21
:1003A0005FEA4C0C404141EB0101013C28BFB1F533
:1003B000801FE9D291F0000F04BF01460020B1FA7E
:1003C00081F308BF2033A3F10B03B3F120020CDA51
:1003D0000C3208DD02F1140CC2F10C0201FA0CF02F
:1003E00021FA02F10CE002F11402D8BFC2F1200C94
:1003F00001FA02F120FA0CFCDCBF41EA0C0190404A
:10040000E41AA2BF01EB0451294330BD6FEA040492
:100410001F3C1CDA0C340EDC04F11404C4F120027D
:1004200020FA04F001FA02F340EA030021FA04F38F
:1004300045EA030130BDC4F10C04C4F1200220FAE6
:1004400002F001FA04F340EA0300294630BD21FA24
:1004500004F0294630BD94F0000F83F4801306BFEA
:1004600081F480110134013D4EE77FEA645C18BFDE
:100470007FEA655C29D094EA050F08BF90EA020F75
:1004800005D054EA000C04BF1946104630BD91EA6D
:10049000030F1EBF0021002030BD5FEA545C05D170
:1004A0004000494128BF41F0004130BD14F58004AF
:1004B0003CBF01F5801130BD01F0004545F0FE4123
:1004C00041F470014FF0000030BD7FEA645C1ABF58
:1004D000194610467FEA655C1CBF0B46024650EA8F
:1004E000013406BF52EA033591EA030F41F40021BB
:1004F00030BD00BF90F0000F04BF0021704730B541
:100500004FF4806404F132044FF000054FF0000115
:1005100050E700BF90F0000F04BF0021704730B5D6
:100520004FF4806404F1320410F0004548BF4042AB
:100530004FF000013EE700BF42004FEAE2014FEA00
:1005400031014FEA02701FBF12F07F4393F07F4FDB
:1005500081F06051704732F07F4208BF704793F0DE
:100560007F4F04BF41F40021704730B54FF46074F1
:1005700001F0004521F000411CE700BF50EA0102F4
:1005800008BF704730B54FF000050AE050EA01029D
:1005900008BF704730B511F0004502D5404261EB0D
:1005A00041014FF4806404F132045FEA915C3FF44E
:1005B000D8AE4FF003025FEADC0C18BF03325FEAEB
:1005C000DC0C18BF033202EBDC02C2F1200300FA9C
:1005D00003FC20FA02F001FA03FE40EA0E0021FAC1
:1005E00002F11444BDE600BF70B54FF0FF0C4CF4AF
:1005F000E06C1CEA11541DBF1CEA135594EA0C0F61
:1006000095EA0C0F00F0DEF82C4481EA030621EA9B
:100610004C5123EA4C5350EA013518BF52EA0335D6
:1006200041F4801143F4801338D0A0FB02CE4FF088
:100630000005E1FB02E506F00042E0FB03E54FF0B8
:100640000006E1FB03569CF0000F18BF4EF0010EB0
:10065000A4F1FF04B6F5007F64F5407404D25FEAAC
:100660004E0E6D4146EB060642EAC62141EA55515F
:100670004FEAC52040EA5E504FEACE2EB4F1FD0CA1
:1006800088BFBCF5E06F1ED8BEF1004F08BF5FEA1F
:10069000500E50F1000041EB045170BD06F00046D1
:1006A00046EA010140EA020081EA0301B4EB5C047E
:1006B000C2BFD4EB0C0541EA045170BD41F4801176
:1006C0004FF0000E013C00F3AB8014F1360FDEBF9B
:1006D000002001F0004170BDC4F10004203C35DA77
:1006E0000C341BDC04F11404C4F1200500FA05F3FA
:1006F00020FA04F001FA05F240EA020001F000429B
:1007000021F0004110EBD37021FA04F642EB060110
:100710005EEA430E08BF20EAD37070BDC4F10C043A
:10072000C4F1200500FA04F320FA05F001FA04F2FE
:1007300040EA020001F0004110EBD37041F10001EA
:100740005EEA430E08BF20EAD37070BDC4F12005F5
:1007500000FA05F24EEA020E20FA04F301FA05F25D
:1007600043EA020321FA04F001F0004121FA04F205
:1007700020EA020000EBD3705EEA430E08BF20EAD5
:10078000D37070BD94F0000F0FD101F0004640000F
:1007900041EB010111F4801F08BF013CF7D041EA91
:1007A000060195F0000F18BF704703F00046520095
:1007B00043EB030313F4801F08BF013DF7D043EA66
:1007C0000603704794EA0C0F0CEA135518BF95EA1C
:1007D0000C0F0CD050EA410618BF52EA4306D1D1A3
:1007E00081EA030101F000414FF0000070BD50EAC2
:1007F000410606BF1046194652EA430619D094EA4C
:100800000C0F02D150EA013613D195EA0C0F05D135
:1008100052EA03361CBF104619460AD181EA030189
:1008200001F0004141F0FE4141F470014FF0000041
:1008300070BD41F0FE4141F4780170BD70B54FF0DC
:10084000FF0C4CF4E06C1CEA11541DBF1CEA13555C
:1008500094EA0C0F95EA0C0F00F0A7F8A4EB05043E
:1008600081EA030E52EA03354FEA013100F0888035
:100870004FEA03334FF0805545EA131343EA1263FE
:100880004FEA022245EA111545EA10654FEA0026B3
:100890000EF000419D4208BF964244F1FD0404F56C
:1008A000407402D25B084FEA3202B61A65EB0305C8
:1008B0005B084FEA32024FF480104FF4002CB6EB85
:1008C000020E75EB030E22BFB61A754640EA0C0005
:1008D0005B084FEA3202B6EB020E75EB030E22BF45
:1008E000B61A754640EA5C005B084FEA3202B6EB86
:1008F000020E75EB030E22BFB61A754640EA9C0045
:100900005B084FEA3202B6EB020E75EB030E22BF14
:10091000B61A754640EADC0055EA060E18D04FEAD2
:10092000051545EA16754FEA06164FEAC30343EA72
:1009300052734FEAC2025FEA1C1CC0D111F4801F3F
:100940000BD141EA00014FF000004FF0004CB6E738
:1009500011F4801F04BF01430020B4F1FD0C88BFD7
:10096000BCF5E06F3FF6AFAEB5EB030C04BFB6EBE2
:10097000020C5FEA500C50F1000041EB045170BDD5
:100980000EF0004E4EEA113114EB5C04C2BFD4EB02
:100990000C0541EA045170BD41F480114FF0000E86
:1009A000013C90E645EA060E8DE60CEA135594EA02
:1009B0000C0F08BF95EA0C0F3FF43BAF94EA0C0F05
:1009C0000AD150EA01347FF434AF95EA0C0F7FF47A
:1009D00025AF104619462CE795EA0C0F06D152EACE
:1009E00003353FF4FDAE1046194622E750EA4106B2
:1009F00018BF52EA43067FF4C5AE50EA41047FF4C3
:100A00000DAF52EA43057FF4EBAE12E74FF0FF3C27
:100A100006E000BF4FF0010C02E000BF4FF0010CF8
:100A20004DF804CD4FEA410C7FEA6C5C4FEA430C71
:100A300018BF7FEA6C5C1BD001B050EA410C0CBFC0
:100A400052EA430C91EA030F02BF90EA020F002022
:100A5000704710F1000F91EA030F58BF994208BF89
:100A600090422CBFD8176FEAE37040F00100704746
:100A70004FEA410C7FEA6C5C02D150EA013C07D19D
:100A80004FEA430C7FEA6C5CD6D152EA033CD3D0E8
:100A90005DF8040B704700BF8446104662468C46E2
:100AA0001946634600E000BF01B5FFF7B7FF002815
:100AB00048BF10F1000F01BD4DF808EDFFF7F4FF3E
:100AC0000CBF012000205DF808FB00BF4DF808EDC9
:100AD000FFF7EAFF34BF012000205DF808FB00BFEC
:100AE0004DF808EDFFF7E0FF94BF012000205DF80E
:100AF00008FB00BF4DF808EDFFF7CEFF94BF0120C3
:100B000000205DF808FB00BF4DF808EDFFF7C4FFBB
:100B100034BF012000205DF808FB00BF4A0011D25D
:100B200012F5001211D20DD56FF47873B3EB625247
:100B30000ED44FEAC12343F0004343EA505323FA53
:100B400002F070474FF00000704750EA013002D1C8
:100B50004FF0FF3070474FF0000070474FEA4102FE
:100B6000B2F1E04324BFB3F5001CDCF1FE5C0DD90B
:100B700001F0004C4FEAC0024CEA5070B2F1004F55
:100B800040EB830008BF20F00100704711F0804F58
:100B900021D113F13872BCBF01F00040704741F41D
:100BA00080114FEA5252C2F11802C2F1200C10FA21
:100BB0000CF320FA02F018BF40F001004FEAC12305
:100BC0004FEAD32303FA0CFC40EA0C0023FA02F3A9
:100BD0004FEA4303CCE77FEA625307D150EA01337F
:100BE0001EBF4FF0FE4040F44000704701F000404F
:100BF00040F0FE4040F40000704700BF53B94AB9CE
:100C0000002908BF00281CBF4FF0FF314FF0FF3014
:100C100000F0BEB9ADF1080C6DE904CE00F03CF86F
:100C2000DDF804E0DDE9022304B0704738B50022A6
:100C3000002304460D46FFF749FF28B92046294600
:100C4000BDE8384000F00AB8204605F1004100F048
:100C500005F8404261EB410138BD00BFD0B50C4BF7
:100C6000002206460F46FFF7BFFCFFF757FF04467A
:100C7000FFF740FC074B0022FFF7B6FC02460B468D
:100C800030463946FFF7F8FAFFF748FF2146D0BD56
:100C90000000F03D0000F0412DE9F047089D8E4630
:100CA00004468846002B4AD18A42174662D9B2FAD6
:100CB00082F64EB1C6F1200301FA06F820FA03F3DA
:100CC000B74043EA0808B4404FEA174E1FFA87FCC2
:100CD000B8FBFEF1230C0EFB118843EA084301FB2D
:100CE0000CF29A4209D9FB1801F1FF3080F0EA803A
:100CF0009A4240F2E78002393B449A1AA3B2B2FB0F
:100D0000FEF00EFB102243EA024300FB0CFC9C4564
:100D100009D9FB1800F1FF3280F0D6809C4540F2E3
:100D2000D3803B44023840EA0140A3EB0C0300218E
:100D30001DB1F3400022C5E90032BDE8F0878B42C7
:100D400005D90DB1C5E9000100210846F5E7B3FA60
:100D500083F1002946D1734502D3824200F2058116
:100D6000841A6EEB030201209046002DE5D0C5E900
:100D70000048E2E7002A00F09080B2FA82F6002EE6
:100D800040F0A4808A1A030C4FEA174E80B2BCB21E
:100D90000121B2FBFEFC0EFB1C2243EA024304FBD2
:100DA0000CF29A4207D9FB180CF1FF3802D29A4292
:100DB00000F2E080C4469B1AB3FBFEF20EFB123336
:100DC00040EA034302FB04F49C4207D9FB1802F1FA
:100DD000FF3002D29C4200F2CA8002461B1B42EA4C
:100DE0000C40A5E7C1F120068B4022FA06F71F430D
:100DF0000EFA01F420FA06F32EFA06FE4FEA17491E
:100E0000234300FA01F81FFA87FCBEFBF9F01C0C23
:100E100009FB10EE44EA0E4400FB0CFEA64502FA64
:100E200001F209D93C1900F1FF3A80F09C80A645F7
:100E300040F2998002383C44A4EB0E041FFA83FE72
:100E4000B4FBF9F309FB13444EEA044403FB0CFC26
:100E5000A44508D93C1903F1FF3E80F08280A445E7
:100E60007FD9023B3C4443EA0040A4EB0C04A0FBC6
:100E700002EC64457346E14662D35FD05DB1B8EBE6
:100E8000030264EB090404FA06F622FA01F31E4396
:100E9000CC40C5E9006400214FE7B1FBF2FC010C36
:100EA00041EA0E4180B240EA01423B4638463C46A8
:100EB000B846BE462026B1FBF7F1A2EB080241EA94
:100EC0000C4166E7014618E710462CE7C6F1200200
:100ED0002EFA02F3B740B14020FA02F24FEA174E61
:100EE0000A43B3FBFEF8BCB20EFB1833110C41EA07
:100EF000034108FB04F9B04089454FEA104380B232
:100F00003ED9791808F1FF3C01D289451FD8A1EBE1
:100F10000901B1FBFEF909FB04F80EFB191192B2AD
:100F200042EA0142424529D2BA1809F1FF31C4D23E
:100F30004245C2D2A9F102013A44BEE7F0459DD232
:100F4000BEEB02036CEB070C0138E14696E7A7EB1A
:100F500009094944A8F1020CB1FBFEF909FB04F8A8
:100F6000DBE773467FE7504666E70846FDE63B440D
:100F7000023A33E7ACF1020C3B441CE749469CE7DC
:100F8000A1EB0901C446B1FBFEF909FB04F8C4E773
:100F9000704700BF80B582B002AF4A4B4A4A07CAC9
:100FA00003C31A800233120C1A7004F059FB00F0CC
:100FB000B7F800F013FB00F0F5FB00F01BF900F0B0
:100FC00047F900F073F900F035FA00F053FA00F039
:100FD00087FA00F0D9FA0BF089FC00F095F900F0DF
:100FE000A9FA642004F07AFB03F0D2FC01F062FF5E
:100FF000034601221946354809F0F3FE01F050FF7F
:10100000034601221946324809F0EBFE0021002078
:1010100001F00EFF2F4801F0C5FB2F4801F0C2FB85
:1010200003F086FF00F012FD03F022F804F036FA18
:1010300003F020FA294B01930123009300234FF47E
:101040009062274927480CF0C0FC0023019301233C
:10105000009300234FF4C072234924480CF0B5FCE0
:10106000234B01930123009300234FF42072214965
:1010700021480CF0AAFC214B01930123009300238B
:101080004FF4C0721E491F480CF09FFC1E4B019389
:101090000123009300234FF4C0721C491C480CF03C
:1010A00094FC1C4B01930123009300234FF4207206
:1010B00019491A480CF089FC03F0A0FC0CF0DCFE86
:1010C00000BFFDE790050020682E01085C040020A9
:1010D000140400201C02002070020020487E002022
:1010E000742E0108155500087C2E0108A95300082C
:1010F000C4160020842E010875370008185D0020F2
:10110000902E0108194C00081C5D0020982E010843
:10111000F14C0008205D00209C2E0108AD4D000818
:1011200080B594B000AF07F12003302200211846AB
:101130000FF043FF07F10C0300221A605A609A6017
:10114000DA601A610023BB60284B1B6C274A43F00E
:1011500080531364254B1B6C03F08053BB60BB684A
:1011600000237B60224B1B68214A43F480431360B9
:101170001F4B1B6803F480437B607B680A233B6240
:101180000123FB6210233B6301237B630223BB63C8
:101190000023FB6308233B6454237B640223BB646A
:1011A0000423FB6407F12003184606F0DFFA034628
:1011B000002B01D000F084FC0F23FB6002233B6175
:1011C00080237B610023BB610023FB6107F10C03DB
:1011D0000121184606F042FD0346002B01D000F025
:1011E0006FFC00BF5037BD4680BD00BF00380240D5
:1011F0000070004080B500AF124B134A1A60114BCB
:10120000124A5A600F4B00229A600E4B0022DA609D
:101210000C4B4FF480421A610A4B00225A61094B71
:1012200000229A61074B0022DA61064B00221A6203
:10123000044804F0F7FD0346002B01D000F040FC09
:1012400000BF80BD1C02002000540040A0860100A9
:1012500080B500AF124B134A1A60114B124A5A6004
:101260000F4B00229A600E4B0022DA600C4B4FF4B9
:1012700080421A610A4B00225A61094B00229A618E
:10128000074B0022DA61064B00221A62044804F080
:10129000C9FD0346002B01D000F012FC00BF80BD49
:1012A0007002002000580040A086010080B500AF09
:1012B000124B134A1A60114B124A5A600F4B00220C
:1012C0009A600E4B0022DA600C4B4FF480421A6198
:1012D0000A4B00225A61094B00229A61074B0022F7
:1012E000DA61064B00221A62044804F09BFD0346B3
:1012F000002B01D000F0E4FB00BF80BDC402002041
:10130000005C0040A086010080B590B000AF07F1FE
:101310002C0300221A605A609A60DA601A61002376
:10132000BB623B462822002118460FF046FE3F4B89
:101330003F4A1A603D4B00225A603C4B7F229A6024
:101340003A4BFF22DA60394B00221A61374B0022F8
:101350005A61364B00229A61344806F073FF034607
:10136000002B01D000F0ACFB002387F82C300023C9
:1013700087F82D30002387F82E300023BB6300232D
:10138000FB6307F12C0301221946284806F0DDFF14
:101390000346002B01D000F093FB022387F828308E
:1013A000042387F82930282387F82A30252387F853
:1013B0002B3007F12803012219461C4807F0BDF81D
:1013C0000346002B01D000F07BFB00233B70012380
:1013D0007B700023BB7000237B600023FB60002335
:1013E0003B614FF000437B610023BB610023FB6145
:1013F000012387F820304FF480737B623B46012243
:1014000019460A4807F06CF90346002B01D000F09A
:1014100057FB00220521292004F03CFA292004F082
:1014200055FA00BF4037BD4680BD00BF18030020FD
:101430000028004080B400AF0C4B0D4A1A600B4BE3
:1014400000225A60094B00229A60084B0022DA60A1
:10145000064B00221A61054B00225A61034B0422FD
:101460009A6100BFBD465DF8047B704738030020D9
:10147000002C014080B500AF174B184A1A60164B7C
:101480004FF482725A60144B00229A60124B002271
:10149000DA60114B00221A610F4B00225A610E4B89
:1014A0004FF400729A610C4B1022DA610A4B002251
:1014B0001A62094B00225A62074B00229A62064BBD
:1014C0000A22DA62044808F0F5FA0346002B01D03C
:1014D00000F0F6FA00BF80BDBC030020003C0040D5
:1014E00080B500AF114B124A1A60104B4FF41652E0
:1014F0005A600E4B00229A600C4B0022DA600B4BB4
:1015000000221A61094B0C225A61084B00229A6191
:10151000064B0022DA61054809F088FB0346002BE0
:1015200001D000F0CDFA00BF80BD00BF1404002040
:10153000004C004080B500AF114B124A1A60104BAE
:101540004FF416525A600E4B00229A600C4B002248
:10155000DA600B4B00221A61094B0C225A61084BCE
:1015600000229A61064B0022DA61054809F05EFB11
:101570000346002B01D000F0A3FA00BF80BD00BFDE
:101580005C0400200048004080B500AF114B124AB7
:101590001A60104B4FF416525A600E4B00229A609C
:1015A0000C4B0022DA600B4B00221A61094B0C2213
:1015B0005A61084B00229A61064B0022DA61054805
:1015C00009F034FB0346002B01D000F079FA00BF8C
:1015D00080BD00BFA40400200014014080B58EB07F
:1015E00000AF07F1240300221A605A609A60DA60A3
:1015F0001A6100233B62664B1B6B654A43F0040390
:101600001363634B1B6B03F004033B623B6A0023D1
:10161000FB615F4B1B6B5E4A43F0200313635C4B23
:101620001B6B03F02003FB61FB690023BB61584B7C
:101630001B6B574A43F080031363554B1B6B03F03E
:101640008003BB61BB6900237B61514B1B6B504A1C
:1016500043F0010313634E4B1B6B03F001037B61EB
:101660007B6900233B614A4B1B6B494A43F00203F1
:101670001363474B1B6B03F002033B613B69002381
:10168000FB60434B1B6B424A43F040031363404BE8
:101690001B6B03F04003FB60FB680023BB603C4B0B
:1016A0001B6B3B4A43F010031363394B1B6B03F076
:1016B0001003BB60BB6800237B60354B1B6B344A57
:1016C00043F008031363324B1B6B03F008037B608A
:1016D0007B68002242F230212E4804F04BFB0022AE
:1016E0004FF440412C4804F045FB42F230237B622A
:1016F0000123BB620023FB6200233B6307F1240349
:101700001946244804F082F904237B624FF48813BD
:10171000BB620023FB6207F1240319461F4804F053
:1017200075F94FF400737B624FF48813BB6200239A
:10173000FB6207F124031946174804F067F94FF4D8
:1017400080737B620023BB620023FB6207F12403EA
:101750001946134804F05AF94FF440437B620123C1
:10176000BB620023FB6200233B6307F1240319469D
:10177000094804F04BF900220021082004F08AF8FF
:10178000082004F0A3F800BF3837BD4680BD00BF75
:101790000038024000080240001C024000040240E1
:1017A0000018024080B588B000AF3B1D00221A60CF
:1017B0005A609A60DA601A615A619A614D4B4FF033
:1017C00020421A604B4B4C4A5A604A4B00229A60A6
:1017D000484B0022DA60474B00221A61454B102229
:1017E0005A61444B00229A61424B0022DA61414B1C
:1017F00000221A623F4B00225A623E4B4FF4805245
:101800009A623C4B0022DA623A4B00221A63394B4F
:101810004FF400425A63374B00229A63354B002243
:101820005A640F237B600F23BB60FF23FB600F23F1
:101830003B6110237B611123BB610023FB613B1DD6
:10184000002219462B4808F007FF0346002B01D061
:1018500000F036F9294B4FF020421A60274B264AF8
:101860005A60264B02229A60244B0022DA60234BF6
:1018700000221A61214B10225A61204B00229A61EA
:101880001E4B0022DA611D4B00221A621B4B002204
:101890005A621A4B4FF480529A62184B0022DA6255
:1018A000164B00221A63154B4FF400425A63134B38
:1018B00000229A63114B00225A640F237B600F238E
:1018C000BB60FF23FB600F233B6110237B6111236F
:1018D000BB610023FB613B1D00221946074808F04D
:1018E000BBFE0346002B01D000F0EAF800BF203712
:1018F000BD4680BDEC040020040100A03C05002092
:1019000080B584B000AF78600023BB607B681B6843
:101910003E4A934221D101F0CDFA03461B78FB7376
:101920003B4B186807F1080207F10F0100230BF089
:1019300031FCBB68002B07D0364B4FF080521A6049
:10194000BFF34F8FBFF36F8F01F0B4FA034601224C
:101950001946314809F045FA4CE07B681B682F4A6C
:10196000934221D101F09CFA03461B78FB732C4B68
:10197000186807F1080207F10F0100230BF00AFCB9
:10198000BB68002B07D0234B4FF080521A60BFF387
:101990004F8FBFF36F8F01F083FA03460122194680
:1019A000204809F01EFA25E07B681B681E4A934216
:1019B00020D102F07FFD03461B78FB731B4B186898
:1019C00007F1080207F10F0100230BF0E3FBBB68EE
:1019D000002B07D00F4B4FF080521A60BFF34F8F90
:1019E000BFF36F8F02F066FD0346012219461048CF
:1019F00009F0F7F90F4B1B6807F1080200211846A0
:101A00000DF0E2FB00BF1037BD4680BD004800402E
:101A1000E45C002004ED00E05C040020004C004089
:101A2000E85C00201404002000140140EC5C00205D
:101A3000A4040020487E002080B483B000AF78600A
:101A400000BF0C37BD465DF8047B704780B400AF23
:101A5000114B1B68104A23F4405313600E4B1B6854
:101A60000D4A43F4805313600B4B5B680A4A23F022
:101A700040035360084B9B68074A23F4405393602C
:101A8000054BDB68044A23F44053D36000BFBD46D6
:101A90005DF8047B704700BF0008024080B582B04B
:101AA00000AF78607B681B68044A934201D103F061
:101AB000F5FD00BF0837BD4680BD00BF00140040E3
:101AC00080B400AF72B600BF00BFFDE780B483B042
:101AD00000AF00237B60104B5B6C0F4A43F48043E4
:101AE00053640D4B5B6C03F480437B607B68002385
:101AF0003B60094B1B6C084A43F080531364064B50
:101B00001B6C03F080533B603B6800BF0C37BD4645
:101B10005DF8047B704700BF0038024080B58EB08E
:101B200000AF786007F1240300221A605A609A60BF
:101B3000DA601A617B681B684B4A93422CD1002300
:101B40003B624A4B1B6B494A43F002031363474B0A
:101B50001B6B03F002033B623B6AC0237B621223D0
:101B6000BB620023FB6203233B6304237B6307F117
:101B7000240319463E4803F049FF0023FB613B4B19
:101B80001B6C3A4A43F400131364384B1B6C03F488
:101B90000013FB61FB6963E07B681B68354A934275
:101BA0002CD10023BB61314B1B6B304A43F08003C7
:101BB00013632E4B1B6B03F08003BB61BB693023A7
:101BC0007B621223BB620023FB6203233B6304237B
:101BD0007B6307F124031946274803F017FF00230E
:101BE0007B61224B1B6C214A43F4800313641F4B1F
:101BF0001B6C03F480037B617B6931E07B681B68AD
:101C00001E4A93422CD100233B61184B1B6B174A91
:101C100043F080031363154B1B6B03F080033B61A0
:101C20003B694FF4C0737B621223BB620023FB62EB
:101C300003233B6304237B6307F1240319460E4807
:101C400003F0E4FE0023FB60084B1B6C074A43F4DF
:101C500000031364054B1B6C03F40003FB60FB687B
:101C600000BF3837BD4680BD0054004000380240F8
:101C70000004024000580040001C0240005C00408C
:101C800080B586B000AF786007F1080300221A60C3
:101C90005A609A60DA607B681B68104A934219D1D7
:101CA0000223BB604FF400737B6107F10803184601
:101CB00006F0E6F90346002B01D0FFF701FF084BC1
:101CC00001221A6000220521292003F0E3FD2920CA
:101CD00003F0FCFD00BF1837BD4680BD0028004062
:101CE0003C0E474280B58AB000AF786007F114031C
:101CF00000221A605A609A60DA601A617B681B6879
:101D0000314A93425BD100233B61304B5B6C2F4ADD
:101D100043F4006353642D4B5B6C03F400633B613D
:101D20003B690023FB60294B1B6B284A43F00403EB
:101D30001363264B1B6B03F00403FB60FB6800235B
:101D4000BB60224B1B6B214A43F0080313631F4BFC
:101D50001B6B03F00803BB60BB684FF480737B61AF
:101D60000223BB610123FB6103233B620C237B62E3
:101D700007F114031946164803F048FE4FF4805348
:101D80007B610223BB610023FB6103233B620C23C5
:101D90007B6207F1140319460D4803F037FE042354
:101DA0007B610223BB610123FB6103233B620C23A4
:101DB0007B6207F114031946064803F027FE00BFB3
:101DC0002837BD4680BD00BF002C014000380240CE
:101DD00000080240000C024080B58AB000AF786075
:101DE00007F1140300221A605A609A60DA601A61DF
:101DF0007B681B68284A93424AD100233B61274BEA
:101E00001B6C264A43F400431364244B1B6C03F4FD
:101E100000433B613B690023FB60204B1B6B1F4A67
:101E200043F0040313631D4B1B6B03F00403FB60BF
:101E3000FB680023BB60194B1B6B184A43F002037D
:101E40001363164B1B6B03F00203BB60BB684FF4BC
:101E500040637B610223BB610023FB6103233B6280
:101E600006237B6207F1140319460D4803F0CEFDEB
:101E700020237B610223BB610023FB6103233B62C0
:101E800006237B6207F114031946064803F0BEFDE2
:101E900000BF2837BD4680BD003C004000380240EE
:101EA000000802400004024080B58EB000AF7860A8
:101EB00007F1240300221A605A609A60DA601A61FE
:101EC0007B681B68574A934234D100233B62564BD0
:101ED0001B6C554A43F400231364534B1B6C03F4EF
:101EE00000233B623B6A0023FB614F4B1B6B4E4A56
:101EF00043F0010313634C4B1B6B03F00103FB61C5
:101F0000FB6903237B620223BB620023FB62032382
:101F10003B6308237B6307F124031946434803F01E
:101F200075FD00220521342003F0B4FC342003F0B9
:101F3000CDFC73E07B681B683D4A934235D100239A
:101F4000BB61394B1B6C384A43F480231364364B16
:101F50001B6C03F48023BB61BB6900237B61324BA4
:101F60001B6B314A43F0020313632F4B1B6B03F0CF
:101F700002037B617B694FF440637B620223BB6297
:101F80000023FB6203233B6307237B6307F12403E6
:101F90001946284803F03AFD00220521272003F0C6
:101FA00079FC272003F092FC38E07B681B68224A0A
:101FB000934233D100233B611B4B5B6C1A4A43F0C5
:101FC00020035364184B5B6C03F020033B613B69B7
:101FD0000023FB60144B1B6B134A43F00403136391
:101FE000114B1B6B03F00403FB60FB68C0237B6297
:101FF0000223BB620023FB6203233B6308237B6352
:1020000007F1240319460D4803F000FD00220521C5
:10201000472003F03FFC472003F058FC00BF38374F
:10202000BD4680BD004C0040003802400000024028
:102030000048004000040240001401400008024033
:1020400080B586B000AF3B1D00221A605A609A60CE
:10205000DA601A612C4B1B68002B51D12A4B0122EC
:102060001A6000233B60294B9B6B284A43F0010315
:102070009363264B9B6B03F001033B603B684FF27D
:102080003F037B600223BB600023FB6003233B61B3
:102090000C237B613B1D19461D4803F0B7FC40F241
:1020A0003F237B600223BB600023FB6003233B6173
:1020B0000C237B613B1D1946164803F0A7FC4FF625
:1020C00080737B600223BB600023FB6003233B61C2
:1020D0000C237B613B1D19460F4803F097FC4CF223
:1020E000F3737B600223BB600023FB6003233B612F
:1020F0000C237B613B1D1946084803F087FC00E078
:1021000000BF1837BD4680BDE815002000380240EA
:10211000001402400018024000100240000C02406F
:1021200080B582B000AF7860FFF78AFF00BF083744
:10213000BD4680BD80B58EB000AF78600023FB62E5
:102140000023BB620023FB60334B1B6C324A43F01D
:1021500020031364304B1B6C03F02003FB60FB680F
:1021600007F1100207F114031146184605F056FF57
:102170003B6AFB62FB6A002B03D105F027FF786303
:1021800004E005F023FF03465B007B637B6B234A7F
:10219000A2FB03239B0C013BBB62214B214A1A602B
:1021A0001F4B40F2E732DA601D4ABB6A53601C4B9A
:1021B00000221A611A4B00229A60194B00229A6180
:1021C000174808F091FA034687F8333097F8333010
:1021D000002B1BD1124808F0E1FA034687F8333090
:1021E00097F83330002B11D1372003F06FFB7B6859
:1021F0000F2B08D800227968372003F04BFB0A4ADE
:102200007B68136002E0012387F8333097F833309E
:1022100018463837BD4680BD0038024083DE1B4378
:10222000EC150020001400402800002080B400AF0E
:1022300000BFFDE780B400AF00BFFDE780B400AF92
:1022400000BFFDE780B400AF00BFFDE780B400AF82
:1022500000BFFDE780B400AF00BFBD465DF8047B62
:10226000704780B500AF042003F0B8FD00BF80BD0B
:1022700080B500AF024808F0D9FD00BF80BD00BFA7
:102280005C04002080B500AF024806F06DFB00BF83
:1022900080BD00BF1803002080B500AF024808F0E1
:1022A000C5FD00BF80BD00BF1404002080B500AF95
:1022B000024808F0E3FA00BF80BD00BFEC15002023
:1022C00080B500AF024808F0B1FD00BF80BD00BF7F
:1022D000A404002080B400AF01231846BD465DF879
:1022E000047B704780B582B000AF786039600EF033
:1022F0002FFF034616221A604FF0FF3318460837A7
:10230000BD4680BD80B582B000AF78604FF0FF3130
:102310007868FFF7E7FF00BFFDE780B586B000AF44
:10232000F860B9607A6000237B610AE0AFF3008057
:102330000146BB685A1CBA60CAB21A707B69013385
:102340007B617A697B689A42F0DB7B6818461837B4
:10235000BD4680BD80B586B000AFF860B9607A60D8
:1023600000237B6109E0BB685A1CBA601B781846E1
:10237000AFF300807B6901337B617A697B689A42A5
:10238000F1DB7B6818461837BD4680BD80B483B04A
:1023900000AF78604FF0FF3318460C37BD465DF84C
:1023A000047B704780B483B000AF786039603B68CD
:1023B0004FF400525A60002318460C37BD465DF8B2
:1023C000047B704780B483B000AF78600123184667
:1023D0000C37BD465DF8047B704780B485B000AF14
:1023E000F860B9607A60002318461437BD465DF87E
:1023F000047B704780B586B000AF7860144A154BF7
:10240000D31A7B617B693B61134B1B68002B02D1A4
:10241000114B124A1A60104B1A687B6813443A69D0
:102420009A4207D20EF094FE03460C221A604FF037
:10243000FF3309E0084B1B68FB60074B1A687B6899
:102440001344054A1360FB6818461837BD4680BD23
:10245000000002200004000034160020008101204A
:1024600080B400AF064BD3F88830054A43F47003BC
:10247000C2F8883000BFBD465DF8047B704700BFDE
:1024800000ED00E0DFF834D0FFF7EAFF0C480D491B
:102490000D4A002302E0D458C4500433C4188C42BF
:1024A000F9D30A4A0A4C002301E013600432A24225
:1024B000FBD30EF053FEFEF76DFD704700000220C7
:1024C00000000020FC010020483501080002002027
:1024D00000810120FEE780B588B004AF7860232337
:1024E000BB73642302930123019307F10E0300934E
:1024F00001232122D221786804F008F90346FB73F6
:10250000FB7B002B01D0FB7B6EE000237B736423FD
:1025100002930123019307F10D030093012322226B
:10252000D221786804F0F2F80346FB73FB7B002BA2
:1025300001D0FB7B58E000233B736423029301230B
:10254000019307F10C03009301232322D221786821
:1025500004F0DCF80346FB73FB7B002B01D0FB7B14
:1025600042E00023FB72642302930123019307F1ED
:102570000B03009301232522D221786804F0C6F8CA
:102580000346FB73FB7B002B01D0FB7B2CE013236A
:10259000BB72642302930123019307F10A030093A2
:1025A00001232422D221786804F0B0F80346FB739B
:1025B000FB7B002B01D0FB7B16E00F237B72642397
:1025C00002930123019307F10903009301232022C1
:1025D000D221786804F09AF80346FB73FB7B002B4A
:1025E00001D0FB7B00E0002318461037BD4680BDBC
:1025F00080B588B004AF78603960364B1B684FF007
:10260000FF3118460AF05EFF64230293062301930C
:1026100007F1080300930123A822D221786804F06F
:102620006FF90346002B01D001234FE0294B1868B6
:102630000023002200210AF0ABFC7B7A1BB21B02B4
:102640001AB23B7A1BB213431AB23B685A84FB7A24
:102650001BB21B021AB2BB7A1BB213431AB23B68FD
:102660009A847B7B1BB21B021AB23B7B1BB21343C7
:102670001AB23B68DA843B68B3F9223007EE903A2D
:10268000F8EEE77A9FED147A67EE877A3B68C3ED40
:10269000037A3B68B3F9243007EE903AF8EEE77A14
:1026A0009FED0D7A67EE877A3B68C3ED047A3B684D
:1026B000B3F9263007EE903AF8EEE77A9FED067A06
:1026C00067EE877A3B68C3ED057A0023184610371A
:1026D000BD4680BD085D0020295C0F3C80B588B0F8
:1026E00004AF78604FF40873FB81642302930223E4
:1026F000019307F10E0300930123012290217868D2
:1027000004F004F800BF1037BD4680BD0000000093
:1027100080B588B004AF78603960214B1B684FF0FA
:10272000FF3118460AF0CEFE642302930223019380
:1027300007F10C030093012300229021786804F034
:10274000DFF8174B18680023002200210AF020FC54
:102750003B7B1BB21B021AB27B7B1BB213431BB227
:102760009AB23B681A853B681B8D1846FDF7D2FE6E
:1027700009A3D3E90023FDF737FF02460B461046B5
:102780001946FEF7EBF902463B689A6100BF103725
:10279000BD4680BDAFF30080DE718A8EE4F27F3FDC
:1027A000085D002080B582B000AF78607868FFF7E0
:1027B00092FE7868FFF792FF00BF0837BD4680BDE4
:1027C00080B582B000AF7860396039687868FFF70B
:1027D0000FFF39687868FFF79BFF32200BF0CCFAC7
:1027E0003968786800F022F900BF0837BD4680BD1F
:1027F00080B586B002AF786048F20703BB8107F16D
:102800000C026423009302236021786803F04EFCDD
:10281000322002F063FF20237B7307F10C02642354
:10282000009302236021786803F040FC012002F04D
:1028300055FF00BF1037BD4680BD80B586B002AFE2
:10284000786048F20703BB8107F10C026423009310
:1028500002236021786803F029FC322002F03EFF59
:1028600040237B7307F10C02642300930223602151
:10287000786803F01BFC012002F030FF00BF103726
:10288000BD4680BD80B58CB002AFF860B9607A609B
:102890003B60002387F827300723FB77FB7F3B75DE
:1028A00001237B755F4B1B684FF0FF3118460AF020
:1028B00009FE07F114026423009302236021F868E3
:1028C00003F0F4FB574B18680023002200210AF0A4
:1028D0005FFB0A200BF050FA0623FB77514B1B6875
:1028E0004FF0FF3118460AF0EDFD07F11F02642397
:1028F000009301236021F86803F0D8FB07F11E0262
:102900006423009301236021F86803F0CDFC454B5C
:1029100018680023002200210AF03AFB97F82730BC
:10292000013387F82730BB7F03F00103002B03D16D
:1029300097F82730042BCFD9BB7F03F00103002B7E
:102940000CD13B684FF000021A603B681A687B6844
:102950001A607B681A68BB681A6060E00023FB7726
:10296000304B1B684FF0FF3118460AF0ABFD07F102
:102970001F026423009301236021F86803F096FB93
:1029800007F118026423009306236021F86803F01E
:102990008BFC244B18680023002200210AF0F8FA6F
:1029A0007B7E1BB21B021AB23B7E1BB213431BB2CF
:1029B000BB84FB7E1BB21B021AB2BB7E1BB213434D
:1029C0001BB27B847B7F1BB21B021AB23B7F1BB204
:1029D00013431BB23B84BB8C07EE903AB8EE677A88
:1029E000DFED116AC7EE267ABB68C3ED007A7B8CF7
:1029F00007EE903AB8EE677ADFED0B6AC7EE267AFB
:102A00007B68C3ED007A3B8C07EE903AB8EE677AAC
:102A1000DFED056AC7EE267A3B68C3ED007A2837FA
:102A2000BD4680BD085D00200000004580B588B02F
:102A300000AF786039607868FFF7DAFE07F11403B9
:102A400007F1180207F11C017868FFF71BFF78688F
:102A5000FFF7F3FE07F1080307F10C0207F110017D
:102A60007868FFF70FFF97ED077AD7ED047A37EE16
:102A7000677AF0EE006AC7EE267A9FED297A67EE54
:102A8000877A3B68C3ED007A97ED067AD7ED037A33
:102A900037EE677AF0EE006AC7EE267A9FED207A6D
:102AA00067EE877A3B68C3ED017A97ED057AD7ED3B
:102AB000027A37EE677AF0EE006AC7EE267A9FED6B
:102AC000187A67EE877A3B68C3ED027A39687868CE
:102AD00000F028F83B68D3ED007AFDEEE77A17EEB8
:102AE000903A1BB29AB23B689A833B68D3ED017A65
:102AF000FDEEE77A17EE903A1BB29AB23B68DA83A2
:102B00003B68D3ED027AFDEEE77A17EE903A1BB2FE
:102B10009AB23B681A8400BF2037BD4680BD00BF13
:102B20000050C34780B485B000AF786039603B681F
:102B3000D3ED007AF5EEC07AF1EE10FA12D500234B
:102B4000FB733B68D3ED007AFDEEE77A17EE903A1F
:102B50001BB25B4207EE903AF8EEE77A3B68C3EDB2
:102B6000007A01E00123FB733B68D3ED017AF5EEB7
:102B7000C07AF1EE10FA12D50023BB733B68D3ED97
:102B8000017AFDEEE77A17EE903A1BB25B4207EE50
:102B9000903AF8EEE77A3B68C3ED017A01E0012351
:102BA000BB733B68D3ED027AF5EEC07AF1EE10FA12
:102BB00012D500237B733B68D3ED027AFDEEE77AF2
:102BC00017EE903A1BB25B4207EE903AF8EEE77AC6
:102BD0003B68C3ED027A01E001237B7397F90F3064
:102BE0009B005AB297F90E305B005BB213435AB2A6
:102BF00097F90D3013435BB2DAB23B6883F82A20B1
:102C000000BF1437BD465DF8047B704780B485B0C3
:102C100000AF786041F60F53FB817B6802331B786D
:102C200002333B7301237B7317E0FB891B0A9BB2C2
:102C30007A7B79680A44127853407B817B890C4AFD
:102C400032F813301AB2B7F90E301B021BB25340E0
:102C50001BB2FB817B7B01337B737A7B3B7B9A428C
:102C6000E3D9FB8918461437BD465DF8047B7047ED
:102C7000082F010880B485B000AF78607B6802330C
:102C80001B78FB73FB7B03337A6813441B78BB818F
:102C9000FB7B04337A6813441B787B81B7F90C30D3
:102CA0001B021AB2B7F90A30DBB21BB213431BB2D4
:102CB0009BB218461437BD465DF8047B7047000090
:102CC00080B485B000AF786039607B68FB603B689A
:102CD000BB600D4B00221A700AE0FB681A780A4BA1
:102CE0001B785340DAB2084B1A70FB680133FB6063
:102CF000FA68BB689A42F0D3034B1B781846143726
:102D0000BD465DF8047B70479016002080B485B006
:102D100000AF78600023FB7302E0FB7B0133FB73A1
:102D2000FB7B7A6813441B78002BF6D1FB7B18469B
:102D30001437BD465DF8047B704780B586B000AFA0
:102D4000B9607B600346FB731346BB730023BB82F1
:102D50007B68CD221A707B680133FA7B1A70BB7BCB
:102D6000272B01D92723BB737B680233BA7B1A70E8
:102D70000023FB750CE0FB7DBA681A44FB7D03332E
:102D800019467B680B4412781A70FB7D0133FB7582
:102D9000FA7DBB7B9A42EED37868FFF737FF034694
:102DA000BB82BB8A1B0A9AB2BB7B033319467B6882
:102DB0000B44D2B21A70BB7B04331A467B681344AF
:102DC000BA8AD2B21A70BB7B05331A467B681344A9
:102DD0000A221A70BB7B06331A467B681344002212
:102DE0001A7000BF1837BD4680BD000080B58EB098
:102DF00000AF03463960FB713868FFF787FF034671
:102E00001A4607F10803F8793968FFF796FFBB7A8D
:102E100006339AB207F108014FF0FF33034807F079
:102E200055FF00BF3837BD4680BD00BF5C040020A1
:102E300080B58EB000AF03463960FB713868FFF78C
:102E400065FF03461A4607F10803F8793968FFF76A
:102E500074FFBB7A06339AB207F108014FF0FF33D3
:102E6000034807F033FF00BF3837BD4680BD00BFC1
:102E70001404002080B582B000AF78607B68023314
:102E80001B7806339AB24FF0FF337968034807F096
:102E90001DFF00BF0837BD4680BD00BF14040020E1
:102EA00080B400AF024B1846BD465DF8047B704706
:102EB000B616002080B400AF024B1846BD465DF840
:102EC000047B7047B516002080B483B000AF7860F3
:102ED0000B46FB707B689B7A002B12D1FB78AB2BE7
:102EE0005DD17B689B7A19467B68FA785A547B6877
:102EF0009B7A0133DAB27B689A727B6801221A737B
:102F00004DE07B689B7A19467B68FA785A547B6857
:102F10009B7A022B04D1FB780633DAB2234B1A706A
:102F20007B689B7A1A46214B1B78013B9A4220D141
:102F30007B689B7A1A467B689B5C0A2B0CD17B686A
:102F400000221A737B6800229A727B689B7A1A4669
:102F50007B680021995422E07B6802221A737B6807
:102F600000229A727B689B7A1A467B6800219954EA
:102F700015E07B689B7A0133DAB27B689A727B68D2
:102F80009B7A272B0BD17B6802221A737B68002265
:102F90009A727B689B7A1A467B680021995400BF1D
:102FA0000C37BD465DF8047B704700BF120000205F
:102FB00080B485B000AF786039600023FB730EE009
:102FC000FB7B7A6813441A78FB7B39680B441B78C7
:102FD0009A4201D0002309E0FB7B0133FB73FB7BAA
:102FE0007A6813441B78002BEAD101231846143762
:102FF000BD465DF8047B704780B584B000AF786053
:10300000396000237B8100233B817B681946264879
:10301000FFF7CEFF0346012B06D13B68FF221A7053
:103020003B6800225A703CE07B6819461F48FFF756
:10303000BFFF0346012B06D13B68AA221A703B68EA
:1030400000225A702DE07B681846FFF713FE0346F6
:103050007B817B681846FFF7D9FD03463B817A895F
:103060003B899A421AD17B685A783B681A700023D0
:10307000FB600CE0FB6803337A68D15C3A68FB685C
:10308000134401330A461A70FB680133FB607B6806
:103090009B781A46FB689342ECDB02E03B68002217
:1030A0001A701037BD4680BD0C00002004000020BF
:1030B00080B485B000AF78608C4B9A787B681A70CA
:1030C0007B680133894A52781A707B680233874AD9
:1030D00012781A707B680333844AD2781A707B683E
:1030E0000433824A12791A707B6805337F4A527919
:1030F0001A707F4B9B8B1B0A9AB27B680633D2B245
:103100001A707B4B9A8B7B680733D2B21A70784B5C
:10311000DB8B1B0A9AB27B680833D2B21A70744BED
:10312000DA8B7B680933D2B21A70714B1B8C1B0A85
:103130009AB27B680A33D2B21A706D4B1A8C7B68D4
:103140000B33D2B21A706A4BB3F922301B121AB287
:103150007B680C33D2B21A70654BB3F922207B68BE
:103160000D33D2B21A70624BB3F924301B121AB26B
:103170007B680E33D2B21A705D4BB3F924207B68A2
:103180000F33D2B21A705A4BB3F926301B121AB24F
:103190007B681033D2B21A70554BB3F926207B6886
:1031A0001133D2B21A70524B1B8D1B0A9AB27B6834
:1031B0001233D2B21A704E4B1A8D7B681333D2B2CF
:1031C0001A704B4B93F82A305BB21B015AB2494B31
:1031D00093F82A305BB203F00F035BB213435AB289
:1031E0007B681433D2B21A70424B9B8B1B0A9AB283
:1031F0007B681533D2B21A703E4B9A8B7B681633BC
:10320000D2B21A703B4BDB8B1B0A9AB27B68173326
:10321000D2B21A70374BDA8B7B681833D2B21A707D
:10322000344B1B8C1B0A9AB27B681933D2B21A70CA
:10323000304B1A8C7B681A33D2B21A702D4BB3F90B
:1032400022301B121AB27B681B33D2B21A70294B80
:10325000B3F922207B681C33D2B21A70254BB3F924
:1032600024301B121AB27B681D33D2B21A70214B64
:10327000B3F924207B681E33D2B21A701D4BB3F908
:1032800026301B121AB27B681F33D2B21A70194B48
:10329000B3F926207B682033D2B21A70154B1B8DF0
:1032A0001B0A9AB27B682133D2B21A70114B1A8D65
:1032B0007B682233D2B21A700023FB600CE0FB68FB
:1032C00023331A467B6813440B49FA680A44127880
:1032D0001A70FB680133FB60FB68042BEFDD00BF55
:1032E00000BF1437BD465DF8047B7047105D0020B9
:1032F0003816002064160020B816002080B483B071
:1033000000AF78603D4B9A787B681A707B68013318
:103310003A4A52781A707B680233384A12781A7027
:103320007B680333354AD2781A707B680433334A9A
:1033300012791A707B680533304A52791A707B68AB
:1033400006332F4A12781A702E4B1B881B0A9AB22A
:103350007B680733D2B21A702A4B1A887B6808330D
:10336000D2B21A70274B5B881B0A9AB27B6809336A
:10337000D2B21A70234B5A887B680A33D2B21A70C1
:10338000204B9B881B0A9AB27B680B33D2B21A700F
:103390001C4B9A887B680C33D2B21A70194BDB88AD
:1033A0001B0A9AB27B680D33D2B21A70154BDA88B9
:1033B0007B680E33D2B21A70124B1B891B0A9AB269
:1033C0007B680F33D2B21A700E4B1A897B681033A8
:1033D000D2B21A700B4B5B891B0A9AB27B6811330D
:1033E000D2B21A70074B5A897B681233D2B21A7064
:1033F00000BF0C37BD465DF8047B7047105D0020B0
:10340000BD160020445D002080B483B000AF78601A
:10341000684B9A787B681A707B680133654A5278EA
:103420001A707B680233634A12781A707B68033320
:10343000604AD2781A707B6804335E4A12791A7037
:103440007B6805335B4A52791A707B6806335A4AA7
:1034500012781A70594B1B691A0E7B680733D2B267
:103460001A70564B1B691A0C7B680833D2B21A705B
:10347000524B1B691A0A7B680933D2B21A704F4B40
:103480001A697B680A33D2B21A704C4B5B691A0E08
:103490007B680B33D2B21A70484B5B691A0C7B689D
:1034A0000C33D2B21A70454B5B691A0A7B680D3334
:1034B000D2B21A70414B5A697B680E33D2B21A707D
:1034C0003E4BD3E906014FF000024FF000030A0E15
:1034D000002379680F31D3B20B70384BD3E9060162
:1034E0004FF000024FF000030A0C002379681031FE
:1034F000D3B20B70314BD3E906014FF000024FF00D
:1035000000030A0A002379681131D3B20B702B4BE8
:10351000D3E906014FF000024FF000030A00002338
:1035200079681231D3B20B70244BD3E906014FF006
:1035300000024FF00003020E42EA01220B0E7968EE
:103540001331D3B20B701D4BD3E906014FF00002CB
:103550004FF00003020C42EA01420B0C796814316F
:10356000D3B20B70154BD3E906014FF000024FF0B8
:103570000003020A42EA01620B0A79681531D3B2EC
:103580000B700E4BD3E9062379681631D3B20B705A
:103590007B681733094A92F820201A707B68183329
:1035A000054A12781A7000BF0C37BD465DF8047BDF
:1035B000704700BF105D0020BD160020585C002041
:1035C00090B583B000AF7860664B9A787B681A70CC
:1035D0007B680133634A52781A707B680233614A10
:1035E00012781A707B6803335E4AD2781A707B684F
:1035F00004335C4A12791A707B680533594A527950
:103600001A707B680633584A12781A707B68073341
:10361000564A12781A707B6803F1080400F0E4F946
:10362000034623707B68093300221A70504B1A88B6
:103630007B680A33D2B21A707B680B334B4A12781C
:103640001A707B6803F10C0400F00EFA0346237035
:103650007B680D3300221A70454B1A887B680E3345
:10366000D2B21A707B680F33404A12781A707B68A6
:1036700003F1100400F0D8F9034623707B6811337E
:1036800000221A703A4B1A887B681233D2B21A7031
:103690007B681333354A12781A707B6803F114047F
:1036A00000F002FA034623707B68153300221A707B
:1036B0002F4B1A887B681633D2B21A707B68173387
:1036C0002A4A12781A707B6803F1180400F02EFA67
:1036D000034623707B68193300221A70244B1A8822
:1036E0007B681A33D2B21A707B681B331F4A127878
:1036F0001A707B6803F11C0400F040FA0346237043
:103700007B681D3300221A70194B1A887B681E33A0
:10371000D2B21A707B681F33134A12781A707B6812
:103720002033114A12781A707B6821330E4A1278BE
:103730001A707B6822330C4A12781A707B68233324
:10374000094A12781A707B682433074A12781A7073
:103750007B682533044A12781A7000BF0C37BD46C7
:1037600090BD00BF105D0020BD160020BE160020D9
:10377000C016002080B59CB000AF78600223BB6605
:103780000AF0D8FC0346BB60BA6E13461B019B1AB5
:103790009B007B660023FB6628E000F031F81648AA
:1037A00001F0E2F900F09CFB00F078FA07F13C032D
:1037B0001846FFF705FF07F10C0307F13C0127222C
:1037C0000220FFF7BAFA0D4B186807F10C0100232D
:1037D0004FF0FF3209F0DCFB07F1080342F21071F1
:1037E00018460AF047FAFB6E0133FB66FA6E7B6EF1
:1037F0009A42D2D3C8E700BF18030020F45C00202F
:1038000080B586B004AF6C4B1B684FF0FF31184693
:1038100009F058FE64230293022301933B1D009399
:1038200001230F229021654803F06AF803461A46E7
:10383000634B1A70624B1B78002B0FD13B791B0234
:103840007A79134340F21712934203D15D4B002261
:103850001A7006E05B4B01221A7002E05A4B0122FB
:103860001A706423029301230193FB1C009301232C
:103870000F22D321514803F043F803461A46504B18
:103880001A704F4B1B78002B09D1FB78D32B03D137
:103890004E4B00221A7002E04C4B01221A70642336
:1038A000029301230193BB1C00930123202260217A
:1038B000424803F025F803461A46414B1A70404B24
:1038C0001B78002B09D1BB78062B03D1404B00227B
:1038D0001A7002E03E4B01221A7064230293022305
:1038E00001933B1D009301230F229021394803F0DF
:1038F00007F803461A46324B1A70314B1B78002BDF
:103900000FD13B791B027A79134340F2171293428D
:1039100003D1314B00221A7006E02F4B01221A709E
:1039200002E02E4B01221A706423029301230193BB
:10393000FB1C009301230F22D321264802F0E0FF55
:1039400003461A461E4B1A701D4B1B78002B09D1DB
:10395000FB78D32B03D1224B00221A7002E0204BBC
:1039600001221A706423029301230193BB1C00936C
:10397000012320226021174802F0C2FF03461A46A5
:103980000F4B1A700E4B1B78002B09D1BB78062BFE
:1039900003D1144B00221A7002E0124B01221A705C
:1039A000054B186800230022002109F0F1FA00BF3E
:1039B0000837BD4680BD00BF085D00201C02002006
:1039C000DC56002013000020C8160020150000203F
:1039D000170000207002002014000020C9160020EB
:1039E000160000201800002080B400AF0C4B1B789C
:1039F000002B03D10B4B1B78002B0BD0094B1B78F2
:103A00005BB25B005AB2064B1B785BB213435BB2EE
:103A1000DBB200E000231846BD465DF8047B70472A
:103A2000170000201800002080B400AF0C4B1B785A
:103A3000002B03D10B4B1B78002B0BD0094B1B78B1
:103A40005BB25B005AB2064B1B785BB213435BB2AE
:103A5000DBB200E000231846BD465DF8047B7047EA
:103A6000130000201400002080B400AF0C4B1B7822
:103A7000002B03D10B4B1B78002B0BD0094B1B7871
:103A80005BB25B005AB2064B1B785BB213435BB26E
:103A9000DBB200E000231846BD465DF8047B7047AA
:103AA000150000201600002080B400AF1A4B1B78D0
:103AB000002B0BD1194B1B78002B07D1184B1B780F
:103AC000002B03D1174B1B78002B1CD0164B012267
:103AD0001A70144B1B785BB2DB005AB2104B1B7888
:103AE0005BB29B005BB213435AB20C4B1B785BB2C8
:103AF0005B005BB213435AB2074B1B785BB21343B4
:103B00005BB2DBB203E0084B00221A7000231846B8
:103B1000BD465DF8047B7047CD160020CC16002012
:103B2000CB160020CA1600201900002080B400AF78
:103B30000F4B1B78002B03D10E4B1B78002B0ED0A4
:103B40000D4B01221A700B4B1B785BB25B005AB213
:103B5000074B1B785BB213435BB2DBB203E0064B4F
:103B600000221A7000231846BD465DF8047B70479A
:103B7000CE160020CF1600201A00002080B400AF1F
:103B8000104B1B78002B0BD10F4B1B78002B07D150
:103B90000E4B1B78002B03D10D4B1B78002B0BD049
:103BA000084B1B785BB25B005AB2074B1B785BB2C9
:103BB00013435BB2DBB200E000231846BD465DF85C
:103BC000047B7047D0160020875D0020885D0020B0
:103BD000895D002080B584B000AF786040F6FF7347
:103BE000BB600023FB8113E00CF002FA03461A4687
:103BF0000E4B1B68B2FBF3F101FB03F3D21AFB89F6
:103C000079680B440A498A5C1A70FB890133FB818D
:103C1000FB89BA689A42E7D87A68BB681344AB223A
:103C20001A7000BF1037BD4680BD00BF1C000020C9
:103C30000831010880B485B000AF78600023FB81B3
:103C40000AE0FB89134A32F813301A467B68934224
:103C500019D0FB890133FB810F4B1B88FA899A42EB
:103C6000EFD30D4B1B88B3F5007F0DD20A4B1B8899
:103C70005A1C91B2084A11801A467B6899B2054BCA
:103C800023F8121000E000BF1437BD465DF8047B36
:103C9000704700BFE4560020E45A002080B586B08B
:103CA00002AF504B1B680533BB6085E04D4B1B6872
:103CB0001B037B604FF4805200214B480DF07DF9CF
:103CC0004948FFF787FF0023FB605AE0474B1B681A
:103CD0004FF0FF31184609F0F5FBFB68DBB21846E0
:103CE00000F0A4FB03467B807B881A467968404835
:103CF00000F034FB7B8800934FF480533A4A796894
:103D00003B4800F05AFA64200AF036F87B880093AA
:103D10004FF48053374A7968354800F0DEFA334B68
:103D2000186800230022002109F032F94FF4805274
:103D300030492D480DF031F90346002B1ED0294B98
:103D40001B681846FFF776FF7B88B3F5007F11D01C
:103D5000B3F5007F10DC402B0AD0402B0CDC102B7D
:103D600002D0202B02D007E01D2336E01C2334E0D4
:103D70001B2332E01A2330E064232EE0FB6801337A
:103D8000FB60FB68032BA1DD184B1B684FF0FF3174
:103D9000184609F097FB10227968154800F0DEFA02
:103DA000104B1B6801330F4A1360104B1868002337
:103DB0000022002109F0ECF80A4B1B68BA689A420D
:103DC00005D9084B1B680C4A93427FF66FAF054B31
:103DD0001B680533034A1360642318461037BD4639
:103DE00080BD00BFD4360020D4160020FC5C00202B
:103DF000BC030020D4260020FFEFFF0780B485B06D
:103E000000AF78607B6803F12043FB60094B1B889F
:103E10001A46FB68B3FBF2F37B817B897F2B03D8C7
:103E20007B89054A0121D15400BF1437BD465DF896
:103E3000047B704720000020E85A002080B485B041
:103E400000AF78607B6803F11F4303F57803FB60E4
:103E5000094B1B881A46FB68B3FBF2F37B817B8915
:103E60007F2B03D87B89054A0121D15400BF143729
:103E7000BD465DF8047B704720000020685B002091
:103E800080B584B000AF786040F6FF73BB6000235C
:103E9000FB8113E00CF0ACF803461A460E4B1B688E
:103EA000B2FBF3F101FB03F3D21AFB8979680B44EF
:103EB0000A498A5C1A70FB890133FB81FB89BA6865
:103EC0009A42E7D87A68BB68134400221A7000BF90
:103ED0001037BD4680BD00BF1C000020083101081E
:103EE00080B588B000AF5C4B1B6803F1C043FB6139
:103EF000594B1B6803F1C04303F50023BB61FB6909
:103F000003F51043FB604FF48052002153480DF03D
:103F100054F85248FFF7B4FF8BE0FB69BB60002305
:103F20007B611AE07B6901334C4AD35C1BB21B02F4
:103F30001AB24A497B690B441B781BB213431BB26C
:103F4000BB807B69DA0F13445B105B00BA681344D3
:103F5000BA881A807B6902337B617B69B3F5805F25
:103F6000E0D33F4ABB681046194640F6FF731A4635
:103F70000DF023F940F6FF72394938480DF00DF87D
:103F80000346002B05D0F869FFF738FF354B0122B7
:103F90001A7040F6FF72002131480DF00EF8BB692F
:103FA000BB6000233B611AE03B6901332B4AD35CC1
:103FB0001BB21B021AB229493B690B441B781BB286
:103FC00013431BB2FB803B69DA0F13445B105B00A9
:103FD000BA681344FA881A803B6902333B613B6933
:103FE000B3F5805FE0D31E4ABB681046194640F621
:103FF000FF731A460DF0E1F840F6FF7218491748B2
:104000000CF0CBFF0346002B05D0B869FFF716FF75
:10401000154B01221A7040F6FF72002110480CF077
:10402000CCFFFB6903F58053FB61BB6903F580534B
:10403000BB61FA69FB689A4204D2FB690B4A93425E
:10404000FFF46BAF044B1B6803F52043024A136077
:1040500000BF2037BD4680BDD8560020D83600208E
:10406000D8460020CE160020CF16002000F00760B2
:1040700080B500AF00F056F8102000F071F8202055
:1040800000F06EF8402000F06BF84FF4007000F084
:1040900067F8214B1B6810221946204800F05EF992
:1040A0001D4B1B68202219461C4800F057F91A4B7B
:1040B0001B6840221946194800F050F9164B1B683E
:1040C0004FF400721946154800F048F9124B1A686F
:1040D000134B1B681344104A13600F4B1B681022CC
:1040E00019460E4800F03AF90B4B1B68202219467E
:1040F0000A4800F033F9084B1B684022194607486C
:1041000000F02CF9044B1B684FF400721946034869
:1041100000F024F900BF80BDE0560020BC03002061
:104120002400002080B500AF01224FF40051024866
:1041300001F020FE00BF80BD0008024080B582B0C3
:1041400000AF0346FB80FB8800221946034801F0BC
:1041500011FE00BF0837BD4680BD00BF0008024009
:1041600080B582B000AF0346FB80FB880122194670
:10417000034801F0FFFD00BF0837BD4680BD00BF0A
:104180000008024080B584B000AF78600B467B80A9
:104190000623FB737B881846FFF7D0FF07F10F015A
:1041A0000A230122786805F00EFD7B881846FFF788
:1041B000D7FF00BF1037BD4680BD80B58AB000AFC5
:1041C000F860B9607A603B6076E0BB68DBB27B6226
:1041D0007B6AC3F580733B623A6A3B68934228BFAF
:1041E0001346FB613B8E1946F868FFF7CBFF0223AD
:1041F0003B75BB681B0CDBB27B75BB681B0ADBB273
:10420000BB75BB68DBB2FB753B8E1846FFF796FFAC
:1042100007F114010A230422F86805F0D4FC0346D0
:10422000FB76FB7E002B4CD1FB699AB20A2379689E
:10423000F86805F0C8FC0346FB763B8E1846FFF78E
:104240008FFFFB7E002B3ED10523BB743B8E1846AF
:10425000FFF774FF07F112010A230122F86805F045
:10426000B2FC0346FB76FB7E002B15D107F1130150
:104270000A230122F86805F0EAFD0346FB763B8E2F
:104280001846FFF76DFFFB7E002B07D1FB7C03F088
:104290000103002BD8D103E000BF15E000BF13E0FD
:1042A000BA68FB691344BB607A68FB6913447B609E
:1042B0003A68FB69D31A3B603B68002B85D1002329
:1042C00007E000BF00E000BF3B8E1846FFF748FF45
:1042D000012318462837BD4680BD80B586B000AFA3
:1042E000F860B9607A607B8003233B74BB681B0C69
:1042F000DBB27B74BB681B0ADBB2BB74BB68DBB28E
:10430000FB743B8C1846FFF719FF07F110011E23C1
:104310000422F86805F057FC0346FB75FB7D002B73
:1043200012D17A881E237968F86805F090FD03465B
:10433000FB753B8C1846FFF713FFFB7D002B01D06C
:10434000012307E0002305E000BF3B8C1846FFF780
:1043500007FF012318461837BD4680BD80B586B0DB
:1043600000AFF860B9601346FB802023BB750523BE
:104370007B75FB881946F868FFF704FFFB88184631
:10438000FFF7DCFE07F116010A230122F86805F0A9
:104390001AFC0346FB75FB7D002B35D107F10801A4
:1043A0000A230322F86805F00EFC0346FB75FB8820
:1043B0001846FFF7D5FEFB7D002B27D1FB8818465A
:1043C000FFF7BCFE07F115010A230122F86805F08A
:1043D000FAFB0346FB75FB7D002B19D10A23012252
:1043E0001149F86805F033FD0346FB75FB88184654
:1043F000FFF7B6FEFB7D002B0CD10B4B1B7803F0B7
:104400000103002BDAD106E000BF04E000BF02E0A8
:1044100000BF00E000BFFB881846FFF7A1FEFB7D50
:1044200018461837BD4680BDDD56002080B483B0E5
:1044300000AF0346FB71FB79032B14D801A252F89D
:1044400023F000BF55440008594400085D440008AB
:1044500061440008102307E0202305E0402303E027
:104460004FF4007300E0102318460C37BD465DF88A
:10447000047B704780B500AF0A4800F0EBFA0A4BA6
:1044800000221A702822002108480CF096FD00F046
:1044900011F8034601221946054806F0A2FC00BFA8
:1044A00080BD00BFEC5B0020515C0020585C002008
:1044B000A404002080B400AF024B1846BD465DF84E
:1044C000047B7047E85B002080B582B000AF0346F4
:1044D000FB71FB791946064800F0CDFA0346012B23
:1044E00002D1044B01221A7000BF0837BD4680BDBF
:1044F000EC5B0020515C002080B400AF074B1B78C0
:10450000DBB2002B04D0054B00221A70044B00E0F4
:1045100000231846BD465DF8047B7047515C0020BF
:10452000EC5B002080B487B000AF87ED010A034642
:10453000FB7097ED017ADFED1E6AC7EE267AFDEE7D
:10454000E77A17EE903A3B613B69642202FB03F382
:1045500007EE903AF8EEE77A97ED017A77EE677A10
:10456000C7ED037A3B6907EE903AB8EEE77AD7EDEC
:10457000036A9FED106AC6EE867A77EE277AC7ED5A
:10458000057AFB78532B02D0FB78572B05D1D7ED5A
:10459000057AF1EE677AC7ED057A7B6907EE903A06
:1045A000B0EE670A1C37BD465DF8047B704700BF5C
:1045B0000000C8420000704280B487B000AFF860CD
:1045C0007A601A460B46FB721346BB720023FB75DA
:1045D0000023BB8200237B820BE0BB8AFA68134472
:1045E0001B782C2B02D1FB7D0133FB75BB8A013379
:1045F000BB82BB8AFA6813441B78002B12D0FA7D69
:10460000FB7A9A42E9D30DE0BB8AFA681A447B8AA6
:1046100079680B4412781A70BB8A0133BB827B8A9B
:1046200001337B82BB8AFA6813441B78002B10D0BD
:10463000BB8AFA6813441B782C2B0AD0BB8AFA6811
:1046400013441B782A2B04D07A8ABB7A013B9A4206
:10465000DADB7B8A7A68134400221A7000BF1C37A9
:10466000BD465DF8047B704780B592B000AF7860BE
:1046700006229C4978680CF0B5FC0346002B08D054
:104680000622994978680CF0ADFC0346002B40F0F7
:10469000888007F10C02022302217868FFF78CFF63
:1046A0003B7B412B78D1914B012283F8202007F1ED
:1046B00038020F2301217868FFF77EFF07F13803E6
:1046C00018460BF092FCB0EE407AF0EE607A874B21
:1046D00083ED027B864BD3E900238449C1E906239D
:1046E00007F128020F2303217868FFF765FF07F120
:1046F0002402022304217868FFF75EFF97F8283030
:10470000002B1BD007F1280318460BF06EFC53EC6E
:10471000102B10461946FCF721FA024697F8243070
:10472000184600EE102AFFF7FDFEF0EE407A6F4BC0
:10473000C3ED007A6D4B1B686C4A136107F11402DC
:104740000F2305217868FFF737FF07F110020223D6
:1047500006217868FFF730FF3B7D002B00F0BC801E
:1047600007F1140318460BF040FC53EC102B1046D5
:104770001946FCF7F3F902463B7C184600EE102A76
:10478000FFF7D0FEF0EE407A584BC3ED017A594B5B
:104790001B68564A53619FE0544B002283F8202047
:1047A0009AE00622544978680CF01CFC0346002B62
:1047B00008D00622514978680CF014FC0346002BFF
:1047C00040F08B8007F10802022306217868FFF78A
:1047D000F3FE3B7A302B7AD03B7A002B77D0434BD9
:1047E000012283F8202007F138020F230121786885
:1047F000FFF7E2FE07F1380318460BF0F6FBB0EEC8
:10480000407AF0EE607A394B83ED027B384BD3E986
:1048100000233649C1E9062307F128020F230221AC
:104820007868FFF7C9FE07F12402022303217868A4
:10483000FFF7C2FE97F82830002B1BD007F12803A2
:1048400018460BF0D2FB53EC102B10461946FCF720
:1048500085F9024697F82430184600EE102AFFF733
:1048600061FEF0EE407A214BC3ED007A1F4B1B68CE
:104870001E4A136107F114020F2304217868FFF721
:104880009BFE07F11002022305217868FFF794FED2
:104890003B7D002B21D007F1140318460BF0A5FB3C
:1048A00053EC102B10461946FCF758F902463B7C96
:1048B000184600EE102AFFF735FEF0EE407A0B4B5B
:1048C000C3ED017A0B4B1B68084A536105E0074BA7
:1048D000002283F8202000E000BF00BF4837BD461B
:1048E00080BD00BFA02E0108A82E0108585C002042
:1048F000605C00205C5C0020B02E0108B82E01082E
:1049000080B582B000AFFFF7F7FD78607B68002BC1
:104910002ED0786800F0E8F80346002B28D0062255
:10492000164978680CF05EFB0346002B17D0062270
:10493000134978680CF056FB0346002B0FD0062273
:10494000104978680CF04EFB0346002B07D0062276
:104950000D4978680CF046FB0346002B08D17968B6
:104960000A480CF022FC7868FFF77EFE012300E085
:10497000002318460837BD4680BD00BFB02E010891
:10498000B82E0108A82E0108A02E0108805C002086
:1049900080B500AF00220121322008F059FA034609
:1049A000114A136000220121322008F051FA034617
:1049B0000E4A136000220121642008F049FA0346E0
:1049C0000B4A136000220D210A2008F041FA034629
:1049D000084A136000222D21642008F039FA0346AA
:1049E000054A136000BF80BDE45C0020E85C002045
:1049F000EC5C0020F05C0020F45C002080B500AF8F
:104A0000012008F0ADFA03460D4A1360012008F0BA
:104A1000A7FA03460B4A1360012008F0A1FA0346E7
:104A2000094A1360012008F09BFA0346074A136005
:104A3000012008F095FA0346054A136000BF80BDC7
:104A4000FC5C0020005D0020045D0020085D00206B
:104A50000C5D002080B483B000AF78607B680022DA
:104A600083F864207B6800221A7000BF0C37BD46B3
:104A70005DF8047B704780B483B000AF78600B466C
:104A8000FB70FB780D2B01D1002327E0FB780A2B6C
:104A90000CD17B6893F864301A467B6800219954E6
:104AA0007B68002283F86420012317E07B6893F879
:104AB0006430622B0DD87B6893F864305A1CD1B2F5
:104AC0007A6882F8641019467B68FA785A54002391
:104AD00004E07B68002283F86420022318460C3728
:104AE000BD465DF8047B704780B588B000AF786044
:104AF000242178680CF069FA78612A2178680CF032
:104B000064FA38617B69002B06D03B69002B03D027
:104B10003A697B699A4201D2002321E00023FB77A6
:104B20007B690133BB6107E0BB691A78FB7F5340A7
:104B3000FB77BB690133BB61BA693B699A42F3D326
:104B40003B6901331022002118460CF017F9034687
:104B5000FB73FA7FFB7B9A420CBF01230023DBB27D
:104B600018462037BD4680BD80B588B000AF78605C
:104B7000274B1B684FF0FF31184608F0A3FC034693
:104B8000012B41D17B68002B3DD007F10C030022A3
:104B90001946786803F073FC0346002B07D01C4BC2
:104BA000186800230022002108F0F2F92CE007F138
:104BB000080300221946786803F043FD0346002BE2
:104BC00007D0134B186800230022002108F0E0F9F9
:104BD0001AE0FA7A0F4B1A707A7A0E4B5A70BA7A38
:104BE0000C4B9A703A7B0B4BDA707A7B094B1A713B
:104BF000BA7B084B5A71064B18680023002200212B
:104C000008F0C6F900E000BF2037BD4680BD00BFF8
:104C1000045D0020105D002080B59EB002AF78607A
:104C20000123FB6307F13C034FF0FF3200920022A7
:104C3000002100200AF00EF90346012BF2D1FA6B95
:104C400013461B019B1A9B00BB6609F073FA0346CF
:104C5000BB630023FB6638E01E48FFF785FF1E4953
:104C60001E48FDF7ADFD1E491E48FDF7A9FD07F1E1
:104C700040031846FEF71CFA1B4B1B684FF0FF3130
:104C8000184608F01FFC07F1080307F1400127222E
:104C90000320FEF752F8144B18680023002200216D
:104CA00008F076F9114B186807F1080100234FF05E
:104CB000FF3208F06DF907F138034FF47A711846A6
:104CC00008F0D8FFFB6E0133FB66FA6EBB6E9A42AA
:104CD000C2D3A7E718030020381600201C020020CA
:104CE00064160020700200200C5D0020F45C00209F
:104CF00080B59EB002AF78600223FB6007F10C0321
:104D00004FF0FF3200920022002100200AF0A2F8AA
:104D10000346012BF2D1FA6813461B019B1A9B0034
:104D2000BB6609F007FA0346BB600023FB6632E06E
:104D30001B48FFF719FF00F02BF907F14003184655
:104D4000FEF7DCFA174B1B684FF0FF31184608F0EE
:104D5000B9FB07F1100307F1400113220420FDF70E
:104D6000ECFF104B186800230022002108F010F916
:104D70000D4B186807F1100100234FF0FF3208F0C7
:104D800007F907F108034FF47A71184608F072FF2B
:104D9000FB6E0133FB66FA6EBB6E9A42C8D3ADE779
:104DA000180300200C5D0020F45C002080B59EB04C
:104DB00002AF78600223FB6007F10C034FF0FF3273
:104DC00000920022002100200AF044F80346012B43
:104DD000F2D1FA6813461B019B1A9B00BB6609F0CF
:104DE000A9F90346BB600023FB6635E01D48FFF7C9
:104DF000BBFEFFF785FD0346002B23D007F14003E0
:104E00001846FEF701FB184B1B684FF0FF311846A0
:104E100008F058FB07F1100307F140011A220520A2
:104E2000FDF78BFF104B186800230022002108F0CB
:104E3000AFF80E4B186807F1100100234FF0FF3256
:104E400008F0A6F807F108034FF47A71184608F045
:104E500011FFFB6E0133FB66FA6EBB6E9A42C5D33F
:104E6000AAE700BF180300200C5D0020F45C0020BE
:104E700080B586B002AF03460A46FB711346BB718C
:104E800008233B73FB797B73BB79BB7307F10C027F
:104E90006423009303232E21034801F007F900BF88
:104EA0001037BD4680BD00BFC402002080B586B06B
:104EB00002AF03460A46FB711346BB7118233B73CE
:104EC000FB797B73BB79BB7307F10C0264230093FE
:104ED00003232E21034801F0E9F800BF1037BD4637
:104EE00080BD00BFC402002080B586B002AF03467B
:104EF0003960FB711346BB7110233B73FB797B73E5
:104F000007F10C026423009302232E21074801F0CD
:104F1000CDF8BB799BB2642200923A682E210348F7
:104F200001F0C2F900BF1037BD4680BDC4020020A9
:104F300080B500AF3F211220FFF79AFF012110201A
:104F4000FFF7B4FF10211020FFF7B0FF0122034943
:104F50001020FFF7C9FF00BF80BD00BF345D0020F7
:104F600080B584B002AF78600B46FB70FB789BB2D3
:104F70005B009BB2642200927A682E21034801F004
:104F800093F900BF0837BD4680BD00BFC4020020B2
:104F900080B500AF06212F48FFF7E2FF2D4B1B78AD
:104FA0001BB21B011AB22B4B5B781B09DBB21BB285
:104FB00013431BB29AB2284B1A80264B9B781BB224
:104FC0001B011AB2234BDB781B09DBB21BB2134364
:104FD0001BB29AB2204B5A801E4B1B791BB21B018D
:104FE0001AB21C4B5B791B09DBB21BB213431BB219
:104FF0009AB2194B9A80174B9B791BB21B011AB2BC
:10500000144BDB791B09DBB21BB213431BB29AB200
:10501000114BDA800F4B1B7A1BB21B011AB20D4BDE
:105020005B7A1B09DBB21BB213431BB29AB20A4B69
:105030001A81084B9B7A1BB21B011AB2054BDB7A13
:105040001B09DBB21BB213431BB29AB2024B5A814B
:1050500000BF80BD245D0020445D002080B59EB06F
:1050600002AF78603B79AA3B552B00F28C8101A2FC
:1050700052F823F08553000887530008875300082F
:10508000875300088753000887530008CD51000854
:10509000DB510008E9510008295200088753000835
:1050A0008753000887530008875300088753000878
:1050B0003152000839520008415200086752000876
:1050C0006F52000877520008875300087F5200088B
:1050D000C1520008F152000833530008755300080C
:1050E0007D53000887530008875300088753000842
:1050F0008753000887530008875300088753000828
:105100008753000887530008875300088753000817
:105110008753000887530008875300088753000807
:1051200087530008875300088753000887530008F7
:1051300087530008875300088753000887530008E7
:1051400087530008875300088753000887530008D7
:1051500087530008875300088753000887530008C7
:1051600087530008875300088753000887530008B7
:1051700087530008875300088753000887530008A7
:105180008753000887530008875300088753000897
:105190008753000887530008875300088753000887
:1051A0008753000887530008875300088753000877
:1051B0008753000887530008875300088753000867
:1051C0008753000887530008855300087048FDF78F
:1051D00051FE704B00221A70D5E06D48FDF74AFE73
:1051E0006C4B01221A70CEE06948FDF743FEFEF7D2
:1051F00007FBFEF775FEFEF751FD07F14003184669
:10520000FEF7DEF907F1100307F140012722022023
:10521000FDF793FD604B186807F1100100234FF074
:10522000FF3207F0B5FEAEE05948FDF723FEAAE0D5
:105230005748FDF71FFEA6E05548FDF71BFEA2E00C
:105240005348FDF717FE7B791A46BB79194610467D
:10525000FDF736FD0346FB7307F10F031946DA200D
:10526000FDF7C4FD8FE04A48FDF704FE8BE0484897
:10527000FDF700FE87E04648FDF7FCFD83E044486B
:10528000FDF7F8FD0123BB66444B1868002300932B
:105290000323BA6E002109F06FFE414B186800230A
:1052A00000930323BA6E002109F066FE3D4B186897
:1052B000002300930323BA6E002109F05DFE62E033
:1052C0003348FDF7D7FD0123BB66344B1868002334
:1052D00000930323BA6E002109F04EFE304B18688C
:1052E000002300930323BA6E002109F045FE4AE033
:1052F0002748FDF7BFFD0123BB66284B1868002334
:1053000000930323BA6E002109F036FE244B18687F
:10531000002300930323BA6E002109F02DFE214BD8
:105320001868002300930323BA6E002109F024FEBD
:1053300029E01748FDF79EFD0523FB66174B18680B
:10534000002300930323FA6E002109F015FE144B8D
:105350001868002300930323FA6E002109F00CFE65
:10536000104B1868002300930323FA6E002109F004
:1053700003FE08E00648FDF77DFD04E00448FDF764
:1053800079FD00E000BF00BF7037BD4680BD00BFA3
:1053900004000020F85C0020F45C0020185D002070
:1053A0001C5D0020205D002080B584B000AF7860D7
:1053B000334B1B68184608F085F9F86037E0304B2E
:1053C0001B684FF0FF322F49184607F099FF03463C
:1053D000012B29D12B4B5B78052B03D1294B5A7814
:1053E000294B1A70274B5B78022B03D1254B5A7837
:1053F000254B1A70234B5B78032B03D1214B5A7832
:10540000214B1A701F4B5B78042B03D11D4B5A782C
:105410001D4B1A701D4B1B7883F00103DBB2002B70
:1054200002D01848FDF726FDFB68013BFB60FB68D6
:10543000002BC4D1164B1B68184608F043F9F860DE
:1054400011E0134B1B684FF0FF321249184607F06A
:1054500057FF0346012B03D10E4B1868FFF7FEFDE3
:10546000FB68013BFB60FB68002BEAD14FF4004175
:10547000094800F098FC4FF4FA7008F07DFC97E7BB
:10548000F45C0020545D0020505D0020F85C00209A
:10549000F05C0020845D0020001C024080B400AF5E
:1054A000184B194A07CA03C31A80184B184A07CA6F
:1054B00003C31A70134B00225A6112494FF00002C5
:1054C0004FF00003C1E906230E494FF000024FF0F0
:1054D0000003C1E908230D4B00225A610B494FF02C
:1054E00000024FF00003C1E9062308494FF0000213
:1054F0004FF00003C1E9082300BFBD465DF8047BFF
:10550000704700BF905D0020C02E0108E86D0020AC
:10551000CC2E010880B582B000AF7860474B1B6885
:10552000184608F0CFF80346454A136025E0434B80
:105530001B684FF0FF324349184607F0E1FE03466F
:10554000012B1AD13F4B1B7819463F48FDF7BCFC95
:105550003D4B1B7B002B0BD13C493B48FDF74CFDE1
:105560003B4B186800234FF0FF32384907F010FD1D
:10557000334B1B68013B324A1360314B1B68002BD5
:10558000D5D1344B1B68184608F09CF803462C4ACA
:10559000136025E02F4B1B684FF0FF322949184656
:1055A00007F0AEFE0346012B15D1264B1B7819469A
:1055B0002948FDF789FC284B1B7B002B0BD1234985
:1055C0002548FDF719FD224B186800234FF0FF32E4
:1055D0001E4907F0DDFC1A4B1B68013B184A13609B
:1055E000174B1B68002BD5D11C4B1B68184608F0C5
:1055F00069F80346124A136014E0184B1B684FF019
:10560000FF321049184607F07BFE0346012B04D1F8
:105610000C4B1B781846FEF757FF094B1B68013BE4
:10562000074A1360064B1B68002BE6D14FF0FF3290
:105630000121002009F094FB70E700BFE45C00202A
:10564000447E0020407E0020A816002094160020F2
:10565000F05C0020E85C002098160020EC5C002044
:1056600080B500AF0C4B1B680B4A43F4007313600A
:10567000094B1B68084A43F480631360064B1B68A0
:10568000054A43F480731360032000F0F8F8FCF738
:105690001DFA0023184680BD003C024080B400AFD4
:1056A000064B1B781A46064B1B681344044A1360CA
:1056B00000BFBD465DF8047B704700BF2C00002092
:1056C0004C7E002080B400AF034B1B681846BD46DB
:1056D0005DF8047B704700BF4C7E002080B584B02D
:1056E00000AF7860FFF7EEFFB8607B68FB60FB6897
:1056F000B3F1FF3F05D00A4B1B781A46FB681344F1
:10570000FB6000BFFFF7DEFF0246BB68D31AFA68F2
:105710009A42F7D800BF00BF1037BD4680BD00BF1A
:105720002C00002080B485B000AF78607B6803F067
:105730000703FB600C4BDB68BB60BA684FF6FF03E6
:105740001340BB60FB681A02BB68134343F0BF639E
:1057500043F40033BB60044ABB68D36000BF143716
:10576000BD465DF8047B704700ED00E080B400AFFB
:10577000044BDB681B0A03F007031846BD465DF8BF
:10578000047B704700ED00E080B483B000AF0346B7
:10579000FB7197F90730002B0BDBFB7903F01F023D
:1057A000074997F907305B09012000FA02F241F836
:1057B000232000BF0C37BD465DF8047B704700BF57
:1057C00000E100E080B483B000AF03463960FB71B4
:1057D00097F90730002B0ADB3B68DAB20C4997F9DE
:1057E00007301201D2B20B4483F800230AE03B6871
:1057F000DAB20849FB7903F00F03043B1201D2B27D
:105800000B441A7600BF0C37BD465DF8047B704729
:1058100000E100E000ED00E080B489B000AFF86086
:10582000B9607A60FB6803F00703FB61FB69C3F1B1
:105830000703042B28BF0423BB61FB690433062B39
:1058400002D9FB69033B00E000237B614FF0FF328C
:10585000BB6902FA03F3DA43BB681A407B699A40DA
:105860004FF0FF317B6901FA03F3D9437B680B40AA
:10587000134318462437BD465DF8047B704780B556
:1058800082B000AF78607868FFF74CFF00BF083740
:10589000BD4680BD80B586B000AF0346B9607A6072
:1058A000FB7300237B61FFF761FF78617A68B96859
:1058B0007869FFF7B1FF024697F90F301146184695
:1058C000FFF780FF00BF1837BD4680BD80B582B0AE
:1058D00000AF0346FB7197F907301846FFF754FFF6
:1058E00000BF0837BD4680BD80B584B000AF78608A
:1058F0007B689B6DFB60FFF7E5FEB8607B6893F803
:105900003530DBB2022B08D07B6880225A657B6879
:10591000002283F83420012352E07B681B681A6858
:105920007B681B6822F016021A607B681B685A6944
:105930007B681B6822F080025A617B681B6C002B1D
:1059400003D17B689B6C002B07D07B681B681A68AF
:105950007B681B6822F008021A607B681B681A6863
:105960007B681B6822F001021A6013E0FFF7AAFEB1
:105970000246BB68D31A052B0CD97B6820225A65D6
:105980007B68032283F835207B68002283F834206B
:10599000032315E07B681B681B6803F00103002BE1
:1059A000E4D17B68DB6D3F229A40FB689A607B689C
:1059B000012283F835207B68002283F834200023FD
:1059C00018461037BD4680BD80B483B000AF786004
:1059D0007B6893F83530DBB2022B04D07B688022E1
:1059E0005A6501230CE07B68052283F835207B682B
:1059F0001B681A687B681B6822F001021A6000238A
:105A000018460C37BD465DF8047B704780B489B0FA
:105A100000AF7860396000237B6100233B61002385
:105A2000BB610023FB616BE10122FB6902FA03F316
:105A30007B613B681B687A6913403B613A697B690B
:105A40009A4240F05A813B685B6803F00303012BE4
:105A500005D03B685B6803F00303022B30D17B6801
:105A60009B68BB61FB695B00032202FA03F3DB4323
:105A7000BA691340BB613B68DA68FB695B0002FAF4
:105A800003F3BA691343BB617B68BA699A607B68A8
:105A90005B68BB610122FB6902FA03F3DB43BA696D
:105AA0001340BB613B685B681B0903F00102FB69A3
:105AB00002FA03F3BA691343BB617B68BA695A609F
:105AC0003B685B6803F00303032B17D07B68DB683C
:105AD000BB61FB695B00032202FA03F3DB43BA6993
